{
	"BlogContract.sol": {
		"BlogContract": {
			"abi": [
				{
					"anonymous": false,
					"inputs": [
						{
							"indexed": true,
							"internalType": "address",
							"name": "owner",
							"type": "address"
						},
						{
							"indexed": false,
							"internalType": "string",
							"name": "username",
							"type": "string"
						}
					],
					"name": "AccountCreated",
					"type": "event"
				},
				{
					"anonymous": false,
					"inputs": [
						{
							"indexed": true,
							"internalType": "uint256",
							"name": "postId",
							"type": "uint256"
						},
						{
							"indexed": true,
							"internalType": "address",
							"name": "author",
							"type": "address"
						}
					],
					"name": "CommentAdded",
					"type": "event"
				},
				{
					"anonymous": false,
					"inputs": [
						{
							"indexed": true,
							"internalType": "uint256",
							"name": "postId",
							"type": "uint256"
						},
						{
							"indexed": true,
							"internalType": "address",
							"name": "author",
							"type": "address"
						},
						{
							"indexed": false,
							"internalType": "string",
							"name": "title",
							"type": "string"
						}
					],
					"name": "PostCreated",
					"type": "event"
				},
				{
					"anonymous": false,
					"inputs": [
						{
							"indexed": true,
							"internalType": "uint256",
							"name": "postId",
							"type": "uint256"
						}
					],
					"name": "PostDeleted",
					"type": "event"
				},
				{
					"anonymous": false,
					"inputs": [
						{
							"indexed": true,
							"internalType": "uint256",
							"name": "postId",
							"type": "uint256"
						}
					],
					"name": "PostEdited",
					"type": "event"
				},
				{
					"anonymous": false,
					"inputs": [
						{
							"indexed": true,
							"internalType": "uint256",
							"name": "postId",
							"type": "uint256"
						},
						{
							"indexed": true,
							"internalType": "address",
							"name": "liker",
							"type": "address"
						}
					],
					"name": "PostLiked",
					"type": "event"
				},
				{
					"inputs": [
						{
							"internalType": "uint256",
							"name": "_postId",
							"type": "uint256"
						},
						{
							"internalType": "string",
							"name": "_text",
							"type": "string"
						}
					],
					"name": "addComment",
					"outputs": [],
					"stateMutability": "nonpayable",
					"type": "function"
				},
				{
					"inputs": [
						{
							"internalType": "string",
							"name": "_username",
							"type": "string"
						},
						{
							"internalType": "string",
							"name": "_bio",
							"type": "string"
						}
					],
					"name": "createAccount",
					"outputs": [],
					"stateMutability": "nonpayable",
					"type": "function"
				},
				{
					"inputs": [
						{
							"internalType": "string",
							"name": "_title",
							"type": "string"
						},
						{
							"internalType": "string",
							"name": "_content",
							"type": "string"
						}
					],
					"name": "createPost",
					"outputs": [],
					"stateMutability": "nonpayable",
					"type": "function"
				},
				{
					"inputs": [
						{
							"internalType": "uint256",
							"name": "_postId",
							"type": "uint256"
						}
					],
					"name": "deletePost",
					"outputs": [],
					"stateMutability": "nonpayable",
					"type": "function"
				},
				{
					"inputs": [
						{
							"internalType": "uint256",
							"name": "_postId",
							"type": "uint256"
						},
						{
							"internalType": "string",
							"name": "_newContent",
							"type": "string"
						}
					],
					"name": "editPost",
					"outputs": [],
					"stateMutability": "nonpayable",
					"type": "function"
				},
				{
					"inputs": [
						{
							"internalType": "address",
							"name": "_owner",
							"type": "address"
						}
					],
					"name": "getAccount",
					"outputs": [
						{
							"internalType": "string",
							"name": "username",
							"type": "string"
						},
						{
							"internalType": "string",
							"name": "bio",
							"type": "string"
						},
						{
							"internalType": "uint256",
							"name": "createdAt",
							"type": "uint256"
						}
					],
					"stateMutability": "view",
					"type": "function"
				},
				{
					"inputs": [],
					"name": "getAllPosts",
					"outputs": [
						{
							"internalType": "uint256[]",
							"name": "",
							"type": "uint256[]"
						}
					],
					"stateMutability": "view",
					"type": "function"
				},
				{
					"inputs": [
						{
							"internalType": "uint256",
							"name": "_postId",
							"type": "uint256"
						}
					],
					"name": "getComments",
					"outputs": [
						{
							"components": [
								{
									"internalType": "uint256",
									"name": "commentId",
									"type": "uint256"
								},
								{
									"internalType": "address",
									"name": "author",
									"type": "address"
								},
								{
									"internalType": "string",
									"name": "text",
									"type": "string"
								},
								{
									"internalType": "uint256",
									"name": "postId",
									"type": "uint256"
								},
								{
									"internalType": "uint256",
									"name": "createdAt",
									"type": "uint256"
								}
							],
							"internalType": "struct BlogContract.Comment[]",
							"name": "",
							"type": "tuple[]"
						}
					],
					"stateMutability": "view",
					"type": "function"
				},
				{
					"inputs": [
						{
							"internalType": "uint256",
							"name": "_postId",
							"type": "uint256"
						}
					],
					"name": "getPostDetails",
					"outputs": [
						{
							"internalType": "uint256",
							"name": "postId",
							"type": "uint256"
						},
						{
							"internalType": "address",
							"name": "author",
							"type": "address"
						},
						{
							"internalType": "string",
							"name": "title",
							"type": "string"
						},
						{
							"internalType": "string",
							"name": "content",
							"type": "string"
						},
						{
							"internalType": "uint256",
							"name": "likes",
							"type": "uint256"
						},
						{
							"internalType": "uint256",
							"name": "createdAt",
							"type": "uint256"
						}
					],
					"stateMutability": "view",
					"type": "function"
				},
				{
					"inputs": [
						{
							"internalType": "address",
							"name": "_owner",
							"type": "address"
						}
					],
					"name": "getPostsByAccount",
					"outputs": [
						{
							"internalType": "uint256[]",
							"name": "",
							"type": "uint256[]"
						}
					],
					"stateMutability": "view",
					"type": "function"
				},
				{
					"inputs": [
						{
							"internalType": "uint256",
							"name": "_postId",
							"type": "uint256"
						}
					],
					"name": "likePost",
					"outputs": [],
					"stateMutability": "nonpayable",
					"type": "function"
				}
			],
			"devdoc": {
				"author": "Elia Salmina - AMETI M107",
				"kind": "dev",
				"methods": {},
				"title": "BlogContract - Smart Contract per un Blog su Ethereum",
				"version": 1
			},
			"evm": {
				"assembly": "    /* \"BlogContract.sol\":162:8751  contract BlogContract {... */\n  mstore(0x40, 0x80)\n  callvalue\n  dup1\n  iszero\n  tag_1\n  jumpi\n  revert(0x00, 0x00)\ntag_1:\n  pop\n  dataSize(sub_0)\n  dup1\n  dataOffset(sub_0)\n  0x00\n  codecopy\n  0x00\n  return\nstop\n\nsub_0: assembly {\n        /* \"BlogContract.sol\":162:8751  contract BlogContract {... */\n      mstore(0x40, 0x80)\n      callvalue\n      dup1\n      iszero\n      tag_1\n      jumpi\n      revert(0x00, 0x00)\n    tag_1:\n      pop\n      jumpi(tag_2, lt(calldatasize, 0x04))\n      shr(0xe0, calldataload(0x00))\n      dup1\n      0x47ef6de1\n      gt\n      tag_14\n      jumpi\n      dup1\n      0x47ef6de1\n      eq\n      tag_8\n      jumpi\n      dup1\n      0x725009d3\n      eq\n      tag_9\n      jumpi\n      dup1\n      0x9fc226f4\n      eq\n      tag_10\n      jumpi\n      dup1\n      0xaa7e5683\n      eq\n      tag_11\n      jumpi\n      dup1\n      0xfa99654a\n      eq\n      tag_12\n      jumpi\n      dup1\n      0xfbcbc0f1\n      eq\n      tag_13\n      jumpi\n      jump(tag_2)\n    tag_14:\n      dup1\n      0x094cd5ee\n      eq\n      tag_3\n      jumpi\n      dup1\n      0x19289287\n      eq\n      tag_4\n      jumpi\n      dup1\n      0x23edf697\n      eq\n      tag_5\n      jumpi\n      dup1\n      0x30561100\n      eq\n      tag_6\n      jumpi\n      dup1\n      0x392338f5\n      eq\n      tag_7\n      jumpi\n    tag_2:\n      revert(0x00, 0x00)\n        /* \"BlogContract.sol\":5974:6176  function deletePost(uint _postId)... */\n    tag_3:\n      tag_15\n      0x04\n      dup1\n      calldatasize\n      sub\n      dup2\n      add\n      swap1\n      tag_16\n      swap2\n      swap1\n      tag_17\n      jump\t// in\n    tag_16:\n      tag_18\n      jump\t// in\n    tag_15:\n      stop\n        /* \"BlogContract.sol\":3419:3931  function createAccount(string memory _username, string memory _bio) external {... */\n    tag_4:\n      tag_19\n      0x04\n      dup1\n      calldatasize\n      sub\n      dup2\n      add\n      swap1\n      tag_20\n      swap2\n      swap1\n      tag_21\n      jump\t// in\n    tag_20:\n      tag_22\n      jump\t// in\n    tag_19:\n      stop\n        /* \"BlogContract.sol\":8570:8749  function getComments(uint _postId)... */\n    tag_5:\n      tag_23\n      0x04\n      dup1\n      calldatasize\n      sub\n      dup2\n      add\n      swap1\n      tag_24\n      swap2\n      swap1\n      tag_17\n      jump\t// in\n    tag_24:\n      tag_25\n      jump\t// in\n    tag_23:\n      mload(0x40)\n      tag_26\n      swap2\n      swap1\n      tag_27\n      jump\t// in\n    tag_26:\n      mload(0x40)\n      dup1\n      swap2\n      sub\n      swap1\n      return\n        /* \"BlogContract.sol\":7116:7629  function getAllPosts() external view returns (uint[] memory) {... */\n    tag_6:\n      tag_28\n      tag_29\n      jump\t// in\n    tag_28:\n      mload(0x40)\n      tag_30\n      swap2\n      swap1\n      tag_31\n      jump\t// in\n    tag_30:\n      mload(0x40)\n      dup1\n      swap2\n      sub\n      swap1\n      return\n        /* \"BlogContract.sol\":4835:5545  function createPost(string memory _title, string memory _content)... */\n    tag_7:\n      tag_32\n      0x04\n      dup1\n      calldatasize\n      sub\n      dup2\n      add\n      swap1\n      tag_33\n      swap2\n      swap1\n      tag_21\n      jump\t// in\n    tag_33:\n      tag_34\n      jump\t// in\n    tag_32:\n      stop\n        /* \"BlogContract.sol\":4388:4515  function getPostsByAccount(address _owner) external view returns (uint[] memory) {... */\n    tag_8:\n      tag_35\n      0x04\n      dup1\n      calldatasize\n      sub\n      dup2\n      add\n      swap1\n      tag_36\n      swap2\n      swap1\n      tag_37\n      jump\t// in\n    tag_36:\n      tag_38\n      jump\t// in\n    tag_35:\n      mload(0x40)\n      tag_39\n      swap2\n      swap1\n      tag_31\n      jump\t// in\n    tag_39:\n      mload(0x40)\n      dup1\n      swap2\n      sub\n      swap1\n      return\n        /* \"BlogContract.sol\":6242:6574  function likePost(uint _postId)... */\n    tag_9:\n      tag_40\n      0x04\n      dup1\n      calldatasize\n      sub\n      dup2\n      add\n      swap1\n      tag_41\n      swap2\n      swap1\n      tag_17\n      jump\t// in\n    tag_41:\n      tag_42\n      jump\t// in\n    tag_40:\n      stop\n        /* \"BlogContract.sol\":6622:7065  function getPostDetails(uint _postId)... */\n    tag_10:\n      tag_43\n      0x04\n      dup1\n      calldatasize\n      sub\n      dup2\n      add\n      swap1\n      tag_44\n      swap2\n      swap1\n      tag_17\n      jump\t// in\n    tag_44:\n      tag_45\n      jump\t// in\n    tag_43:\n      mload(0x40)\n      tag_46\n      swap7\n      swap6\n      swap5\n      swap4\n      swap3\n      swap2\n      swap1\n      tag_47\n      jump\t// in\n    tag_46:\n      mload(0x40)\n      dup1\n      swap2\n      sub\n      swap1\n      return\n        /* \"BlogContract.sol\":7965:8516  function addComment(uint _postId, string memory _text)... */\n    tag_11:\n      tag_48\n      0x04\n      dup1\n      calldatasize\n      sub\n      dup2\n      add\n      swap1\n      tag_49\n      swap2\n      swap1\n      tag_50\n      jump\t// in\n    tag_49:\n      tag_51\n      jump\t// in\n    tag_48:\n      stop\n        /* \"BlogContract.sol\":5608:5928  function editPost(uint _postId, string memory _newContent)... */\n    tag_12:\n      tag_52\n      0x04\n      dup1\n      calldatasize\n      sub\n      dup2\n      add\n      swap1\n      tag_53\n      swap2\n      swap1\n      tag_50\n      jump\t// in\n    tag_53:\n      tag_54\n      jump\t// in\n    tag_52:\n      stop\n        /* \"BlogContract.sol\":4000:4321  function getAccount(address _owner)... */\n    tag_13:\n      tag_55\n      0x04\n      dup1\n      calldatasize\n      sub\n      dup2\n      add\n      swap1\n      tag_56\n      swap2\n      swap1\n      tag_37\n      jump\t// in\n    tag_56:\n      tag_57\n      jump\t// in\n    tag_55:\n      mload(0x40)\n      tag_58\n      swap4\n      swap3\n      swap2\n      swap1\n      tag_59\n      jump\t// in\n    tag_58:\n      mload(0x40)\n      dup1\n      swap2\n      sub\n      swap1\n      return\n        /* \"BlogContract.sol\":5974:6176  function deletePost(uint _postId)... */\n    tag_18:\n        /* \"BlogContract.sol\":6050:6057  _postId */\n      dup1\n        /* \"BlogContract.sol\":2865:2870  posts */\n      0x01\n        /* \"BlogContract.sol\":2865:2879  posts[_postId] */\n      0x00\n        /* \"BlogContract.sol\":2871:2878  _postId */\n      dup3\n        /* \"BlogContract.sol\":2865:2879  posts[_postId] */\n      dup2\n      mstore\n      0x20\n      add\n      swap1\n      dup2\n      mstore\n      0x20\n      add\n      0x00\n      keccak256\n        /* \"BlogContract.sol\":2865:2886  posts[_postId].exists */\n      0x06\n      add\n      0x00\n      swap1\n      sload\n      swap1\n      0x0100\n      exp\n      swap1\n      div\n      0xff\n      and\n        /* \"BlogContract.sol\":2857:2908  require(posts[_postId].exists, \"Post non trovato.\") */\n      tag_61\n      jumpi\n      mload(0x40)\n      0x08c379a000000000000000000000000000000000000000000000000000000000\n      dup2\n      mstore\n      0x04\n      add\n      tag_62\n      swap1\n      tag_63\n      jump\t// in\n    tag_62:\n      mload(0x40)\n      dup1\n      swap2\n      sub\n      swap1\n      revert\n    tag_61:\n        /* \"BlogContract.sol\":6082:6089  _postId */\n      dup2\n        /* \"BlogContract.sol\":3013:3023  msg.sender */\n      caller\n        /* \"BlogContract.sol\":2988:3023  posts[_postId].author == msg.sender */\n      0xffffffffffffffffffffffffffffffffffffffff\n      and\n        /* \"BlogContract.sol\":2988:2993  posts */\n      0x01\n        /* \"BlogContract.sol\":2988:3002  posts[_postId] */\n      0x00\n        /* \"BlogContract.sol\":2994:3001  _postId */\n      dup4\n        /* \"BlogContract.sol\":2988:3002  posts[_postId] */\n      dup2\n      mstore\n      0x20\n      add\n      swap1\n      dup2\n      mstore\n      0x20\n      add\n      0x00\n      keccak256\n        /* \"BlogContract.sol\":2988:3009  posts[_postId].author */\n      0x01\n      add\n      0x00\n      swap1\n      sload\n      swap1\n      0x0100\n      exp\n      swap1\n      div\n      0xffffffffffffffffffffffffffffffffffffffff\n      and\n        /* \"BlogContract.sol\":2988:3023  posts[_postId].author == msg.sender */\n      0xffffffffffffffffffffffffffffffffffffffff\n      and\n      eq\n        /* \"BlogContract.sol\":2980:3060  require(posts[_postId].author == msg.sender, \"Non sei l'autore di questo post.\") */\n      tag_65\n      jumpi\n      mload(0x40)\n      0x08c379a000000000000000000000000000000000000000000000000000000000\n      dup2\n      mstore\n      0x04\n      add\n      tag_66\n      swap1\n      tag_67\n      jump\t// in\n    tag_66:\n      mload(0x40)\n      dup1\n      swap2\n      sub\n      swap1\n      revert\n    tag_65:\n        /* \"BlogContract.sol\":6129:6134  false */\n      0x00\n        /* \"BlogContract.sol\":6105:6110  posts */\n      0x01\n        /* \"BlogContract.sol\":6105:6119  posts[_postId] */\n      0x00\n        /* \"BlogContract.sol\":6111:6118  _postId */\n      dup6\n        /* \"BlogContract.sol\":6105:6119  posts[_postId] */\n      dup2\n      mstore\n      0x20\n      add\n      swap1\n      dup2\n      mstore\n      0x20\n      add\n      0x00\n      keccak256\n        /* \"BlogContract.sol\":6105:6126  posts[_postId].exists */\n      0x06\n      add\n      0x00\n        /* \"BlogContract.sol\":6105:6134  posts[_postId].exists = false */\n      0x0100\n      exp\n      dup2\n      sload\n      dup2\n      0xff\n      mul\n      not\n      and\n      swap1\n      dup4\n      iszero\n      iszero\n      mul\n      or\n      swap1\n      sstore\n      pop\n        /* \"BlogContract.sol\":6161:6168  _postId */\n      dup3\n        /* \"BlogContract.sol\":6149:6169  PostDeleted(_postId) */\n      0x32d67e2131cd025eb20e7256680e338dedbe17b28943a11681860a9271ad119d\n      mload(0x40)\n      mload(0x40)\n      dup1\n      swap2\n      sub\n      swap1\n      log2\n        /* \"BlogContract.sol\":2918:2919  _ */\n      pop\n        /* \"BlogContract.sol\":5974:6176  function deletePost(uint _postId)... */\n      pop\n      pop\n      jump\t// out\n        /* \"BlogContract.sol\":3419:3931  function createAccount(string memory _username, string memory _bio) external {... */\n    tag_22:\n        /* \"BlogContract.sol\":3515:3523  accounts */\n      0x00\n        /* \"BlogContract.sol\":3515:3535  accounts[msg.sender] */\n      0x00\n        /* \"BlogContract.sol\":3524:3534  msg.sender */\n      caller\n        /* \"BlogContract.sol\":3515:3535  accounts[msg.sender] */\n      0xffffffffffffffffffffffffffffffffffffffff\n      and\n      0xffffffffffffffffffffffffffffffffffffffff\n      and\n      dup2\n      mstore\n      0x20\n      add\n      swap1\n      dup2\n      mstore\n      0x20\n      add\n      0x00\n      keccak256\n        /* \"BlogContract.sol\":3515:3542  accounts[msg.sender].exists */\n      0x04\n      add\n      0x00\n      swap1\n      sload\n      swap1\n      0x0100\n      exp\n      swap1\n      div\n      0xff\n      and\n        /* \"BlogContract.sol\":3514:3542  !accounts[msg.sender].exists */\n      iszero\n        /* \"BlogContract.sol\":3506:3570  require(!accounts[msg.sender].exists, \"Account gia' esistente.\") */\n      tag_70\n      jumpi\n      mload(0x40)\n      0x08c379a000000000000000000000000000000000000000000000000000000000\n      dup2\n      mstore\n      0x04\n      add\n      tag_71\n      swap1\n      tag_72\n      jump\t// in\n    tag_71:\n      mload(0x40)\n      dup1\n      swap2\n      sub\n      swap1\n      revert\n    tag_70:\n        /* \"BlogContract.sol\":3614:3615  0 */\n      0x00\n        /* \"BlogContract.sol\":3594:3603  _username */\n      dup3\n        /* \"BlogContract.sol\":3588:3611  bytes(_username).length */\n      mload\n        /* \"BlogContract.sol\":3588:3615  bytes(_username).length > 0 */\n      gt\n        /* \"BlogContract.sol\":3580:3651  require(bytes(_username).length > 0, \"Username non puo' essere vuoto.\") */\n      tag_73\n      jumpi\n      mload(0x40)\n      0x08c379a000000000000000000000000000000000000000000000000000000000\n      dup2\n      mstore\n      0x04\n      add\n      tag_74\n      swap1\n      tag_75\n      jump\t// in\n    tag_74:\n      mload(0x40)\n      dup1\n      swap2\n      sub\n      swap1\n      revert\n    tag_73:\n        /* \"BlogContract.sol\":3685:3871  Account({... */\n      mload(0x40)\n      dup1\n      0xa0\n      add\n      0x40\n      mstore\n      dup1\n        /* \"BlogContract.sol\":3718:3728  msg.sender */\n      caller\n        /* \"BlogContract.sol\":3685:3871  Account({... */\n      0xffffffffffffffffffffffffffffffffffffffff\n      and\n      dup2\n      mstore\n      0x20\n      add\n        /* \"BlogContract.sol\":3753:3762  _username */\n      dup4\n        /* \"BlogContract.sol\":3685:3871  Account({... */\n      dup2\n      mstore\n      0x20\n      add\n        /* \"BlogContract.sol\":3787:3791  _bio */\n      dup3\n        /* \"BlogContract.sol\":3685:3871  Account({... */\n      dup2\n      mstore\n      0x20\n      add\n        /* \"BlogContract.sol\":3816:3831  block.timestamp */\n      timestamp\n        /* \"BlogContract.sol\":3685:3871  Account({... */\n      dup2\n      mstore\n      0x20\n      add\n        /* \"BlogContract.sol\":3856:3860  true */\n      0x01\n        /* \"BlogContract.sol\":3685:3871  Account({... */\n      iszero\n      iszero\n      dup2\n      mstore\n      pop\n        /* \"BlogContract.sol\":3662:3670  accounts */\n      0x00\n        /* \"BlogContract.sol\":3662:3682  accounts[msg.sender] */\n      0x00\n        /* \"BlogContract.sol\":3671:3681  msg.sender */\n      caller\n        /* \"BlogContract.sol\":3662:3682  accounts[msg.sender] */\n      0xffffffffffffffffffffffffffffffffffffffff\n      and\n      0xffffffffffffffffffffffffffffffffffffffff\n      and\n      dup2\n      mstore\n      0x20\n      add\n      swap1\n      dup2\n      mstore\n      0x20\n      add\n      0x00\n      keccak256\n        /* \"BlogContract.sol\":3662:3871  accounts[msg.sender] = Account({... */\n      0x00\n      dup3\n      add\n      mload\n      dup2\n      0x00\n      add\n      exp(0x0100, 0x00)\n      dup2\n      sload\n      dup2\n      0xffffffffffffffffffffffffffffffffffffffff\n      mul\n      not\n      and\n      swap1\n      dup4\n      0xffffffffffffffffffffffffffffffffffffffff\n      and\n      mul\n      or\n      swap1\n      sstore\n      pop\n      0x20\n      dup3\n      add\n      mload\n      dup2\n      0x01\n      add\n      swap1\n      dup2\n      tag_76\n      swap2\n      swap1\n      tag_77\n      jump\t// in\n    tag_76:\n      pop\n      0x40\n      dup3\n      add\n      mload\n      dup2\n      0x02\n      add\n      swap1\n      dup2\n      tag_78\n      swap2\n      swap1\n      tag_77\n      jump\t// in\n    tag_78:\n      pop\n      0x60\n      dup3\n      add\n      mload\n      dup2\n      0x03\n      add\n      sstore\n      0x80\n      dup3\n      add\n      mload\n      dup2\n      0x04\n      add\n      exp(0x0100, 0x00)\n      dup2\n      sload\n      dup2\n      0xff\n      mul\n      not\n      and\n      swap1\n      dup4\n      iszero\n      iszero\n      mul\n      or\n      swap1\n      sstore\n      pop\n      swap1\n      pop\n      pop\n        /* \"BlogContract.sol\":3902:3912  msg.sender */\n      caller\n        /* \"BlogContract.sol\":3887:3924  AccountCreated(msg.sender, _username) */\n      0xffffffffffffffffffffffffffffffffffffffff\n      and\n      0xb3202828e8e55b43ee1a77a1ee6ffbe19f0205767feb21e28cadd26390ff0501\n        /* \"BlogContract.sol\":3914:3923  _username */\n      dup4\n        /* \"BlogContract.sol\":3887:3924  AccountCreated(msg.sender, _username) */\n      mload(0x40)\n      tag_79\n      swap2\n      swap1\n      tag_80\n      jump\t// in\n    tag_79:\n      mload(0x40)\n      dup1\n      swap2\n      sub\n      swap1\n      log2\n        /* \"BlogContract.sol\":3419:3931  function createAccount(string memory _username, string memory _bio) external {... */\n      pop\n      pop\n      jump\t// out\n        /* \"BlogContract.sol\":8570:8749  function getComments(uint _postId)... */\n    tag_25:\n        /* \"BlogContract.sol\":8686:8702  Comment[] memory */\n      0x60\n        /* \"BlogContract.sol\":8660:8667  _postId */\n      dup2\n        /* \"BlogContract.sol\":2865:2870  posts */\n      0x01\n        /* \"BlogContract.sol\":2865:2879  posts[_postId] */\n      0x00\n        /* \"BlogContract.sol\":2871:2878  _postId */\n      dup3\n        /* \"BlogContract.sol\":2865:2879  posts[_postId] */\n      dup2\n      mstore\n      0x20\n      add\n      swap1\n      dup2\n      mstore\n      0x20\n      add\n      0x00\n      keccak256\n        /* \"BlogContract.sol\":2865:2886  posts[_postId].exists */\n      0x06\n      add\n      0x00\n      swap1\n      sload\n      swap1\n      0x0100\n      exp\n      swap1\n      div\n      0xff\n      and\n        /* \"BlogContract.sol\":2857:2908  require(posts[_postId].exists, \"Post non trovato.\") */\n      tag_82\n      jumpi\n      mload(0x40)\n      0x08c379a000000000000000000000000000000000000000000000000000000000\n      dup2\n      mstore\n      0x04\n      add\n      tag_83\n      swap1\n      tag_63\n      jump\t// in\n    tag_83:\n      mload(0x40)\n      dup1\n      swap2\n      sub\n      swap1\n      revert\n    tag_82:\n        /* \"BlogContract.sol\":8725:8733  comments */\n      0x02\n        /* \"BlogContract.sol\":8725:8742  comments[_postId] */\n      0x00\n        /* \"BlogContract.sol\":8734:8741  _postId */\n      dup5\n        /* \"BlogContract.sol\":8725:8742  comments[_postId] */\n      dup2\n      mstore\n      0x20\n      add\n      swap1\n      dup2\n      mstore\n      0x20\n      add\n      0x00\n      keccak256\n        /* \"BlogContract.sol\":8718:8742  return comments[_postId] */\n      dup1\n      sload\n      dup1\n      0x20\n      mul\n      0x20\n      add\n      mload(0x40)\n      swap1\n      dup2\n      add\n      0x40\n      mstore\n      dup1\n      swap3\n      swap2\n      swap1\n      dup2\n      dup2\n      mstore\n      0x20\n      add\n      0x00\n      swap1\n    tag_85:\n      dup3\n      dup3\n      lt\n      iszero\n      tag_86\n      jumpi\n      dup4\n      dup3\n      swap1\n      0x00\n      mstore\n      keccak256(0x00, 0x20)\n      swap1\n      0x05\n      mul\n      add\n      mload(0x40)\n      dup1\n      0xa0\n      add\n      0x40\n      mstore\n      swap1\n      dup2\n      0x00\n      dup3\n      add\n      sload\n      dup2\n      mstore\n      0x20\n      add\n      0x01\n      dup3\n      add\n      0x00\n      swap1\n      sload\n      swap1\n      0x0100\n      exp\n      swap1\n      div\n      0xffffffffffffffffffffffffffffffffffffffff\n      and\n      0xffffffffffffffffffffffffffffffffffffffff\n      and\n      0xffffffffffffffffffffffffffffffffffffffff\n      and\n      dup2\n      mstore\n      0x20\n      add\n      0x02\n      dup3\n      add\n      dup1\n      sload\n      tag_88\n      swap1\n      tag_89\n      jump\t// in\n    tag_88:\n      dup1\n      0x1f\n      add\n      0x20\n      dup1\n      swap2\n      div\n      mul\n      0x20\n      add\n      mload(0x40)\n      swap1\n      dup2\n      add\n      0x40\n      mstore\n      dup1\n      swap3\n      swap2\n      swap1\n      dup2\n      dup2\n      mstore\n      0x20\n      add\n      dup3\n      dup1\n      sload\n      tag_90\n      swap1\n      tag_89\n      jump\t// in\n    tag_90:\n      dup1\n      iszero\n      tag_91\n      jumpi\n      dup1\n      0x1f\n      lt\n      tag_92\n      jumpi\n      0x0100\n      dup1\n      dup4\n      sload\n      div\n      mul\n      dup4\n      mstore\n      swap2\n      0x20\n      add\n      swap2\n      jump(tag_91)\n    tag_92:\n      dup3\n      add\n      swap2\n      swap1\n      0x00\n      mstore\n      keccak256(0x00, 0x20)\n      swap1\n    tag_93:\n      dup2\n      sload\n      dup2\n      mstore\n      swap1\n      0x01\n      add\n      swap1\n      0x20\n      add\n      dup1\n      dup4\n      gt\n      tag_93\n      jumpi\n      dup3\n      swap1\n      sub\n      0x1f\n      and\n      dup3\n      add\n      swap2\n    tag_91:\n      pop\n      pop\n      pop\n      pop\n      pop\n      dup2\n      mstore\n      0x20\n      add\n      0x03\n      dup3\n      add\n      sload\n      dup2\n      mstore\n      0x20\n      add\n      0x04\n      dup3\n      add\n      sload\n      dup2\n      mstore\n      pop\n      pop\n      dup2\n      mstore\n      0x20\n      add\n      swap1\n      0x01\n      add\n      swap1\n      jump(tag_85)\n    tag_86:\n      pop\n      pop\n      pop\n      pop\n      swap2\n      pop\n        /* \"BlogContract.sol\":8570:8749  function getComments(uint _postId)... */\n      pop\n      swap2\n      swap1\n      pop\n      jump\t// out\n        /* \"BlogContract.sol\":7116:7629  function getAllPosts() external view returns (uint[] memory) {... */\n    tag_29:\n        /* \"BlogContract.sol\":7162:7175  uint[] memory */\n      0x60\n        /* \"BlogContract.sol\":7249:7259  uint count */\n      0x00\n        /* \"BlogContract.sol\":7262:7263  0 */\n      0x00\n        /* \"BlogContract.sol\":7249:7263  uint count = 0 */\n      swap1\n      pop\n        /* \"BlogContract.sol\":7278:7284  uint i */\n      0x00\n        /* \"BlogContract.sol\":7287:7288  1 */\n      0x01\n        /* \"BlogContract.sol\":7278:7288  uint i = 1 */\n      swap1\n      pop\n        /* \"BlogContract.sol\":7273:7364  for (uint i = 1; i <= postCount; i++) {... */\n    tag_95:\n        /* \"BlogContract.sol\":7295:7304  postCount */\n      sload(0x05)\n        /* \"BlogContract.sol\":7290:7291  i */\n      dup2\n        /* \"BlogContract.sol\":7290:7304  i <= postCount */\n      gt\n        /* \"BlogContract.sol\":7273:7364  for (uint i = 1; i <= postCount; i++) {... */\n      tag_96\n      jumpi\n        /* \"BlogContract.sol\":7329:7334  posts */\n      0x01\n        /* \"BlogContract.sol\":7329:7337  posts[i] */\n      0x00\n        /* \"BlogContract.sol\":7335:7336  i */\n      dup3\n        /* \"BlogContract.sol\":7329:7337  posts[i] */\n      dup2\n      mstore\n      0x20\n      add\n      swap1\n      dup2\n      mstore\n      0x20\n      add\n      0x00\n      keccak256\n        /* \"BlogContract.sol\":7329:7344  posts[i].exists */\n      0x06\n      add\n      0x00\n      swap1\n      sload\n      swap1\n      0x0100\n      exp\n      swap1\n      div\n      0xff\n      and\n        /* \"BlogContract.sol\":7325:7353  if (posts[i].exists) count++ */\n      iszero\n      tag_98\n      jumpi\n        /* \"BlogContract.sol\":7346:7353  count++ */\n      dup2\n      dup1\n      tag_99\n      swap1\n      tag_100\n      jump\t// in\n    tag_99:\n      swap3\n      pop\n      pop\n        /* \"BlogContract.sol\":7325:7353  if (posts[i].exists) count++ */\n    tag_98:\n        /* \"BlogContract.sol\":7306:7309  i++ */\n      dup1\n      dup1\n      tag_101\n      swap1\n      tag_100\n      jump\t// in\n    tag_101:\n      swap2\n      pop\n      pop\n        /* \"BlogContract.sol\":7273:7364  for (uint i = 1; i <= postCount; i++) {... */\n      jump(tag_95)\n    tag_96:\n      pop\n        /* \"BlogContract.sol\":7374:7394  uint[] memory result */\n      0x00\n        /* \"BlogContract.sol\":7408:7413  count */\n      dup2\n        /* \"BlogContract.sol\":7397:7414  new uint[](count) */\n      0xffffffffffffffff\n      dup2\n      gt\n      iszero\n      tag_102\n      jumpi\n      tag_103\n      tag_104\n      jump\t// in\n    tag_103:\n    tag_102:\n      mload(0x40)\n      swap1\n      dup1\n      dup3\n      mstore\n      dup1\n      0x20\n      mul\n      0x20\n      add\n      dup3\n      add\n      0x40\n      mstore\n      dup1\n      iszero\n      tag_105\n      jumpi\n      dup2\n      0x20\n      add\n      0x20\n      dup3\n      mul\n      dup1\n      calldatasize\n      dup4\n      calldatacopy\n      dup1\n      dup3\n      add\n      swap2\n      pop\n      pop\n      swap1\n      pop\n    tag_105:\n      pop\n        /* \"BlogContract.sol\":7374:7414  uint[] memory result = new uint[](count) */\n      swap1\n      pop\n        /* \"BlogContract.sol\":7424:7432  uint idx */\n      0x00\n        /* \"BlogContract.sol\":7435:7436  0 */\n      0x00\n        /* \"BlogContract.sol\":7424:7436  uint idx = 0 */\n      swap1\n      pop\n        /* \"BlogContract.sol\":7451:7457  uint i */\n      0x00\n        /* \"BlogContract.sol\":7460:7461  1 */\n      0x01\n        /* \"BlogContract.sol\":7451:7461  uint i = 1 */\n      swap1\n      pop\n        /* \"BlogContract.sol\":7446:7600  for (uint i = 1; i <= postCount; i++) {... */\n    tag_106:\n        /* \"BlogContract.sol\":7468:7477  postCount */\n      sload(0x05)\n        /* \"BlogContract.sol\":7463:7464  i */\n      dup2\n        /* \"BlogContract.sol\":7463:7477  i <= postCount */\n      gt\n        /* \"BlogContract.sol\":7446:7600  for (uint i = 1; i <= postCount; i++) {... */\n      tag_107\n      jumpi\n        /* \"BlogContract.sol\":7502:7507  posts */\n      0x01\n        /* \"BlogContract.sol\":7502:7510  posts[i] */\n      0x00\n        /* \"BlogContract.sol\":7508:7509  i */\n      dup3\n        /* \"BlogContract.sol\":7502:7510  posts[i] */\n      dup2\n      mstore\n      0x20\n      add\n      swap1\n      dup2\n      mstore\n      0x20\n      add\n      0x00\n      keccak256\n        /* \"BlogContract.sol\":7502:7517  posts[i].exists */\n      0x06\n      add\n      0x00\n      swap1\n      sload\n      swap1\n      0x0100\n      exp\n      swap1\n      div\n      0xff\n      and\n        /* \"BlogContract.sol\":7498:7590  if (posts[i].exists) {... */\n      iszero\n      tag_109\n      jumpi\n        /* \"BlogContract.sol\":7551:7552  i */\n      dup1\n        /* \"BlogContract.sol\":7537:7543  result */\n      dup4\n        /* \"BlogContract.sol\":7544:7547  idx */\n      dup4\n        /* \"BlogContract.sol\":7537:7548  result[idx] */\n      dup2\n      mload\n      dup2\n      lt\n      tag_110\n      jumpi\n      tag_111\n      tag_112\n      jump\t// in\n    tag_111:\n    tag_110:\n      0x20\n      mul\n      0x20\n      add\n      add\n        /* \"BlogContract.sol\":7537:7552  result[idx] = i */\n      dup2\n      dup2\n      mstore\n      pop\n      pop\n        /* \"BlogContract.sol\":7570:7575  idx++ */\n      dup2\n      dup1\n      tag_113\n      swap1\n      tag_100\n      jump\t// in\n    tag_113:\n      swap3\n      pop\n      pop\n        /* \"BlogContract.sol\":7498:7590  if (posts[i].exists) {... */\n    tag_109:\n        /* \"BlogContract.sol\":7479:7482  i++ */\n      dup1\n      dup1\n      tag_114\n      swap1\n      tag_100\n      jump\t// in\n    tag_114:\n      swap2\n      pop\n      pop\n        /* \"BlogContract.sol\":7446:7600  for (uint i = 1; i <= postCount; i++) {... */\n      jump(tag_106)\n    tag_107:\n      pop\n        /* \"BlogContract.sol\":7616:7622  result */\n      dup2\n        /* \"BlogContract.sol\":7609:7622  return result */\n      swap4\n      pop\n      pop\n      pop\n      pop\n        /* \"BlogContract.sol\":7116:7629  function getAllPosts() external view returns (uint[] memory) {... */\n      swap1\n      jump\t// out\n        /* \"BlogContract.sol\":4835:5545  function createPost(string memory _title, string memory _content)... */\n    tag_34:\n        /* \"BlogContract.sol\":2722:2730  accounts */\n      0x00\n        /* \"BlogContract.sol\":2722:2742  accounts[msg.sender] */\n      0x00\n        /* \"BlogContract.sol\":2731:2741  msg.sender */\n      caller\n        /* \"BlogContract.sol\":2722:2742  accounts[msg.sender] */\n      0xffffffffffffffffffffffffffffffffffffffff\n      and\n      0xffffffffffffffffffffffffffffffffffffffff\n      and\n      dup2\n      mstore\n      0x20\n      add\n      swap1\n      dup2\n      mstore\n      0x20\n      add\n      0x00\n      keccak256\n        /* \"BlogContract.sol\":2722:2749  accounts[msg.sender].exists */\n      0x04\n      add\n      0x00\n      swap1\n      sload\n      swap1\n      0x0100\n      exp\n      swap1\n      div\n      0xff\n      and\n        /* \"BlogContract.sol\":2714:2783  require(accounts[msg.sender].exists, \"Devi prima creare un account.\") */\n      tag_116\n      jumpi\n      mload(0x40)\n      0x08c379a000000000000000000000000000000000000000000000000000000000\n      dup2\n      mstore\n      0x04\n      add\n      tag_117\n      swap1\n      tag_118\n      jump\t// in\n    tag_117:\n      mload(0x40)\n      dup1\n      swap2\n      sub\n      swap1\n      revert\n    tag_116:\n        /* \"BlogContract.sol\":4991:4992  0 */\n      0x00\n        /* \"BlogContract.sol\":4974:4980  _title */\n      dup3\n        /* \"BlogContract.sol\":4968:4988  bytes(_title).length */\n      mload\n        /* \"BlogContract.sol\":4968:4992  bytes(_title).length > 0 */\n      gt\n        /* \"BlogContract.sol\":4960:5031  require(bytes(_title).length > 0,   \"Il titolo non puo' essere vuoto.\") */\n      tag_120\n      jumpi\n      mload(0x40)\n      0x08c379a000000000000000000000000000000000000000000000000000000000\n      dup2\n      mstore\n      0x04\n      add\n      tag_121\n      swap1\n      tag_122\n      jump\t// in\n    tag_121:\n      mload(0x40)\n      dup1\n      swap2\n      sub\n      swap1\n      revert\n    tag_120:\n        /* \"BlogContract.sol\":5074:5075  0 */\n      0x00\n        /* \"BlogContract.sol\":5055:5063  _content */\n      dup2\n        /* \"BlogContract.sol\":5049:5071  bytes(_content).length */\n      mload\n        /* \"BlogContract.sol\":5049:5075  bytes(_content).length > 0 */\n      gt\n        /* \"BlogContract.sol\":5041:5115  require(bytes(_content).length > 0, \"Il contenuto non puo' essere vuoto.\") */\n      tag_123\n      jumpi\n      mload(0x40)\n      0x08c379a000000000000000000000000000000000000000000000000000000000\n      dup2\n      mstore\n      0x04\n      add\n      tag_124\n      swap1\n      tag_125\n      jump\t// in\n    tag_124:\n      mload(0x40)\n      dup1\n      swap2\n      sub\n      swap1\n      revert\n    tag_123:\n        /* \"BlogContract.sol\":5126:5135  postCount */\n      0x05\n      0x00\n        /* \"BlogContract.sol\":5126:5137  postCount++ */\n      dup2\n      sload\n      dup1\n      swap3\n      swap2\n      swap1\n      tag_126\n      swap1\n      tag_100\n      jump\t// in\n    tag_126:\n      swap2\n      swap1\n      pop\n      sstore\n      pop\n        /* \"BlogContract.sol\":5147:5157  uint newId */\n      0x00\n        /* \"BlogContract.sol\":5160:5169  postCount */\n      sload(0x05)\n        /* \"BlogContract.sol\":5147:5169  uint newId = postCount */\n      swap1\n      pop\n        /* \"BlogContract.sol\":5195:5435  Post({... */\n      mload(0x40)\n      dup1\n      0xe0\n      add\n      0x40\n      mstore\n      dup1\n        /* \"BlogContract.sol\":5225:5230  newId */\n      dup3\n        /* \"BlogContract.sol\":5195:5435  Post({... */\n      dup2\n      mstore\n      0x20\n      add\n        /* \"BlogContract.sol\":5255:5265  msg.sender */\n      caller\n        /* \"BlogContract.sol\":5195:5435  Post({... */\n      0xffffffffffffffffffffffffffffffffffffffff\n      and\n      dup2\n      mstore\n      0x20\n      add\n        /* \"BlogContract.sol\":5290:5296  _title */\n      dup5\n        /* \"BlogContract.sol\":5195:5435  Post({... */\n      dup2\n      mstore\n      0x20\n      add\n        /* \"BlogContract.sol\":5321:5329  _content */\n      dup4\n        /* \"BlogContract.sol\":5195:5435  Post({... */\n      dup2\n      mstore\n      0x20\n      add\n        /* \"BlogContract.sol\":5354:5355  0 */\n      0x00\n        /* \"BlogContract.sol\":5195:5435  Post({... */\n      dup2\n      mstore\n      0x20\n      add\n        /* \"BlogContract.sol\":5380:5395  block.timestamp */\n      timestamp\n        /* \"BlogContract.sol\":5195:5435  Post({... */\n      dup2\n      mstore\n      0x20\n      add\n        /* \"BlogContract.sol\":5420:5424  true */\n      0x01\n        /* \"BlogContract.sol\":5195:5435  Post({... */\n      iszero\n      iszero\n      dup2\n      mstore\n      pop\n        /* \"BlogContract.sol\":5180:5185  posts */\n      0x01\n        /* \"BlogContract.sol\":5180:5192  posts[newId] */\n      0x00\n        /* \"BlogContract.sol\":5186:5191  newId */\n      dup4\n        /* \"BlogContract.sol\":5180:5192  posts[newId] */\n      dup2\n      mstore\n      0x20\n      add\n      swap1\n      dup2\n      mstore\n      0x20\n      add\n      0x00\n      keccak256\n        /* \"BlogContract.sol\":5180:5435  posts[newId] = Post({... */\n      0x00\n      dup3\n      add\n      mload\n      dup2\n      0x00\n      add\n      sstore\n      0x20\n      dup3\n      add\n      mload\n      dup2\n      0x01\n      add\n      exp(0x0100, 0x00)\n      dup2\n      sload\n      dup2\n      0xffffffffffffffffffffffffffffffffffffffff\n      mul\n      not\n      and\n      swap1\n      dup4\n      0xffffffffffffffffffffffffffffffffffffffff\n      and\n      mul\n      or\n      swap1\n      sstore\n      pop\n      0x40\n      dup3\n      add\n      mload\n      dup2\n      0x02\n      add\n      swap1\n      dup2\n      tag_127\n      swap2\n      swap1\n      tag_77\n      jump\t// in\n    tag_127:\n      pop\n      0x60\n      dup3\n      add\n      mload\n      dup2\n      0x03\n      add\n      swap1\n      dup2\n      tag_128\n      swap2\n      swap1\n      tag_77\n      jump\t// in\n    tag_128:\n      pop\n      0x80\n      dup3\n      add\n      mload\n      dup2\n      0x04\n      add\n      sstore\n      0xa0\n      dup3\n      add\n      mload\n      dup2\n      0x05\n      add\n      sstore\n      0xc0\n      dup3\n      add\n      mload\n      dup2\n      0x06\n      add\n      exp(0x0100, 0x00)\n      dup2\n      sload\n      dup2\n      0xff\n      mul\n      not\n      and\n      swap1\n      dup4\n      iszero\n      iszero\n      mul\n      or\n      swap1\n      sstore\n      pop\n      swap1\n      pop\n      pop\n        /* \"BlogContract.sol\":5446:5460  postsByAccount */\n      0x03\n        /* \"BlogContract.sol\":5446:5472  postsByAccount[msg.sender] */\n      0x00\n        /* \"BlogContract.sol\":5461:5471  msg.sender */\n      caller\n        /* \"BlogContract.sol\":5446:5472  postsByAccount[msg.sender] */\n      0xffffffffffffffffffffffffffffffffffffffff\n      and\n      0xffffffffffffffffffffffffffffffffffffffff\n      and\n      dup2\n      mstore\n      0x20\n      add\n      swap1\n      dup2\n      mstore\n      0x20\n      add\n      0x00\n      keccak256\n        /* \"BlogContract.sol\":5478:5483  newId */\n      dup2\n        /* \"BlogContract.sol\":5446:5484  postsByAccount[msg.sender].push(newId) */\n      swap1\n      dup1\n      0x01\n      dup2\n      sload\n      add\n      dup1\n      dup3\n      sstore\n      dup1\n      swap2\n      pop\n      pop\n      0x01\n      swap1\n      sub\n      swap1\n      0x00\n      mstore\n      keccak256(0x00, 0x20)\n      add\n      0x00\n      swap1\n      swap2\n      swap1\n      swap2\n      swap1\n      swap2\n      pop\n      sstore\n        /* \"BlogContract.sol\":5519:5529  msg.sender */\n      caller\n        /* \"BlogContract.sol\":5500:5538  PostCreated(newId, msg.sender, _title) */\n      0xffffffffffffffffffffffffffffffffffffffff\n      and\n        /* \"BlogContract.sol\":5512:5517  newId */\n      dup2\n        /* \"BlogContract.sol\":5500:5538  PostCreated(newId, msg.sender, _title) */\n      0x8e40a51278abe2f4b410c0a96ff0bdd024b22666ca334062bf72afd596984bd6\n        /* \"BlogContract.sol\":5531:5537  _title */\n      dup6\n        /* \"BlogContract.sol\":5500:5538  PostCreated(newId, msg.sender, _title) */\n      mload(0x40)\n      tag_130\n      swap2\n      swap1\n      tag_80\n      jump\t// in\n    tag_130:\n      mload(0x40)\n      dup1\n      swap2\n      sub\n      swap1\n      log3\n        /* \"BlogContract.sol\":4950:5545  {... */\n      pop\n        /* \"BlogContract.sol\":4835:5545  function createPost(string memory _title, string memory _content)... */\n      pop\n      pop\n      jump\t// out\n        /* \"BlogContract.sol\":4388:4515  function getPostsByAccount(address _owner) external view returns (uint[] memory) {... */\n    tag_38:\n        /* \"BlogContract.sol\":4454:4467  uint[] memory */\n      0x60\n        /* \"BlogContract.sol\":4486:4500  postsByAccount */\n      0x03\n        /* \"BlogContract.sol\":4486:4508  postsByAccount[_owner] */\n      0x00\n        /* \"BlogContract.sol\":4501:4507  _owner */\n      dup4\n        /* \"BlogContract.sol\":4486:4508  postsByAccount[_owner] */\n      0xffffffffffffffffffffffffffffffffffffffff\n      and\n      0xffffffffffffffffffffffffffffffffffffffff\n      and\n      dup2\n      mstore\n      0x20\n      add\n      swap1\n      dup2\n      mstore\n      0x20\n      add\n      0x00\n      keccak256\n        /* \"BlogContract.sol\":4479:4508  return postsByAccount[_owner] */\n      dup1\n      sload\n      dup1\n      0x20\n      mul\n      0x20\n      add\n      mload(0x40)\n      swap1\n      dup2\n      add\n      0x40\n      mstore\n      dup1\n      swap3\n      swap2\n      swap1\n      dup2\n      dup2\n      mstore\n      0x20\n      add\n      dup3\n      dup1\n      sload\n      dup1\n      iszero\n      tag_132\n      jumpi\n      0x20\n      mul\n      dup3\n      add\n      swap2\n      swap1\n      0x00\n      mstore\n      keccak256(0x00, 0x20)\n      swap1\n    tag_133:\n      dup2\n      sload\n      dup2\n      mstore\n      0x20\n      add\n      swap1\n      0x01\n      add\n      swap1\n      dup1\n      dup4\n      gt\n      tag_133\n      jumpi\n    tag_132:\n      pop\n      pop\n      pop\n      pop\n      pop\n      swap1\n      pop\n        /* \"BlogContract.sol\":4388:4515  function getPostsByAccount(address _owner) external view returns (uint[] memory) {... */\n      swap2\n      swap1\n      pop\n      jump\t// out\n        /* \"BlogContract.sol\":6242:6574  function likePost(uint _postId)... */\n    tag_42:\n        /* \"BlogContract.sol\":2722:2730  accounts */\n      0x00\n        /* \"BlogContract.sol\":2722:2742  accounts[msg.sender] */\n      0x00\n        /* \"BlogContract.sol\":2731:2741  msg.sender */\n      caller\n        /* \"BlogContract.sol\":2722:2742  accounts[msg.sender] */\n      0xffffffffffffffffffffffffffffffffffffffff\n      and\n      0xffffffffffffffffffffffffffffffffffffffff\n      and\n      dup2\n      mstore\n      0x20\n      add\n      swap1\n      dup2\n      mstore\n      0x20\n      add\n      0x00\n      keccak256\n        /* \"BlogContract.sol\":2722:2749  accounts[msg.sender].exists */\n      0x04\n      add\n      0x00\n      swap1\n      sload\n      swap1\n      0x0100\n      exp\n      swap1\n      div\n      0xff\n      and\n        /* \"BlogContract.sol\":2714:2783  require(accounts[msg.sender].exists, \"Devi prima creare un account.\") */\n      tag_135\n      jumpi\n      mload(0x40)\n      0x08c379a000000000000000000000000000000000000000000000000000000000\n      dup2\n      mstore\n      0x04\n      add\n      tag_136\n      swap1\n      tag_118\n      jump\t// in\n    tag_136:\n      mload(0x40)\n      dup1\n      swap2\n      sub\n      swap1\n      revert\n    tag_135:\n        /* \"BlogContract.sol\":6344:6351  _postId */\n      dup1\n        /* \"BlogContract.sol\":2865:2870  posts */\n      0x01\n        /* \"BlogContract.sol\":2865:2879  posts[_postId] */\n      0x00\n        /* \"BlogContract.sol\":2871:2878  _postId */\n      dup3\n        /* \"BlogContract.sol\":2865:2879  posts[_postId] */\n      dup2\n      mstore\n      0x20\n      add\n      swap1\n      dup2\n      mstore\n      0x20\n      add\n      0x00\n      keccak256\n        /* \"BlogContract.sol\":2865:2886  posts[_postId].exists */\n      0x06\n      add\n      0x00\n      swap1\n      sload\n      swap1\n      0x0100\n      exp\n      swap1\n      div\n      0xff\n      and\n        /* \"BlogContract.sol\":2857:2908  require(posts[_postId].exists, \"Post non trovato.\") */\n      tag_138\n      jumpi\n      mload(0x40)\n      0x08c379a000000000000000000000000000000000000000000000000000000000\n      dup2\n      mstore\n      0x04\n      add\n      tag_139\n      swap1\n      tag_63\n      jump\t// in\n    tag_139:\n      mload(0x40)\n      dup1\n      swap2\n      sub\n      swap1\n      revert\n    tag_138:\n        /* \"BlogContract.sol\":6376:6384  hasLiked */\n      0x04\n        /* \"BlogContract.sol\":6376:6393  hasLiked[_postId] */\n      0x00\n        /* \"BlogContract.sol\":6385:6392  _postId */\n      dup4\n        /* \"BlogContract.sol\":6376:6393  hasLiked[_postId] */\n      dup2\n      mstore\n      0x20\n      add\n      swap1\n      dup2\n      mstore\n      0x20\n      add\n      0x00\n      keccak256\n        /* \"BlogContract.sol\":6376:6405  hasLiked[_postId][msg.sender] */\n      0x00\n        /* \"BlogContract.sol\":6394:6404  msg.sender */\n      caller\n        /* \"BlogContract.sol\":6376:6405  hasLiked[_postId][msg.sender] */\n      0xffffffffffffffffffffffffffffffffffffffff\n      and\n      0xffffffffffffffffffffffffffffffffffffffff\n      and\n      dup2\n      mstore\n      0x20\n      add\n      swap1\n      dup2\n      mstore\n      0x20\n      add\n      0x00\n      keccak256\n      0x00\n      swap1\n      sload\n      swap1\n      0x0100\n      exp\n      swap1\n      div\n      0xff\n      and\n        /* \"BlogContract.sol\":6375:6405  !hasLiked[_postId][msg.sender] */\n      iszero\n        /* \"BlogContract.sol\":6367:6444  require(!hasLiked[_postId][msg.sender], \"Hai gia' messo like a questo post.\") */\n      tag_141\n      jumpi\n      mload(0x40)\n      0x08c379a000000000000000000000000000000000000000000000000000000000\n      dup2\n      mstore\n      0x04\n      add\n      tag_142\n      swap1\n      tag_143\n      jump\t// in\n    tag_142:\n      mload(0x40)\n      dup1\n      swap2\n      sub\n      swap1\n      revert\n    tag_141:\n        /* \"BlogContract.sol\":6486:6490  true */\n      0x01\n        /* \"BlogContract.sol\":6454:6462  hasLiked */\n      0x04\n        /* \"BlogContract.sol\":6454:6471  hasLiked[_postId] */\n      0x00\n        /* \"BlogContract.sol\":6463:6470  _postId */\n      dup5\n        /* \"BlogContract.sol\":6454:6471  hasLiked[_postId] */\n      dup2\n      mstore\n      0x20\n      add\n      swap1\n      dup2\n      mstore\n      0x20\n      add\n      0x00\n      keccak256\n        /* \"BlogContract.sol\":6454:6483  hasLiked[_postId][msg.sender] */\n      0x00\n        /* \"BlogContract.sol\":6472:6482  msg.sender */\n      caller\n        /* \"BlogContract.sol\":6454:6483  hasLiked[_postId][msg.sender] */\n      0xffffffffffffffffffffffffffffffffffffffff\n      and\n      0xffffffffffffffffffffffffffffffffffffffff\n      and\n      dup2\n      mstore\n      0x20\n      add\n      swap1\n      dup2\n      mstore\n      0x20\n      add\n      0x00\n      keccak256\n      0x00\n        /* \"BlogContract.sol\":6454:6490  hasLiked[_postId][msg.sender] = true */\n      0x0100\n      exp\n      dup2\n      sload\n      dup2\n      0xff\n      mul\n      not\n      and\n      swap1\n      dup4\n      iszero\n      iszero\n      mul\n      or\n      swap1\n      sstore\n      pop\n        /* \"BlogContract.sol\":6500:6505  posts */\n      0x01\n        /* \"BlogContract.sol\":6500:6514  posts[_postId] */\n      0x00\n        /* \"BlogContract.sol\":6506:6513  _postId */\n      dup4\n        /* \"BlogContract.sol\":6500:6514  posts[_postId] */\n      dup2\n      mstore\n      0x20\n      add\n      swap1\n      dup2\n      mstore\n      0x20\n      add\n      0x00\n      keccak256\n        /* \"BlogContract.sol\":6500:6520  posts[_postId].likes */\n      0x04\n      add\n      0x00\n        /* \"BlogContract.sol\":6500:6522  posts[_postId].likes++ */\n      dup2\n      sload\n      dup1\n      swap3\n      swap2\n      swap1\n      tag_144\n      swap1\n      tag_100\n      jump\t// in\n    tag_144:\n      swap2\n      swap1\n      pop\n      sstore\n      pop\n        /* \"BlogContract.sol\":6556:6566  msg.sender */\n      caller\n        /* \"BlogContract.sol\":6537:6567  PostLiked(_postId, msg.sender) */\n      0xffffffffffffffffffffffffffffffffffffffff\n      and\n        /* \"BlogContract.sol\":6547:6554  _postId */\n      dup3\n        /* \"BlogContract.sol\":6537:6567  PostLiked(_postId, msg.sender) */\n      0xcf765d6f163c9b0d832e2a94f4c8e9bffd32a2c3ca5fdbb8cc67b5fe1441f413\n      mload(0x40)\n      mload(0x40)\n      dup1\n      swap2\n      sub\n      swap1\n      log3\n        /* \"BlogContract.sol\":2793:2794  _ */\n      pop\n        /* \"BlogContract.sol\":6242:6574  function likePost(uint _postId)... */\n      pop\n      jump\t// out\n        /* \"BlogContract.sol\":6622:7065  function getPostDetails(uint _postId)... */\n    tag_45:\n        /* \"BlogContract.sol\":6754:6768  uint    postId */\n      0x00\n        /* \"BlogContract.sol\":6782:6796  address author */\n      0x00\n        /* \"BlogContract.sol\":6810:6830  string  memory title */\n      0x60\n        /* \"BlogContract.sol\":6844:6866  string  memory content */\n      dup1\n        /* \"BlogContract.sol\":6880:6893  uint    likes */\n      0x00\n        /* \"BlogContract.sol\":6907:6924  uint    createdAt */\n      0x00\n        /* \"BlogContract.sol\":6715:6722  _postId */\n      dup7\n        /* \"BlogContract.sol\":2865:2870  posts */\n      0x01\n        /* \"BlogContract.sol\":2865:2879  posts[_postId] */\n      0x00\n        /* \"BlogContract.sol\":2871:2878  _postId */\n      dup3\n        /* \"BlogContract.sol\":2865:2879  posts[_postId] */\n      dup2\n      mstore\n      0x20\n      add\n      swap1\n      dup2\n      mstore\n      0x20\n      add\n      0x00\n      keccak256\n        /* \"BlogContract.sol\":2865:2886  posts[_postId].exists */\n      0x06\n      add\n      0x00\n      swap1\n      sload\n      swap1\n      0x0100\n      exp\n      swap1\n      div\n      0xff\n      and\n        /* \"BlogContract.sol\":2857:2908  require(posts[_postId].exists, \"Post non trovato.\") */\n      tag_146\n      jumpi\n      mload(0x40)\n      0x08c379a000000000000000000000000000000000000000000000000000000000\n      dup2\n      mstore\n      0x04\n      add\n      tag_147\n      swap1\n      tag_63\n      jump\t// in\n    tag_147:\n      mload(0x40)\n      dup1\n      swap2\n      sub\n      swap1\n      revert\n    tag_146:\n        /* \"BlogContract.sol\":6949:6962  Post memory p */\n      0x00\n        /* \"BlogContract.sol\":6965:6970  posts */\n      0x01\n        /* \"BlogContract.sol\":6965:6979  posts[_postId] */\n      0x00\n        /* \"BlogContract.sol\":6971:6978  _postId */\n      dup11\n        /* \"BlogContract.sol\":6965:6979  posts[_postId] */\n      dup2\n      mstore\n      0x20\n      add\n      swap1\n      dup2\n      mstore\n      0x20\n      add\n      0x00\n      keccak256\n        /* \"BlogContract.sol\":6949:6979  Post memory p = posts[_postId] */\n      mload(0x40)\n      dup1\n      0xe0\n      add\n      0x40\n      mstore\n      swap1\n      dup2\n      0x00\n      dup3\n      add\n      sload\n      dup2\n      mstore\n      0x20\n      add\n      0x01\n      dup3\n      add\n      0x00\n      swap1\n      sload\n      swap1\n      0x0100\n      exp\n      swap1\n      div\n      0xffffffffffffffffffffffffffffffffffffffff\n      and\n      0xffffffffffffffffffffffffffffffffffffffff\n      and\n      0xffffffffffffffffffffffffffffffffffffffff\n      and\n      dup2\n      mstore\n      0x20\n      add\n      0x02\n      dup3\n      add\n      dup1\n      sload\n      tag_149\n      swap1\n      tag_89\n      jump\t// in\n    tag_149:\n      dup1\n      0x1f\n      add\n      0x20\n      dup1\n      swap2\n      div\n      mul\n      0x20\n      add\n      mload(0x40)\n      swap1\n      dup2\n      add\n      0x40\n      mstore\n      dup1\n      swap3\n      swap2\n      swap1\n      dup2\n      dup2\n      mstore\n      0x20\n      add\n      dup3\n      dup1\n      sload\n      tag_150\n      swap1\n      tag_89\n      jump\t// in\n    tag_150:\n      dup1\n      iszero\n      tag_151\n      jumpi\n      dup1\n      0x1f\n      lt\n      tag_152\n      jumpi\n      0x0100\n      dup1\n      dup4\n      sload\n      div\n      mul\n      dup4\n      mstore\n      swap2\n      0x20\n      add\n      swap2\n      jump(tag_151)\n    tag_152:\n      dup3\n      add\n      swap2\n      swap1\n      0x00\n      mstore\n      keccak256(0x00, 0x20)\n      swap1\n    tag_153:\n      dup2\n      sload\n      dup2\n      mstore\n      swap1\n      0x01\n      add\n      swap1\n      0x20\n      add\n      dup1\n      dup4\n      gt\n      tag_153\n      jumpi\n      dup3\n      swap1\n      sub\n      0x1f\n      and\n      dup3\n      add\n      swap2\n    tag_151:\n      pop\n      pop\n      pop\n      pop\n      pop\n      dup2\n      mstore\n      0x20\n      add\n      0x03\n      dup3\n      add\n      dup1\n      sload\n      tag_154\n      swap1\n      tag_89\n      jump\t// in\n    tag_154:\n      dup1\n      0x1f\n      add\n      0x20\n      dup1\n      swap2\n      div\n      mul\n      0x20\n      add\n      mload(0x40)\n      swap1\n      dup2\n      add\n      0x40\n      mstore\n      dup1\n      swap3\n      swap2\n      swap1\n      dup2\n      dup2\n      mstore\n      0x20\n      add\n      dup3\n      dup1\n      sload\n      tag_155\n      swap1\n      tag_89\n      jump\t// in\n    tag_155:\n      dup1\n      iszero\n      tag_156\n      jumpi\n      dup1\n      0x1f\n      lt\n      tag_157\n      jumpi\n      0x0100\n      dup1\n      dup4\n      sload\n      div\n      mul\n      dup4\n      mstore\n      swap2\n      0x20\n      add\n      swap2\n      jump(tag_156)\n    tag_157:\n      dup3\n      add\n      swap2\n      swap1\n      0x00\n      mstore\n      keccak256(0x00, 0x20)\n      swap1\n    tag_158:\n      dup2\n      sload\n      dup2\n      mstore\n      swap1\n      0x01\n      add\n      swap1\n      0x20\n      add\n      dup1\n      dup4\n      gt\n      tag_158\n      jumpi\n      dup3\n      swap1\n      sub\n      0x1f\n      and\n      dup3\n      add\n      swap2\n    tag_156:\n      pop\n      pop\n      pop\n      pop\n      pop\n      dup2\n      mstore\n      0x20\n      add\n      0x04\n      dup3\n      add\n      sload\n      dup2\n      mstore\n      0x20\n      add\n      0x05\n      dup3\n      add\n      sload\n      dup2\n      mstore\n      0x20\n      add\n      0x06\n      dup3\n      add\n      0x00\n      swap1\n      sload\n      swap1\n      0x0100\n      exp\n      swap1\n      div\n      0xff\n      and\n      iszero\n      iszero\n      iszero\n      iszero\n      dup2\n      mstore\n      pop\n      pop\n      swap1\n      pop\n        /* \"BlogContract.sol\":6997:6998  p */\n      dup1\n        /* \"BlogContract.sol\":6997:7005  p.postId */\n      0x00\n      add\n      mload\n        /* \"BlogContract.sol\":7007:7008  p */\n      dup2\n        /* \"BlogContract.sol\":7007:7015  p.author */\n      0x20\n      add\n      mload\n        /* \"BlogContract.sol\":7017:7018  p */\n      dup3\n        /* \"BlogContract.sol\":7017:7024  p.title */\n      0x40\n      add\n      mload\n        /* \"BlogContract.sol\":7026:7027  p */\n      dup4\n        /* \"BlogContract.sol\":7026:7035  p.content */\n      0x60\n      add\n      mload\n        /* \"BlogContract.sol\":7037:7038  p */\n      dup5\n        /* \"BlogContract.sol\":7037:7044  p.likes */\n      0x80\n      add\n      mload\n        /* \"BlogContract.sol\":7046:7047  p */\n      dup6\n        /* \"BlogContract.sol\":7046:7057  p.createdAt */\n      0xa0\n      add\n      mload\n        /* \"BlogContract.sol\":6989:7058  return (p.postId, p.author, p.title, p.content, p.likes, p.createdAt) */\n      swap8\n      pop\n      swap8\n      pop\n      swap8\n      pop\n      swap8\n      pop\n      swap8\n      pop\n      swap8\n      pop\n      pop\n        /* \"BlogContract.sol\":6622:7065  function getPostDetails(uint _postId)... */\n      pop\n      swap2\n      swap4\n      swap6\n      pop\n      swap2\n      swap4\n      swap6\n      jump\t// out\n        /* \"BlogContract.sol\":7965:8516  function addComment(uint _postId, string memory _text)... */\n    tag_51:\n        /* \"BlogContract.sol\":2722:2730  accounts */\n      0x00\n        /* \"BlogContract.sol\":2722:2742  accounts[msg.sender] */\n      0x00\n        /* \"BlogContract.sol\":2731:2741  msg.sender */\n      caller\n        /* \"BlogContract.sol\":2722:2742  accounts[msg.sender] */\n      0xffffffffffffffffffffffffffffffffffffffff\n      and\n      0xffffffffffffffffffffffffffffffffffffffff\n      and\n      dup2\n      mstore\n      0x20\n      add\n      swap1\n      dup2\n      mstore\n      0x20\n      add\n      0x00\n      keccak256\n        /* \"BlogContract.sol\":2722:2749  accounts[msg.sender].exists */\n      0x04\n      add\n      0x00\n      swap1\n      sload\n      swap1\n      0x0100\n      exp\n      swap1\n      div\n      0xff\n      and\n        /* \"BlogContract.sol\":2714:2783  require(accounts[msg.sender].exists, \"Devi prima creare un account.\") */\n      tag_160\n      jumpi\n      mload(0x40)\n      0x08c379a000000000000000000000000000000000000000000000000000000000\n      dup2\n      mstore\n      0x04\n      add\n      tag_161\n      swap1\n      tag_118\n      jump\t// in\n    tag_161:\n      mload(0x40)\n      dup1\n      swap2\n      sub\n      swap1\n      revert\n    tag_160:\n        /* \"BlogContract.sol\":8090:8097  _postId */\n      dup2\n        /* \"BlogContract.sol\":2865:2870  posts */\n      0x01\n        /* \"BlogContract.sol\":2865:2879  posts[_postId] */\n      0x00\n        /* \"BlogContract.sol\":2871:2878  _postId */\n      dup3\n        /* \"BlogContract.sol\":2865:2879  posts[_postId] */\n      dup2\n      mstore\n      0x20\n      add\n      swap1\n      dup2\n      mstore\n      0x20\n      add\n      0x00\n      keccak256\n        /* \"BlogContract.sol\":2865:2886  posts[_postId].exists */\n      0x06\n      add\n      0x00\n      swap1\n      sload\n      swap1\n      0x0100\n      exp\n      swap1\n      div\n      0xff\n      and\n        /* \"BlogContract.sol\":2857:2908  require(posts[_postId].exists, \"Post non trovato.\") */\n      tag_163\n      jumpi\n      mload(0x40)\n      0x08c379a000000000000000000000000000000000000000000000000000000000\n      dup2\n      mstore\n      0x04\n      add\n      tag_164\n      swap1\n      tag_63\n      jump\t// in\n    tag_164:\n      mload(0x40)\n      dup1\n      swap2\n      sub\n      swap1\n      revert\n    tag_163:\n        /* \"BlogContract.sol\":8143:8144  0 */\n      0x00\n        /* \"BlogContract.sol\":8127:8132  _text */\n      dup3\n        /* \"BlogContract.sol\":8121:8140  bytes(_text).length */\n      mload\n        /* \"BlogContract.sol\":8121:8144  bytes(_text).length > 0 */\n      gt\n        /* \"BlogContract.sol\":8113:8183  require(bytes(_text).length > 0, \"Il commento non puo' essere vuoto.\") */\n      tag_166\n      jumpi\n      mload(0x40)\n      0x08c379a000000000000000000000000000000000000000000000000000000000\n      dup2\n      mstore\n      0x04\n      add\n      tag_167\n      swap1\n      tag_168\n      jump\t// in\n    tag_167:\n      mload(0x40)\n      dup1\n      swap2\n      sub\n      swap1\n      revert\n    tag_166:\n        /* \"BlogContract.sol\":8194:8208  uint commentId */\n      0x00\n        /* \"BlogContract.sol\":8211:8219  comments */\n      0x02\n        /* \"BlogContract.sol\":8211:8228  comments[_postId] */\n      0x00\n        /* \"BlogContract.sol\":8220:8227  _postId */\n      dup6\n        /* \"BlogContract.sol\":8211:8228  comments[_postId] */\n      dup2\n      mstore\n      0x20\n      add\n      swap1\n      dup2\n      mstore\n      0x20\n      add\n      0x00\n      keccak256\n        /* \"BlogContract.sol\":8211:8235  comments[_postId].length */\n      dup1\n      sload\n      swap1\n      pop\n        /* \"BlogContract.sol\":8194:8235  uint commentId = comments[_postId].length */\n      swap1\n      pop\n        /* \"BlogContract.sol\":8246:8254  comments */\n      0x02\n        /* \"BlogContract.sol\":8246:8263  comments[_postId] */\n      0x00\n        /* \"BlogContract.sol\":8255:8262  _postId */\n      dup6\n        /* \"BlogContract.sol\":8246:8263  comments[_postId] */\n      dup2\n      mstore\n      0x20\n      add\n      swap1\n      dup2\n      mstore\n      0x20\n      add\n      0x00\n      keccak256\n        /* \"BlogContract.sol\":8269:8459  Comment({... */\n      mload(0x40)\n      dup1\n      0xa0\n      add\n      0x40\n      mstore\n      dup1\n        /* \"BlogContract.sol\":8302:8311  commentId */\n      dup4\n        /* \"BlogContract.sol\":8269:8459  Comment({... */\n      dup2\n      mstore\n      0x20\n      add\n        /* \"BlogContract.sol\":8336:8346  msg.sender */\n      caller\n        /* \"BlogContract.sol\":8269:8459  Comment({... */\n      0xffffffffffffffffffffffffffffffffffffffff\n      and\n      dup2\n      mstore\n      0x20\n      add\n        /* \"BlogContract.sol\":8371:8376  _text */\n      dup6\n        /* \"BlogContract.sol\":8269:8459  Comment({... */\n      dup2\n      mstore\n      0x20\n      add\n        /* \"BlogContract.sol\":8401:8408  _postId */\n      dup7\n        /* \"BlogContract.sol\":8269:8459  Comment({... */\n      dup2\n      mstore\n      0x20\n      add\n        /* \"BlogContract.sol\":8433:8448  block.timestamp */\n      timestamp\n        /* \"BlogContract.sol\":8269:8459  Comment({... */\n      dup2\n      mstore\n      pop\n        /* \"BlogContract.sol\":8246:8460  comments[_postId].push(Comment({... */\n      swap1\n      dup1\n      0x01\n      dup2\n      sload\n      add\n      dup1\n      dup3\n      sstore\n      dup1\n      swap2\n      pop\n      pop\n      0x01\n      swap1\n      sub\n      swap1\n      0x00\n      mstore\n      keccak256(0x00, 0x20)\n      swap1\n      0x05\n      mul\n      add\n      0x00\n      swap1\n      swap2\n      swap1\n      swap2\n      swap1\n      swap2\n      pop\n      0x00\n      dup3\n      add\n      mload\n      dup2\n      0x00\n      add\n      sstore\n      0x20\n      dup3\n      add\n      mload\n      dup2\n      0x01\n      add\n      exp(0x0100, 0x00)\n      dup2\n      sload\n      dup2\n      0xffffffffffffffffffffffffffffffffffffffff\n      mul\n      not\n      and\n      swap1\n      dup4\n      0xffffffffffffffffffffffffffffffffffffffff\n      and\n      mul\n      or\n      swap1\n      sstore\n      pop\n      0x40\n      dup3\n      add\n      mload\n      dup2\n      0x02\n      add\n      swap1\n      dup2\n      tag_170\n      swap2\n      swap1\n      tag_77\n      jump\t// in\n    tag_170:\n      pop\n      0x60\n      dup3\n      add\n      mload\n      dup2\n      0x03\n      add\n      sstore\n      0x80\n      dup3\n      add\n      mload\n      dup2\n      0x04\n      add\n      sstore\n      pop\n      pop\n        /* \"BlogContract.sol\":8498:8508  msg.sender */\n      caller\n        /* \"BlogContract.sol\":8476:8509  CommentAdded(_postId, msg.sender) */\n      0xffffffffffffffffffffffffffffffffffffffff\n      and\n        /* \"BlogContract.sol\":8489:8496  _postId */\n      dup5\n        /* \"BlogContract.sol\":8476:8509  CommentAdded(_postId, msg.sender) */\n      0x1ae003d984a091dd98a7026587cd616a3d83f6a3059c28db1b36c6ea79a730f5\n      mload(0x40)\n      mload(0x40)\n      dup1\n      swap2\n      sub\n      swap1\n      log3\n        /* \"BlogContract.sol\":8103:8516  {... */\n      pop\n        /* \"BlogContract.sol\":2793:2794  _ */\n      pop\n        /* \"BlogContract.sol\":7965:8516  function addComment(uint _postId, string memory _text)... */\n      pop\n      pop\n      jump\t// out\n        /* \"BlogContract.sol\":5608:5928  function editPost(uint _postId, string memory _newContent)... */\n    tag_54:\n        /* \"BlogContract.sol\":5709:5716  _postId */\n      dup2\n        /* \"BlogContract.sol\":2865:2870  posts */\n      0x01\n        /* \"BlogContract.sol\":2865:2879  posts[_postId] */\n      0x00\n        /* \"BlogContract.sol\":2871:2878  _postId */\n      dup3\n        /* \"BlogContract.sol\":2865:2879  posts[_postId] */\n      dup2\n      mstore\n      0x20\n      add\n      swap1\n      dup2\n      mstore\n      0x20\n      add\n      0x00\n      keccak256\n        /* \"BlogContract.sol\":2865:2886  posts[_postId].exists */\n      0x06\n      add\n      0x00\n      swap1\n      sload\n      swap1\n      0x0100\n      exp\n      swap1\n      div\n      0xff\n      and\n        /* \"BlogContract.sol\":2857:2908  require(posts[_postId].exists, \"Post non trovato.\") */\n      tag_172\n      jumpi\n      mload(0x40)\n      0x08c379a000000000000000000000000000000000000000000000000000000000\n      dup2\n      mstore\n      0x04\n      add\n      tag_173\n      swap1\n      tag_63\n      jump\t// in\n    tag_173:\n      mload(0x40)\n      dup1\n      swap2\n      sub\n      swap1\n      revert\n    tag_172:\n        /* \"BlogContract.sol\":5741:5748  _postId */\n      dup3\n        /* \"BlogContract.sol\":3013:3023  msg.sender */\n      caller\n        /* \"BlogContract.sol\":2988:3023  posts[_postId].author == msg.sender */\n      0xffffffffffffffffffffffffffffffffffffffff\n      and\n        /* \"BlogContract.sol\":2988:2993  posts */\n      0x01\n        /* \"BlogContract.sol\":2988:3002  posts[_postId] */\n      0x00\n        /* \"BlogContract.sol\":2994:3001  _postId */\n      dup4\n        /* \"BlogContract.sol\":2988:3002  posts[_postId] */\n      dup2\n      mstore\n      0x20\n      add\n      swap1\n      dup2\n      mstore\n      0x20\n      add\n      0x00\n      keccak256\n        /* \"BlogContract.sol\":2988:3009  posts[_postId].author */\n      0x01\n      add\n      0x00\n      swap1\n      sload\n      swap1\n      0x0100\n      exp\n      swap1\n      div\n      0xffffffffffffffffffffffffffffffffffffffff\n      and\n        /* \"BlogContract.sol\":2988:3023  posts[_postId].author == msg.sender */\n      0xffffffffffffffffffffffffffffffffffffffff\n      and\n      eq\n        /* \"BlogContract.sol\":2980:3060  require(posts[_postId].author == msg.sender, \"Non sei l'autore di questo post.\") */\n      tag_175\n      jumpi\n      mload(0x40)\n      0x08c379a000000000000000000000000000000000000000000000000000000000\n      dup2\n      mstore\n      0x04\n      add\n      tag_176\n      swap1\n      tag_67\n      jump\t// in\n    tag_176:\n      mload(0x40)\n      dup1\n      swap2\n      sub\n      swap1\n      revert\n    tag_175:\n        /* \"BlogContract.sol\":5800:5801  0 */\n      0x00\n        /* \"BlogContract.sol\":5778:5789  _newContent */\n      dup4\n        /* \"BlogContract.sol\":5772:5797  bytes(_newContent).length */\n      mload\n        /* \"BlogContract.sol\":5772:5801  bytes(_newContent).length > 0 */\n      gt\n        /* \"BlogContract.sol\":5764:5841  require(bytes(_newContent).length > 0, \"Il contenuto non puo' essere vuoto.\") */\n      tag_178\n      jumpi\n      mload(0x40)\n      0x08c379a000000000000000000000000000000000000000000000000000000000\n      dup2\n      mstore\n      0x04\n      add\n      tag_179\n      swap1\n      tag_125\n      jump\t// in\n    tag_179:\n      mload(0x40)\n      dup1\n      swap2\n      sub\n      swap1\n      revert\n    tag_178:\n        /* \"BlogContract.sol\":5876:5887  _newContent */\n      dup3\n        /* \"BlogContract.sol\":5851:5856  posts */\n      0x01\n        /* \"BlogContract.sol\":5851:5865  posts[_postId] */\n      0x00\n        /* \"BlogContract.sol\":5857:5864  _postId */\n      dup7\n        /* \"BlogContract.sol\":5851:5865  posts[_postId] */\n      dup2\n      mstore\n      0x20\n      add\n      swap1\n      dup2\n      mstore\n      0x20\n      add\n      0x00\n      keccak256\n        /* \"BlogContract.sol\":5851:5873  posts[_postId].content */\n      0x03\n      add\n        /* \"BlogContract.sol\":5851:5887  posts[_postId].content = _newContent */\n      swap1\n      dup2\n      tag_180\n      swap2\n      swap1\n      tag_77\n      jump\t// in\n    tag_180:\n      pop\n        /* \"BlogContract.sol\":5913:5920  _postId */\n      dup4\n        /* \"BlogContract.sol\":5902:5921  PostEdited(_postId) */\n      0x6b028d8032a54c1f25d3bdf66fbab62942ed25cec9e26dc705778b12d6146b8a\n      mload(0x40)\n      mload(0x40)\n      dup1\n      swap2\n      sub\n      swap1\n      log2\n        /* \"BlogContract.sol\":2918:2919  _ */\n      pop\n        /* \"BlogContract.sol\":5608:5928  function editPost(uint _postId, string memory _newContent)... */\n      pop\n      pop\n      pop\n      jump\t// out\n        /* \"BlogContract.sol\":4000:4321  function getAccount(address _owner)... */\n    tag_57:\n        /* \"BlogContract.sol\":4083:4105  string memory username */\n      0x60\n        /* \"BlogContract.sol\":4107:4124  string memory bio */\n      dup1\n        /* \"BlogContract.sol\":4126:4140  uint createdAt */\n      0x00\n        /* \"BlogContract.sol\":4164:4172  accounts */\n      0x00\n        /* \"BlogContract.sol\":4164:4180  accounts[_owner] */\n      0x00\n        /* \"BlogContract.sol\":4173:4179  _owner */\n      dup6\n        /* \"BlogContract.sol\":4164:4180  accounts[_owner] */\n      0xffffffffffffffffffffffffffffffffffffffff\n      and\n      0xffffffffffffffffffffffffffffffffffffffff\n      and\n      dup2\n      mstore\n      0x20\n      add\n      swap1\n      dup2\n      mstore\n      0x20\n      add\n      0x00\n      keccak256\n        /* \"BlogContract.sol\":4164:4187  accounts[_owner].exists */\n      0x04\n      add\n      0x00\n      swap1\n      sload\n      swap1\n      0x0100\n      exp\n      swap1\n      div\n      0xff\n      and\n        /* \"BlogContract.sol\":4156:4212  require(accounts[_owner].exists, \"Account non trovato.\") */\n      tag_182\n      jumpi\n      mload(0x40)\n      0x08c379a000000000000000000000000000000000000000000000000000000000\n      dup2\n      mstore\n      0x04\n      add\n      tag_183\n      swap1\n      tag_184\n      jump\t// in\n    tag_183:\n      mload(0x40)\n      dup1\n      swap2\n      sub\n      swap1\n      revert\n    tag_182:\n        /* \"BlogContract.sol\":4222:4240  Account memory acc */\n      0x00\n        /* \"BlogContract.sol\":4243:4251  accounts */\n      0x00\n        /* \"BlogContract.sol\":4243:4259  accounts[_owner] */\n      0x00\n        /* \"BlogContract.sol\":4252:4258  _owner */\n      dup7\n        /* \"BlogContract.sol\":4243:4259  accounts[_owner] */\n      0xffffffffffffffffffffffffffffffffffffffff\n      and\n      0xffffffffffffffffffffffffffffffffffffffff\n      and\n      dup2\n      mstore\n      0x20\n      add\n      swap1\n      dup2\n      mstore\n      0x20\n      add\n      0x00\n      keccak256\n        /* \"BlogContract.sol\":4222:4259  Account memory acc = accounts[_owner] */\n      mload(0x40)\n      dup1\n      0xa0\n      add\n      0x40\n      mstore\n      swap1\n      dup2\n      0x00\n      dup3\n      add\n      0x00\n      swap1\n      sload\n      swap1\n      0x0100\n      exp\n      swap1\n      div\n      0xffffffffffffffffffffffffffffffffffffffff\n      and\n      0xffffffffffffffffffffffffffffffffffffffff\n      and\n      0xffffffffffffffffffffffffffffffffffffffff\n      and\n      dup2\n      mstore\n      0x20\n      add\n      0x01\n      dup3\n      add\n      dup1\n      sload\n      tag_185\n      swap1\n      tag_89\n      jump\t// in\n    tag_185:\n      dup1\n      0x1f\n      add\n      0x20\n      dup1\n      swap2\n      div\n      mul\n      0x20\n      add\n      mload(0x40)\n      swap1\n      dup2\n      add\n      0x40\n      mstore\n      dup1\n      swap3\n      swap2\n      swap1\n      dup2\n      dup2\n      mstore\n      0x20\n      add\n      dup3\n      dup1\n      sload\n      tag_186\n      swap1\n      tag_89\n      jump\t// in\n    tag_186:\n      dup1\n      iszero\n      tag_187\n      jumpi\n      dup1\n      0x1f\n      lt\n      tag_188\n      jumpi\n      0x0100\n      dup1\n      dup4\n      sload\n      div\n      mul\n      dup4\n      mstore\n      swap2\n      0x20\n      add\n      swap2\n      jump(tag_187)\n    tag_188:\n      dup3\n      add\n      swap2\n      swap1\n      0x00\n      mstore\n      keccak256(0x00, 0x20)\n      swap1\n    tag_189:\n      dup2\n      sload\n      dup2\n      mstore\n      swap1\n      0x01\n      add\n      swap1\n      0x20\n      add\n      dup1\n      dup4\n      gt\n      tag_189\n      jumpi\n      dup3\n      swap1\n      sub\n      0x1f\n      and\n      dup3\n      add\n      swap2\n    tag_187:\n      pop\n      pop\n      pop\n      pop\n      pop\n      dup2\n      mstore\n      0x20\n      add\n      0x02\n      dup3\n      add\n      dup1\n      sload\n      tag_190\n      swap1\n      tag_89\n      jump\t// in\n    tag_190:\n      dup1\n      0x1f\n      add\n      0x20\n      dup1\n      swap2\n      div\n      mul\n      0x20\n      add\n      mload(0x40)\n      swap1\n      dup2\n      add\n      0x40\n      mstore\n      dup1\n      swap3\n      swap2\n      swap1\n      dup2\n      dup2\n      mstore\n      0x20\n      add\n      dup3\n      dup1\n      sload\n      tag_191\n      swap1\n      tag_89\n      jump\t// in\n    tag_191:\n      dup1\n      iszero\n      tag_192\n      jumpi\n      dup1\n      0x1f\n      lt\n      tag_193\n      jumpi\n      0x0100\n      dup1\n      dup4\n      sload\n      div\n      mul\n      dup4\n      mstore\n      swap2\n      0x20\n      add\n      swap2\n      jump(tag_192)\n    tag_193:\n      dup3\n      add\n      swap2\n      swap1\n      0x00\n      mstore\n      keccak256(0x00, 0x20)\n      swap1\n    tag_194:\n      dup2\n      sload\n      dup2\n      mstore\n      swap1\n      0x01\n      add\n      swap1\n      0x20\n      add\n      dup1\n      dup4\n      gt\n      tag_194\n      jumpi\n      dup3\n      swap1\n      sub\n      0x1f\n      and\n      dup3\n      add\n      swap2\n    tag_192:\n      pop\n      pop\n      pop\n      pop\n      pop\n      dup2\n      mstore\n      0x20\n      add\n      0x03\n      dup3\n      add\n      sload\n      dup2\n      mstore\n      0x20\n      add\n      0x04\n      dup3\n      add\n      0x00\n      swap1\n      sload\n      swap1\n      0x0100\n      exp\n      swap1\n      div\n      0xff\n      and\n      iszero\n      iszero\n      iszero\n      iszero\n      dup2\n      mstore\n      pop\n      pop\n      swap1\n      pop\n        /* \"BlogContract.sol\":4277:4280  acc */\n      dup1\n        /* \"BlogContract.sol\":4277:4289  acc.username */\n      0x20\n      add\n      mload\n        /* \"BlogContract.sol\":4291:4294  acc */\n      dup2\n        /* \"BlogContract.sol\":4291:4298  acc.bio */\n      0x40\n      add\n      mload\n        /* \"BlogContract.sol\":4300:4303  acc */\n      dup3\n        /* \"BlogContract.sol\":4300:4313  acc.createdAt */\n      0x60\n      add\n      mload\n        /* \"BlogContract.sol\":4269:4314  return (acc.username, acc.bio, acc.createdAt) */\n      swap4\n      pop\n      swap4\n      pop\n      swap4\n      pop\n      pop\n        /* \"BlogContract.sol\":4000:4321  function getAccount(address _owner)... */\n      swap2\n      swap4\n      swap1\n      swap3\n      pop\n      jump\t// out\n        /* \"#utility.yul\":7:82   */\n    tag_195:\n        /* \"#utility.yul\":40:46   */\n      0x00\n        /* \"#utility.yul\":73:75   */\n      0x40\n        /* \"#utility.yul\":67:76   */\n      mload\n        /* \"#utility.yul\":57:76   */\n      swap1\n      pop\n        /* \"#utility.yul\":7:82   */\n      swap1\n      jump\t// out\n        /* \"#utility.yul\":88:205   */\n    tag_196:\n        /* \"#utility.yul\":197:198   */\n      0x00\n        /* \"#utility.yul\":194:195   */\n      0x00\n        /* \"#utility.yul\":187:199   */\n      revert\n        /* \"#utility.yul\":211:328   */\n    tag_197:\n        /* \"#utility.yul\":320:321   */\n      0x00\n        /* \"#utility.yul\":317:318   */\n      0x00\n        /* \"#utility.yul\":310:322   */\n      revert\n        /* \"#utility.yul\":334:411   */\n    tag_198:\n        /* \"#utility.yul\":371:378   */\n      0x00\n        /* \"#utility.yul\":400:405   */\n      dup2\n        /* \"#utility.yul\":389:405   */\n      swap1\n      pop\n        /* \"#utility.yul\":334:411   */\n      swap2\n      swap1\n      pop\n      jump\t// out\n        /* \"#utility.yul\":417:539   */\n    tag_199:\n        /* \"#utility.yul\":490:514   */\n      tag_280\n        /* \"#utility.yul\":508:513   */\n      dup2\n        /* \"#utility.yul\":490:514   */\n      tag_198\n      jump\t// in\n    tag_280:\n        /* \"#utility.yul\":483:488   */\n      dup2\n        /* \"#utility.yul\":480:515   */\n      eq\n        /* \"#utility.yul\":470:533   */\n      tag_281\n      jumpi\n        /* \"#utility.yul\":529:530   */\n      0x00\n        /* \"#utility.yul\":526:527   */\n      0x00\n        /* \"#utility.yul\":519:531   */\n      revert\n        /* \"#utility.yul\":470:533   */\n    tag_281:\n        /* \"#utility.yul\":417:539   */\n      pop\n      jump\t// out\n        /* \"#utility.yul\":545:684   */\n    tag_200:\n        /* \"#utility.yul\":591:596   */\n      0x00\n        /* \"#utility.yul\":629:635   */\n      dup2\n        /* \"#utility.yul\":616:636   */\n      calldataload\n        /* \"#utility.yul\":607:636   */\n      swap1\n      pop\n        /* \"#utility.yul\":645:678   */\n      tag_283\n        /* \"#utility.yul\":672:677   */\n      dup2\n        /* \"#utility.yul\":645:678   */\n      tag_199\n      jump\t// in\n    tag_283:\n        /* \"#utility.yul\":545:684   */\n      swap3\n      swap2\n      pop\n      pop\n      jump\t// out\n        /* \"#utility.yul\":690:1019   */\n    tag_17:\n        /* \"#utility.yul\":749:755   */\n      0x00\n        /* \"#utility.yul\":798:800   */\n      0x20\n        /* \"#utility.yul\":786:795   */\n      dup3\n        /* \"#utility.yul\":777:784   */\n      dup5\n        /* \"#utility.yul\":773:796   */\n      sub\n        /* \"#utility.yul\":769:801   */\n      slt\n        /* \"#utility.yul\":766:885   */\n      iszero\n      tag_285\n      jumpi\n        /* \"#utility.yul\":804:883   */\n      tag_286\n      tag_196\n      jump\t// in\n    tag_286:\n        /* \"#utility.yul\":766:885   */\n    tag_285:\n        /* \"#utility.yul\":924:925   */\n      0x00\n        /* \"#utility.yul\":949:1002   */\n      tag_287\n        /* \"#utility.yul\":994:1001   */\n      dup5\n        /* \"#utility.yul\":985:991   */\n      dup3\n        /* \"#utility.yul\":974:983   */\n      dup6\n        /* \"#utility.yul\":970:992   */\n      add\n        /* \"#utility.yul\":949:1002   */\n      tag_200\n      jump\t// in\n    tag_287:\n        /* \"#utility.yul\":939:1002   */\n      swap2\n      pop\n        /* \"#utility.yul\":895:1012   */\n      pop\n        /* \"#utility.yul\":690:1019   */\n      swap3\n      swap2\n      pop\n      pop\n      jump\t// out\n        /* \"#utility.yul\":1025:1142   */\n    tag_201:\n        /* \"#utility.yul\":1134:1135   */\n      0x00\n        /* \"#utility.yul\":1131:1132   */\n      0x00\n        /* \"#utility.yul\":1124:1136   */\n      revert\n        /* \"#utility.yul\":1148:1265   */\n    tag_202:\n        /* \"#utility.yul\":1257:1258   */\n      0x00\n        /* \"#utility.yul\":1254:1255   */\n      0x00\n        /* \"#utility.yul\":1247:1259   */\n      revert\n        /* \"#utility.yul\":1271:1373   */\n    tag_203:\n        /* \"#utility.yul\":1312:1318   */\n      0x00\n        /* \"#utility.yul\":1363:1365   */\n      0x1f\n        /* \"#utility.yul\":1359:1366   */\n      not\n        /* \"#utility.yul\":1354:1356   */\n      0x1f\n        /* \"#utility.yul\":1347:1352   */\n      dup4\n        /* \"#utility.yul\":1343:1357   */\n      add\n        /* \"#utility.yul\":1339:1367   */\n      and\n        /* \"#utility.yul\":1329:1367   */\n      swap1\n      pop\n        /* \"#utility.yul\":1271:1373   */\n      swap2\n      swap1\n      pop\n      jump\t// out\n        /* \"#utility.yul\":1379:1559   */\n    tag_104:\n        /* \"#utility.yul\":1427:1504   */\n      0x4e487b7100000000000000000000000000000000000000000000000000000000\n        /* \"#utility.yul\":1424:1425   */\n      0x00\n        /* \"#utility.yul\":1417:1505   */\n      mstore\n        /* \"#utility.yul\":1524:1528   */\n      0x41\n        /* \"#utility.yul\":1521:1522   */\n      0x04\n        /* \"#utility.yul\":1514:1529   */\n      mstore\n        /* \"#utility.yul\":1548:1552   */\n      0x24\n        /* \"#utility.yul\":1545:1546   */\n      0x00\n        /* \"#utility.yul\":1538:1553   */\n      revert\n        /* \"#utility.yul\":1565:1846   */\n    tag_204:\n        /* \"#utility.yul\":1648:1675   */\n      tag_293\n        /* \"#utility.yul\":1670:1674   */\n      dup3\n        /* \"#utility.yul\":1648:1675   */\n      tag_203\n      jump\t// in\n    tag_293:\n        /* \"#utility.yul\":1640:1646   */\n      dup2\n        /* \"#utility.yul\":1636:1676   */\n      add\n        /* \"#utility.yul\":1778:1784   */\n      dup2\n        /* \"#utility.yul\":1766:1776   */\n      dup2\n        /* \"#utility.yul\":1763:1785   */\n      lt\n        /* \"#utility.yul\":1742:1760   */\n      0xffffffffffffffff\n        /* \"#utility.yul\":1730:1740   */\n      dup3\n        /* \"#utility.yul\":1727:1761   */\n      gt\n        /* \"#utility.yul\":1724:1786   */\n      or\n        /* \"#utility.yul\":1721:1809   */\n      iszero\n      tag_294\n      jumpi\n        /* \"#utility.yul\":1789:1807   */\n      tag_295\n      tag_104\n      jump\t// in\n    tag_295:\n        /* \"#utility.yul\":1721:1809   */\n    tag_294:\n        /* \"#utility.yul\":1829:1839   */\n      dup1\n        /* \"#utility.yul\":1825:1827   */\n      0x40\n        /* \"#utility.yul\":1818:1840   */\n      mstore\n        /* \"#utility.yul\":1608:1846   */\n      pop\n        /* \"#utility.yul\":1565:1846   */\n      pop\n      pop\n      jump\t// out\n        /* \"#utility.yul\":1852:1981   */\n    tag_205:\n        /* \"#utility.yul\":1886:1892   */\n      0x00\n        /* \"#utility.yul\":1913:1933   */\n      tag_297\n      tag_195\n      jump\t// in\n    tag_297:\n        /* \"#utility.yul\":1903:1933   */\n      swap1\n      pop\n        /* \"#utility.yul\":1942:1975   */\n      tag_298\n        /* \"#utility.yul\":1970:1974   */\n      dup3\n        /* \"#utility.yul\":1962:1968   */\n      dup3\n        /* \"#utility.yul\":1942:1975   */\n      tag_204\n      jump\t// in\n    tag_298:\n        /* \"#utility.yul\":1852:1981   */\n      swap2\n      swap1\n      pop\n      jump\t// out\n        /* \"#utility.yul\":1987:2295   */\n    tag_206:\n        /* \"#utility.yul\":2049:2053   */\n      0x00\n        /* \"#utility.yul\":2139:2157   */\n      0xffffffffffffffff\n        /* \"#utility.yul\":2131:2137   */\n      dup3\n        /* \"#utility.yul\":2128:2158   */\n      gt\n        /* \"#utility.yul\":2125:2181   */\n      iszero\n      tag_300\n      jumpi\n        /* \"#utility.yul\":2161:2179   */\n      tag_301\n      tag_104\n      jump\t// in\n    tag_301:\n        /* \"#utility.yul\":2125:2181   */\n    tag_300:\n        /* \"#utility.yul\":2199:2228   */\n      tag_302\n        /* \"#utility.yul\":2221:2227   */\n      dup3\n        /* \"#utility.yul\":2199:2228   */\n      tag_203\n      jump\t// in\n    tag_302:\n        /* \"#utility.yul\":2191:2228   */\n      swap1\n      pop\n        /* \"#utility.yul\":2283:2287   */\n      0x20\n        /* \"#utility.yul\":2277:2281   */\n      dup2\n        /* \"#utility.yul\":2273:2288   */\n      add\n        /* \"#utility.yul\":2265:2288   */\n      swap1\n      pop\n        /* \"#utility.yul\":1987:2295   */\n      swap2\n      swap1\n      pop\n      jump\t// out\n        /* \"#utility.yul\":2301:2449   */\n    tag_207:\n        /* \"#utility.yul\":2399:2405   */\n      dup3\n        /* \"#utility.yul\":2394:2397   */\n      dup2\n        /* \"#utility.yul\":2389:2392   */\n      dup4\n        /* \"#utility.yul\":2376:2406   */\n      calldatacopy\n        /* \"#utility.yul\":2440:2441   */\n      0x00\n        /* \"#utility.yul\":2431:2437   */\n      dup4\n        /* \"#utility.yul\":2426:2429   */\n      dup4\n        /* \"#utility.yul\":2422:2438   */\n      add\n        /* \"#utility.yul\":2415:2442   */\n      mstore\n        /* \"#utility.yul\":2301:2449   */\n      pop\n      pop\n      pop\n      jump\t// out\n        /* \"#utility.yul\":2455:2880   */\n    tag_208:\n        /* \"#utility.yul\":2533:2538   */\n      0x00\n        /* \"#utility.yul\":2558:2624   */\n      tag_305\n        /* \"#utility.yul\":2574:2623   */\n      tag_306\n        /* \"#utility.yul\":2616:2622   */\n      dup5\n        /* \"#utility.yul\":2574:2623   */\n      tag_206\n      jump\t// in\n    tag_306:\n        /* \"#utility.yul\":2558:2624   */\n      tag_205\n      jump\t// in\n    tag_305:\n        /* \"#utility.yul\":2549:2624   */\n      swap1\n      pop\n        /* \"#utility.yul\":2647:2653   */\n      dup3\n        /* \"#utility.yul\":2640:2645   */\n      dup2\n        /* \"#utility.yul\":2633:2654   */\n      mstore\n        /* \"#utility.yul\":2685:2689   */\n      0x20\n        /* \"#utility.yul\":2678:2683   */\n      dup2\n        /* \"#utility.yul\":2674:2690   */\n      add\n        /* \"#utility.yul\":2723:2726   */\n      dup5\n        /* \"#utility.yul\":2714:2720   */\n      dup5\n        /* \"#utility.yul\":2709:2712   */\n      dup5\n        /* \"#utility.yul\":2705:2721   */\n      add\n        /* \"#utility.yul\":2702:2727   */\n      gt\n        /* \"#utility.yul\":2699:2811   */\n      iszero\n      tag_307\n      jumpi\n        /* \"#utility.yul\":2730:2809   */\n      tag_308\n      tag_202\n      jump\t// in\n    tag_308:\n        /* \"#utility.yul\":2699:2811   */\n    tag_307:\n        /* \"#utility.yul\":2820:2874   */\n      tag_309\n        /* \"#utility.yul\":2867:2873   */\n      dup5\n        /* \"#utility.yul\":2862:2865   */\n      dup3\n        /* \"#utility.yul\":2857:2860   */\n      dup6\n        /* \"#utility.yul\":2820:2874   */\n      tag_207\n      jump\t// in\n    tag_309:\n        /* \"#utility.yul\":2539:2880   */\n      pop\n        /* \"#utility.yul\":2455:2880   */\n      swap4\n      swap3\n      pop\n      pop\n      pop\n      jump\t// out\n        /* \"#utility.yul\":2900:3240   */\n    tag_209:\n        /* \"#utility.yul\":2956:2961   */\n      0x00\n        /* \"#utility.yul\":3005:3008   */\n      dup3\n        /* \"#utility.yul\":2998:3002   */\n      0x1f\n        /* \"#utility.yul\":2990:2996   */\n      dup4\n        /* \"#utility.yul\":2986:3003   */\n      add\n        /* \"#utility.yul\":2982:3009   */\n      slt\n        /* \"#utility.yul\":2972:3094   */\n      tag_311\n      jumpi\n        /* \"#utility.yul\":3013:3092   */\n      tag_312\n      tag_201\n      jump\t// in\n    tag_312:\n        /* \"#utility.yul\":2972:3094   */\n    tag_311:\n        /* \"#utility.yul\":3130:3136   */\n      dup2\n        /* \"#utility.yul\":3117:3137   */\n      calldataload\n        /* \"#utility.yul\":3155:3234   */\n      tag_313\n        /* \"#utility.yul\":3230:3233   */\n      dup5\n        /* \"#utility.yul\":3222:3228   */\n      dup3\n        /* \"#utility.yul\":3215:3219   */\n      0x20\n        /* \"#utility.yul\":3207:3213   */\n      dup7\n        /* \"#utility.yul\":3203:3220   */\n      add\n        /* \"#utility.yul\":3155:3234   */\n      tag_208\n      jump\t// in\n    tag_313:\n        /* \"#utility.yul\":3146:3234   */\n      swap2\n      pop\n        /* \"#utility.yul\":2962:3240   */\n      pop\n        /* \"#utility.yul\":2900:3240   */\n      swap3\n      swap2\n      pop\n      pop\n      jump\t// out\n        /* \"#utility.yul\":3246:4080   */\n    tag_21:\n        /* \"#utility.yul\":3334:3340   */\n      0x00\n        /* \"#utility.yul\":3342:3348   */\n      0x00\n        /* \"#utility.yul\":3391:3393   */\n      0x40\n        /* \"#utility.yul\":3379:3388   */\n      dup4\n        /* \"#utility.yul\":3370:3377   */\n      dup6\n        /* \"#utility.yul\":3366:3389   */\n      sub\n        /* \"#utility.yul\":3362:3394   */\n      slt\n        /* \"#utility.yul\":3359:3478   */\n      iszero\n      tag_315\n      jumpi\n        /* \"#utility.yul\":3397:3476   */\n      tag_316\n      tag_196\n      jump\t// in\n    tag_316:\n        /* \"#utility.yul\":3359:3478   */\n    tag_315:\n        /* \"#utility.yul\":3545:3546   */\n      0x00\n        /* \"#utility.yul\":3534:3543   */\n      dup4\n        /* \"#utility.yul\":3530:3547   */\n      add\n        /* \"#utility.yul\":3517:3548   */\n      calldataload\n        /* \"#utility.yul\":3575:3593   */\n      0xffffffffffffffff\n        /* \"#utility.yul\":3567:3573   */\n      dup2\n        /* \"#utility.yul\":3564:3594   */\n      gt\n        /* \"#utility.yul\":3561:3678   */\n      iszero\n      tag_317\n      jumpi\n        /* \"#utility.yul\":3597:3676   */\n      tag_318\n      tag_197\n      jump\t// in\n    tag_318:\n        /* \"#utility.yul\":3561:3678   */\n    tag_317:\n        /* \"#utility.yul\":3702:3765   */\n      tag_319\n        /* \"#utility.yul\":3757:3764   */\n      dup6\n        /* \"#utility.yul\":3748:3754   */\n      dup3\n        /* \"#utility.yul\":3737:3746   */\n      dup7\n        /* \"#utility.yul\":3733:3755   */\n      add\n        /* \"#utility.yul\":3702:3765   */\n      tag_209\n      jump\t// in\n    tag_319:\n        /* \"#utility.yul\":3692:3765   */\n      swap3\n      pop\n        /* \"#utility.yul\":3488:3775   */\n      pop\n        /* \"#utility.yul\":3842:3844   */\n      0x20\n        /* \"#utility.yul\":3831:3840   */\n      dup4\n        /* \"#utility.yul\":3827:3845   */\n      add\n        /* \"#utility.yul\":3814:3846   */\n      calldataload\n        /* \"#utility.yul\":3873:3891   */\n      0xffffffffffffffff\n        /* \"#utility.yul\":3865:3871   */\n      dup2\n        /* \"#utility.yul\":3862:3892   */\n      gt\n        /* \"#utility.yul\":3859:3976   */\n      iszero\n      tag_320\n      jumpi\n        /* \"#utility.yul\":3895:3974   */\n      tag_321\n      tag_197\n      jump\t// in\n    tag_321:\n        /* \"#utility.yul\":3859:3976   */\n    tag_320:\n        /* \"#utility.yul\":4000:4063   */\n      tag_322\n        /* \"#utility.yul\":4055:4062   */\n      dup6\n        /* \"#utility.yul\":4046:4052   */\n      dup3\n        /* \"#utility.yul\":4035:4044   */\n      dup7\n        /* \"#utility.yul\":4031:4053   */\n      add\n        /* \"#utility.yul\":4000:4063   */\n      tag_209\n      jump\t// in\n    tag_322:\n        /* \"#utility.yul\":3990:4063   */\n      swap2\n      pop\n        /* \"#utility.yul\":3785:4073   */\n      pop\n        /* \"#utility.yul\":3246:4080   */\n      swap3\n      pop\n      swap3\n      swap1\n      pop\n      jump\t// out\n        /* \"#utility.yul\":4086:4223   */\n    tag_210:\n        /* \"#utility.yul\":4176:4182   */\n      0x00\n        /* \"#utility.yul\":4210:4215   */\n      dup2\n        /* \"#utility.yul\":4204:4216   */\n      mload\n        /* \"#utility.yul\":4194:4216   */\n      swap1\n      pop\n        /* \"#utility.yul\":4086:4223   */\n      swap2\n      swap1\n      pop\n      jump\t// out\n        /* \"#utility.yul\":4229:4436   */\n    tag_211:\n        /* \"#utility.yul\":4351:4362   */\n      0x00\n        /* \"#utility.yul\":4385:4391   */\n      dup3\n        /* \"#utility.yul\":4380:4383   */\n      dup3\n        /* \"#utility.yul\":4373:4392   */\n      mstore\n        /* \"#utility.yul\":4425:4429   */\n      0x20\n        /* \"#utility.yul\":4420:4423   */\n      dup3\n        /* \"#utility.yul\":4416:4430   */\n      add\n        /* \"#utility.yul\":4401:4430   */\n      swap1\n      pop\n        /* \"#utility.yul\":4229:4436   */\n      swap3\n      swap2\n      pop\n      pop\n      jump\t// out\n        /* \"#utility.yul\":4442:4597   */\n    tag_212:\n        /* \"#utility.yul\":4532:4536   */\n      0x00\n        /* \"#utility.yul\":4555:4558   */\n      dup2\n        /* \"#utility.yul\":4547:4558   */\n      swap1\n      pop\n        /* \"#utility.yul\":4585:4589   */\n      0x20\n        /* \"#utility.yul\":4580:4583   */\n      dup3\n        /* \"#utility.yul\":4576:4590   */\n      add\n        /* \"#utility.yul\":4568:4590   */\n      swap1\n      pop\n        /* \"#utility.yul\":4442:4597   */\n      swap2\n      swap1\n      pop\n      jump\t// out\n        /* \"#utility.yul\":4603:4711   */\n    tag_213:\n        /* \"#utility.yul\":4680:4704   */\n      tag_327\n        /* \"#utility.yul\":4698:4703   */\n      dup2\n        /* \"#utility.yul\":4680:4704   */\n      tag_198\n      jump\t// in\n    tag_327:\n        /* \"#utility.yul\":4675:4678   */\n      dup3\n        /* \"#utility.yul\":4668:4705   */\n      mstore\n        /* \"#utility.yul\":4603:4711   */\n      pop\n      pop\n      jump\t// out\n        /* \"#utility.yul\":4717:4843   */\n    tag_214:\n        /* \"#utility.yul\":4754:4761   */\n      0x00\n        /* \"#utility.yul\":4794:4836   */\n      0xffffffffffffffffffffffffffffffffffffffff\n        /* \"#utility.yul\":4787:4792   */\n      dup3\n        /* \"#utility.yul\":4783:4837   */\n      and\n        /* \"#utility.yul\":4772:4837   */\n      swap1\n      pop\n        /* \"#utility.yul\":4717:4843   */\n      swap2\n      swap1\n      pop\n      jump\t// out\n        /* \"#utility.yul\":4849:4945   */\n    tag_215:\n        /* \"#utility.yul\":4886:4893   */\n      0x00\n        /* \"#utility.yul\":4915:4939   */\n      tag_330\n        /* \"#utility.yul\":4933:4938   */\n      dup3\n        /* \"#utility.yul\":4915:4939   */\n      tag_214\n      jump\t// in\n    tag_330:\n        /* \"#utility.yul\":4904:4939   */\n      swap1\n      pop\n        /* \"#utility.yul\":4849:4945   */\n      swap2\n      swap1\n      pop\n      jump\t// out\n        /* \"#utility.yul\":4951:5059   */\n    tag_216:\n        /* \"#utility.yul\":5028:5052   */\n      tag_332\n        /* \"#utility.yul\":5046:5051   */\n      dup2\n        /* \"#utility.yul\":5028:5052   */\n      tag_215\n      jump\t// in\n    tag_332:\n        /* \"#utility.yul\":5023:5026   */\n      dup3\n        /* \"#utility.yul\":5016:5053   */\n      mstore\n        /* \"#utility.yul\":4951:5059   */\n      pop\n      pop\n      jump\t// out\n        /* \"#utility.yul\":5065:5164   */\n    tag_217:\n        /* \"#utility.yul\":5117:5123   */\n      0x00\n        /* \"#utility.yul\":5151:5156   */\n      dup2\n        /* \"#utility.yul\":5145:5157   */\n      mload\n        /* \"#utility.yul\":5135:5157   */\n      swap1\n      pop\n        /* \"#utility.yul\":5065:5164   */\n      swap2\n      swap1\n      pop\n      jump\t// out\n        /* \"#utility.yul\":5170:5329   */\n    tag_218:\n        /* \"#utility.yul\":5244:5255   */\n      0x00\n        /* \"#utility.yul\":5278:5284   */\n      dup3\n        /* \"#utility.yul\":5273:5276   */\n      dup3\n        /* \"#utility.yul\":5266:5285   */\n      mstore\n        /* \"#utility.yul\":5318:5322   */\n      0x20\n        /* \"#utility.yul\":5313:5316   */\n      dup3\n        /* \"#utility.yul\":5309:5323   */\n      add\n        /* \"#utility.yul\":5294:5323   */\n      swap1\n      pop\n        /* \"#utility.yul\":5170:5329   */\n      swap3\n      swap2\n      pop\n      pop\n      jump\t// out\n        /* \"#utility.yul\":5335:5474   */\n    tag_219:\n        /* \"#utility.yul\":5424:5430   */\n      dup3\n        /* \"#utility.yul\":5419:5422   */\n      dup2\n        /* \"#utility.yul\":5414:5417   */\n      dup4\n        /* \"#utility.yul\":5408:5431   */\n      mcopy\n        /* \"#utility.yul\":5465:5466   */\n      0x00\n        /* \"#utility.yul\":5456:5462   */\n      dup4\n        /* \"#utility.yul\":5451:5454   */\n      dup4\n        /* \"#utility.yul\":5447:5463   */\n      add\n        /* \"#utility.yul\":5440:5467   */\n      mstore\n        /* \"#utility.yul\":5335:5474   */\n      pop\n      pop\n      pop\n      jump\t// out\n        /* \"#utility.yul\":5480:5837   */\n    tag_220:\n        /* \"#utility.yul\":5558:5561   */\n      0x00\n        /* \"#utility.yul\":5586:5625   */\n      tag_337\n        /* \"#utility.yul\":5619:5624   */\n      dup3\n        /* \"#utility.yul\":5586:5625   */\n      tag_217\n      jump\t// in\n    tag_337:\n        /* \"#utility.yul\":5641:5702   */\n      tag_338\n        /* \"#utility.yul\":5695:5701   */\n      dup2\n        /* \"#utility.yul\":5690:5693   */\n      dup6\n        /* \"#utility.yul\":5641:5702   */\n      tag_218\n      jump\t// in\n    tag_338:\n        /* \"#utility.yul\":5634:5702   */\n      swap4\n      pop\n        /* \"#utility.yul\":5711:5776   */\n      tag_339\n        /* \"#utility.yul\":5769:5775   */\n      dup2\n        /* \"#utility.yul\":5764:5767   */\n      dup6\n        /* \"#utility.yul\":5757:5761   */\n      0x20\n        /* \"#utility.yul\":5750:5755   */\n      dup7\n        /* \"#utility.yul\":5746:5762   */\n      add\n        /* \"#utility.yul\":5711:5776   */\n      tag_219\n      jump\t// in\n    tag_339:\n        /* \"#utility.yul\":5801:5830   */\n      tag_340\n        /* \"#utility.yul\":5823:5829   */\n      dup2\n        /* \"#utility.yul\":5801:5830   */\n      tag_203\n      jump\t// in\n    tag_340:\n        /* \"#utility.yul\":5796:5799   */\n      dup5\n        /* \"#utility.yul\":5792:5831   */\n      add\n        /* \"#utility.yul\":5785:5831   */\n      swap2\n      pop\n        /* \"#utility.yul\":5562:5837   */\n      pop\n        /* \"#utility.yul\":5480:5837   */\n      swap3\n      swap2\n      pop\n      pop\n      jump\t// out\n        /* \"#utility.yul\":5909:7037   */\n    tag_221:\n        /* \"#utility.yul\":6014:6017   */\n      0x00\n        /* \"#utility.yul\":6050:6054   */\n      0xa0\n        /* \"#utility.yul\":6045:6048   */\n      dup4\n        /* \"#utility.yul\":6041:6055   */\n      add\n        /* \"#utility.yul\":6142:6146   */\n      0x00\n        /* \"#utility.yul\":6135:6140   */\n      dup4\n        /* \"#utility.yul\":6131:6147   */\n      add\n        /* \"#utility.yul\":6125:6148   */\n      mload\n        /* \"#utility.yul\":6161:6224   */\n      tag_342\n        /* \"#utility.yul\":6218:6222   */\n      0x00\n        /* \"#utility.yul\":6213:6216   */\n      dup7\n        /* \"#utility.yul\":6209:6223   */\n      add\n        /* \"#utility.yul\":6195:6207   */\n      dup3\n        /* \"#utility.yul\":6161:6224   */\n      tag_213\n      jump\t// in\n    tag_342:\n        /* \"#utility.yul\":6065:6234   */\n      pop\n        /* \"#utility.yul\":6318:6322   */\n      0x20\n        /* \"#utility.yul\":6311:6316   */\n      dup4\n        /* \"#utility.yul\":6307:6323   */\n      add\n        /* \"#utility.yul\":6301:6324   */\n      mload\n        /* \"#utility.yul\":6337:6400   */\n      tag_343\n        /* \"#utility.yul\":6394:6398   */\n      0x20\n        /* \"#utility.yul\":6389:6392   */\n      dup7\n        /* \"#utility.yul\":6385:6399   */\n      add\n        /* \"#utility.yul\":6371:6383   */\n      dup3\n        /* \"#utility.yul\":6337:6400   */\n      tag_216\n      jump\t// in\n    tag_343:\n        /* \"#utility.yul\":6244:6410   */\n      pop\n        /* \"#utility.yul\":6492:6496   */\n      0x40\n        /* \"#utility.yul\":6485:6490   */\n      dup4\n        /* \"#utility.yul\":6481:6497   */\n      add\n        /* \"#utility.yul\":6475:6498   */\n      mload\n        /* \"#utility.yul\":6545:6548   */\n      dup5\n        /* \"#utility.yul\":6539:6543   */\n      dup3\n        /* \"#utility.yul\":6535:6549   */\n      sub\n        /* \"#utility.yul\":6528:6532   */\n      0x40\n        /* \"#utility.yul\":6523:6526   */\n      dup7\n        /* \"#utility.yul\":6519:6533   */\n      add\n        /* \"#utility.yul\":6512:6550   */\n      mstore\n        /* \"#utility.yul\":6571:6644   */\n      tag_344\n        /* \"#utility.yul\":6639:6643   */\n      dup3\n        /* \"#utility.yul\":6625:6637   */\n      dup3\n        /* \"#utility.yul\":6571:6644   */\n      tag_220\n      jump\t// in\n    tag_344:\n        /* \"#utility.yul\":6563:6644   */\n      swap2\n      pop\n        /* \"#utility.yul\":6420:6655   */\n      pop\n        /* \"#utility.yul\":6739:6743   */\n      0x60\n        /* \"#utility.yul\":6732:6737   */\n      dup4\n        /* \"#utility.yul\":6728:6744   */\n      add\n        /* \"#utility.yul\":6722:6745   */\n      mload\n        /* \"#utility.yul\":6758:6821   */\n      tag_345\n        /* \"#utility.yul\":6815:6819   */\n      0x60\n        /* \"#utility.yul\":6810:6813   */\n      dup7\n        /* \"#utility.yul\":6806:6820   */\n      add\n        /* \"#utility.yul\":6792:6804   */\n      dup3\n        /* \"#utility.yul\":6758:6821   */\n      tag_213\n      jump\t// in\n    tag_345:\n        /* \"#utility.yul\":6665:6831   */\n      pop\n        /* \"#utility.yul\":6918:6922   */\n      0x80\n        /* \"#utility.yul\":6911:6916   */\n      dup4\n        /* \"#utility.yul\":6907:6923   */\n      add\n        /* \"#utility.yul\":6901:6924   */\n      mload\n        /* \"#utility.yul\":6937:7000   */\n      tag_346\n        /* \"#utility.yul\":6994:6998   */\n      0x80\n        /* \"#utility.yul\":6989:6992   */\n      dup7\n        /* \"#utility.yul\":6985:6999   */\n      add\n        /* \"#utility.yul\":6971:6983   */\n      dup3\n        /* \"#utility.yul\":6937:7000   */\n      tag_213\n      jump\t// in\n    tag_346:\n        /* \"#utility.yul\":6841:7010   */\n      pop\n        /* \"#utility.yul\":7027:7031   */\n      dup1\n        /* \"#utility.yul\":7020:7031   */\n      swap2\n      pop\n        /* \"#utility.yul\":6019:7037   */\n      pop\n        /* \"#utility.yul\":5909:7037   */\n      swap3\n      swap2\n      pop\n      pop\n      jump\t// out\n        /* \"#utility.yul\":7043:7291   */\n    tag_222:\n        /* \"#utility.yul\":7158:7168   */\n      0x00\n        /* \"#utility.yul\":7193:7285   */\n      tag_348\n        /* \"#utility.yul\":7281:7284   */\n      dup4\n        /* \"#utility.yul\":7273:7279   */\n      dup4\n        /* \"#utility.yul\":7193:7285   */\n      tag_221\n      jump\t// in\n    tag_348:\n        /* \"#utility.yul\":7179:7285   */\n      swap1\n      pop\n        /* \"#utility.yul\":7043:7291   */\n      swap3\n      swap2\n      pop\n      pop\n      jump\t// out\n        /* \"#utility.yul\":7297:7433   */\n    tag_223:\n        /* \"#utility.yul\":7390:7394   */\n      0x00\n        /* \"#utility.yul\":7422:7426   */\n      0x20\n        /* \"#utility.yul\":7417:7420   */\n      dup3\n        /* \"#utility.yul\":7413:7427   */\n      add\n        /* \"#utility.yul\":7405:7427   */\n      swap1\n      pop\n        /* \"#utility.yul\":7297:7433   */\n      swap2\n      swap1\n      pop\n      jump\t// out\n        /* \"#utility.yul\":7509:8604   */\n    tag_224:\n        /* \"#utility.yul\":7674:7677   */\n      0x00\n        /* \"#utility.yul\":7703:7780   */\n      tag_351\n        /* \"#utility.yul\":7774:7779   */\n      dup3\n        /* \"#utility.yul\":7703:7780   */\n      tag_210\n      jump\t// in\n    tag_351:\n        /* \"#utility.yul\":7796:7905   */\n      tag_352\n        /* \"#utility.yul\":7898:7904   */\n      dup2\n        /* \"#utility.yul\":7893:7896   */\n      dup6\n        /* \"#utility.yul\":7796:7905   */\n      tag_211\n      jump\t// in\n    tag_352:\n        /* \"#utility.yul\":7789:7905   */\n      swap4\n      pop\n        /* \"#utility.yul\":7931:7934   */\n      dup4\n        /* \"#utility.yul\":7976:7980   */\n      0x20\n        /* \"#utility.yul\":7968:7974   */\n      dup3\n        /* \"#utility.yul\":7964:7981   */\n      mul\n        /* \"#utility.yul\":7959:7962   */\n      dup6\n        /* \"#utility.yul\":7955:7982   */\n      add\n        /* \"#utility.yul\":8006:8085   */\n      tag_353\n        /* \"#utility.yul\":8079:8084   */\n      dup6\n        /* \"#utility.yul\":8006:8085   */\n      tag_212\n      jump\t// in\n    tag_353:\n        /* \"#utility.yul\":8108:8115   */\n      dup1\n        /* \"#utility.yul\":8139:8140   */\n      0x00\n        /* \"#utility.yul\":8124:8559   */\n    tag_354:\n        /* \"#utility.yul\":8149:8155   */\n      dup6\n        /* \"#utility.yul\":8146:8147   */\n      dup2\n        /* \"#utility.yul\":8143:8156   */\n      lt\n        /* \"#utility.yul\":8124:8559   */\n      iszero\n      tag_356\n      jumpi\n        /* \"#utility.yul\":8220:8229   */\n      dup5\n        /* \"#utility.yul\":8214:8218   */\n      dup5\n        /* \"#utility.yul\":8210:8230   */\n      sub\n        /* \"#utility.yul\":8205:8208   */\n      dup10\n        /* \"#utility.yul\":8198:8231   */\n      mstore\n        /* \"#utility.yul\":8271:8277   */\n      dup2\n        /* \"#utility.yul\":8265:8278   */\n      mload\n        /* \"#utility.yul\":8299:8409   */\n      tag_357\n        /* \"#utility.yul\":8404:8408   */\n      dup6\n        /* \"#utility.yul\":8389:8402   */\n      dup3\n        /* \"#utility.yul\":8299:8409   */\n      tag_222\n      jump\t// in\n    tag_357:\n        /* \"#utility.yul\":8291:8409   */\n      swap5\n      pop\n        /* \"#utility.yul\":8432:8515   */\n      tag_358\n        /* \"#utility.yul\":8508:8514   */\n      dup4\n        /* \"#utility.yul\":8432:8515   */\n      tag_223\n      jump\t// in\n    tag_358:\n        /* \"#utility.yul\":8422:8515   */\n      swap3\n      pop\n        /* \"#utility.yul\":8544:8548   */\n      0x20\n        /* \"#utility.yul\":8539:8542   */\n      dup11\n        /* \"#utility.yul\":8535:8549   */\n      add\n        /* \"#utility.yul\":8528:8549   */\n      swap10\n      pop\n        /* \"#utility.yul\":8184:8559   */\n      pop\n        /* \"#utility.yul\":8171:8172   */\n      0x01\n        /* \"#utility.yul\":8168:8169   */\n      dup2\n        /* \"#utility.yul\":8164:8173   */\n      add\n        /* \"#utility.yul\":8159:8173   */\n      swap1\n      pop\n        /* \"#utility.yul\":8124:8559   */\n      jump(tag_354)\n    tag_356:\n        /* \"#utility.yul\":8128:8142   */\n      pop\n        /* \"#utility.yul\":8575:8579   */\n      dup3\n        /* \"#utility.yul\":8568:8579   */\n      swap8\n      pop\n        /* \"#utility.yul\":8595:8598   */\n      dup8\n        /* \"#utility.yul\":8588:8598   */\n      swap6\n      pop\n        /* \"#utility.yul\":7679:8604   */\n      pop\n      pop\n      pop\n      pop\n      pop\n        /* \"#utility.yul\":7509:8604   */\n      swap3\n      swap2\n      pop\n      pop\n      jump\t// out\n        /* \"#utility.yul\":8610:9075   */\n    tag_27:\n        /* \"#utility.yul\":8799:8803   */\n      0x00\n        /* \"#utility.yul\":8837:8839   */\n      0x20\n        /* \"#utility.yul\":8826:8835   */\n      dup3\n        /* \"#utility.yul\":8822:8840   */\n      add\n        /* \"#utility.yul\":8814:8840   */\n      swap1\n      pop\n        /* \"#utility.yul\":8886:8895   */\n      dup2\n        /* \"#utility.yul\":8880:8884   */\n      dup2\n        /* \"#utility.yul\":8876:8896   */\n      sub\n        /* \"#utility.yul\":8872:8873   */\n      0x00\n        /* \"#utility.yul\":8861:8870   */\n      dup4\n        /* \"#utility.yul\":8857:8874   */\n      add\n        /* \"#utility.yul\":8850:8897   */\n      mstore\n        /* \"#utility.yul\":8914:9068   */\n      tag_360\n        /* \"#utility.yul\":9063:9067   */\n      dup2\n        /* \"#utility.yul\":9054:9060   */\n      dup5\n        /* \"#utility.yul\":8914:9068   */\n      tag_224\n      jump\t// in\n    tag_360:\n        /* \"#utility.yul\":8906:9068   */\n      swap1\n      pop\n        /* \"#utility.yul\":8610:9075   */\n      swap3\n      swap2\n      pop\n      pop\n      jump\t// out\n        /* \"#utility.yul\":9081:9195   */\n    tag_225:\n        /* \"#utility.yul\":9148:9154   */\n      0x00\n        /* \"#utility.yul\":9182:9187   */\n      dup2\n        /* \"#utility.yul\":9176:9188   */\n      mload\n        /* \"#utility.yul\":9166:9188   */\n      swap1\n      pop\n        /* \"#utility.yul\":9081:9195   */\n      swap2\n      swap1\n      pop\n      jump\t// out\n        /* \"#utility.yul\":9201:9385   */\n    tag_226:\n        /* \"#utility.yul\":9300:9311   */\n      0x00\n        /* \"#utility.yul\":9334:9340   */\n      dup3\n        /* \"#utility.yul\":9329:9332   */\n      dup3\n        /* \"#utility.yul\":9322:9341   */\n      mstore\n        /* \"#utility.yul\":9374:9378   */\n      0x20\n        /* \"#utility.yul\":9369:9372   */\n      dup3\n        /* \"#utility.yul\":9365:9379   */\n      add\n        /* \"#utility.yul\":9350:9379   */\n      swap1\n      pop\n        /* \"#utility.yul\":9201:9385   */\n      swap3\n      swap2\n      pop\n      pop\n      jump\t// out\n        /* \"#utility.yul\":9391:9523   */\n    tag_227:\n        /* \"#utility.yul\":9458:9462   */\n      0x00\n        /* \"#utility.yul\":9481:9484   */\n      dup2\n        /* \"#utility.yul\":9473:9484   */\n      swap1\n      pop\n        /* \"#utility.yul\":9511:9515   */\n      0x20\n        /* \"#utility.yul\":9506:9509   */\n      dup3\n        /* \"#utility.yul\":9502:9516   */\n      add\n        /* \"#utility.yul\":9494:9516   */\n      swap1\n      pop\n        /* \"#utility.yul\":9391:9523   */\n      swap2\n      swap1\n      pop\n      jump\t// out\n        /* \"#utility.yul\":9529:9708   */\n    tag_228:\n        /* \"#utility.yul\":9598:9608   */\n      0x00\n        /* \"#utility.yul\":9619:9665   */\n      tag_365\n        /* \"#utility.yul\":9661:9664   */\n      dup4\n        /* \"#utility.yul\":9653:9659   */\n      dup4\n        /* \"#utility.yul\":9619:9665   */\n      tag_213\n      jump\t// in\n    tag_365:\n        /* \"#utility.yul\":9697:9701   */\n      0x20\n        /* \"#utility.yul\":9692:9695   */\n      dup4\n        /* \"#utility.yul\":9688:9702   */\n      add\n        /* \"#utility.yul\":9674:9702   */\n      swap1\n      pop\n        /* \"#utility.yul\":9529:9708   */\n      swap3\n      swap2\n      pop\n      pop\n      jump\t// out\n        /* \"#utility.yul\":9714:9827   */\n    tag_229:\n        /* \"#utility.yul\":9784:9788   */\n      0x00\n        /* \"#utility.yul\":9816:9820   */\n      0x20\n        /* \"#utility.yul\":9811:9814   */\n      dup3\n        /* \"#utility.yul\":9807:9821   */\n      add\n        /* \"#utility.yul\":9799:9821   */\n      swap1\n      pop\n        /* \"#utility.yul\":9714:9827   */\n      swap2\n      swap1\n      pop\n      jump\t// out\n        /* \"#utility.yul\":9863:10595   */\n    tag_230:\n        /* \"#utility.yul\":9982:9985   */\n      0x00\n        /* \"#utility.yul\":10011:10065   */\n      tag_368\n        /* \"#utility.yul\":10059:10064   */\n      dup3\n        /* \"#utility.yul\":10011:10065   */\n      tag_225\n      jump\t// in\n    tag_368:\n        /* \"#utility.yul\":10081:10167   */\n      tag_369\n        /* \"#utility.yul\":10160:10166   */\n      dup2\n        /* \"#utility.yul\":10155:10158   */\n      dup6\n        /* \"#utility.yul\":10081:10167   */\n      tag_226\n      jump\t// in\n    tag_369:\n        /* \"#utility.yul\":10074:10167   */\n      swap4\n      pop\n        /* \"#utility.yul\":10191:10247   */\n      tag_370\n        /* \"#utility.yul\":10241:10246   */\n      dup4\n        /* \"#utility.yul\":10191:10247   */\n      tag_227\n      jump\t// in\n    tag_370:\n        /* \"#utility.yul\":10270:10277   */\n      dup1\n        /* \"#utility.yul\":10301:10302   */\n      0x00\n        /* \"#utility.yul\":10286:10570   */\n    tag_371:\n        /* \"#utility.yul\":10311:10317   */\n      dup4\n        /* \"#utility.yul\":10308:10309   */\n      dup2\n        /* \"#utility.yul\":10305:10318   */\n      lt\n        /* \"#utility.yul\":10286:10570   */\n      iszero\n      tag_373\n      jumpi\n        /* \"#utility.yul\":10387:10393   */\n      dup2\n        /* \"#utility.yul\":10381:10394   */\n      mload\n        /* \"#utility.yul\":10414:10477   */\n      tag_374\n        /* \"#utility.yul\":10473:10476   */\n      dup9\n        /* \"#utility.yul\":10458:10471   */\n      dup3\n        /* \"#utility.yul\":10414:10477   */\n      tag_228\n      jump\t// in\n    tag_374:\n        /* \"#utility.yul\":10407:10477   */\n      swap8\n      pop\n        /* \"#utility.yul\":10500:10560   */\n      tag_375\n        /* \"#utility.yul\":10553:10559   */\n      dup4\n        /* \"#utility.yul\":10500:10560   */\n      tag_229\n      jump\t// in\n    tag_375:\n        /* \"#utility.yul\":10490:10560   */\n      swap3\n      pop\n        /* \"#utility.yul\":10346:10570   */\n      pop\n        /* \"#utility.yul\":10333:10334   */\n      0x01\n        /* \"#utility.yul\":10330:10331   */\n      dup2\n        /* \"#utility.yul\":10326:10335   */\n      add\n        /* \"#utility.yul\":10321:10335   */\n      swap1\n      pop\n        /* \"#utility.yul\":10286:10570   */\n      jump(tag_371)\n    tag_373:\n        /* \"#utility.yul\":10290:10304   */\n      pop\n        /* \"#utility.yul\":10586:10589   */\n      dup6\n        /* \"#utility.yul\":10579:10589   */\n      swap4\n      pop\n        /* \"#utility.yul\":9987:10595   */\n      pop\n      pop\n      pop\n        /* \"#utility.yul\":9863:10595   */\n      swap3\n      swap2\n      pop\n      pop\n      jump\t// out\n        /* \"#utility.yul\":10601:10974   */\n    tag_31:\n        /* \"#utility.yul\":10744:10748   */\n      0x00\n        /* \"#utility.yul\":10782:10784   */\n      0x20\n        /* \"#utility.yul\":10771:10780   */\n      dup3\n        /* \"#utility.yul\":10767:10785   */\n      add\n        /* \"#utility.yul\":10759:10785   */\n      swap1\n      pop\n        /* \"#utility.yul\":10831:10840   */\n      dup2\n        /* \"#utility.yul\":10825:10829   */\n      dup2\n        /* \"#utility.yul\":10821:10841   */\n      sub\n        /* \"#utility.yul\":10817:10818   */\n      0x00\n        /* \"#utility.yul\":10806:10815   */\n      dup4\n        /* \"#utility.yul\":10802:10819   */\n      add\n        /* \"#utility.yul\":10795:10842   */\n      mstore\n        /* \"#utility.yul\":10859:10967   */\n      tag_377\n        /* \"#utility.yul\":10962:10966   */\n      dup2\n        /* \"#utility.yul\":10953:10959   */\n      dup5\n        /* \"#utility.yul\":10859:10967   */\n      tag_230\n      jump\t// in\n    tag_377:\n        /* \"#utility.yul\":10851:10967   */\n      swap1\n      pop\n        /* \"#utility.yul\":10601:10974   */\n      swap3\n      swap2\n      pop\n      pop\n      jump\t// out\n        /* \"#utility.yul\":10980:11102   */\n    tag_231:\n        /* \"#utility.yul\":11053:11077   */\n      tag_379\n        /* \"#utility.yul\":11071:11076   */\n      dup2\n        /* \"#utility.yul\":11053:11077   */\n      tag_215\n      jump\t// in\n    tag_379:\n        /* \"#utility.yul\":11046:11051   */\n      dup2\n        /* \"#utility.yul\":11043:11078   */\n      eq\n        /* \"#utility.yul\":11033:11096   */\n      tag_380\n      jumpi\n        /* \"#utility.yul\":11092:11093   */\n      0x00\n        /* \"#utility.yul\":11089:11090   */\n      0x00\n        /* \"#utility.yul\":11082:11094   */\n      revert\n        /* \"#utility.yul\":11033:11096   */\n    tag_380:\n        /* \"#utility.yul\":10980:11102   */\n      pop\n      jump\t// out\n        /* \"#utility.yul\":11108:11247   */\n    tag_232:\n        /* \"#utility.yul\":11154:11159   */\n      0x00\n        /* \"#utility.yul\":11192:11198   */\n      dup2\n        /* \"#utility.yul\":11179:11199   */\n      calldataload\n        /* \"#utility.yul\":11170:11199   */\n      swap1\n      pop\n        /* \"#utility.yul\":11208:11241   */\n      tag_382\n        /* \"#utility.yul\":11235:11240   */\n      dup2\n        /* \"#utility.yul\":11208:11241   */\n      tag_231\n      jump\t// in\n    tag_382:\n        /* \"#utility.yul\":11108:11247   */\n      swap3\n      swap2\n      pop\n      pop\n      jump\t// out\n        /* \"#utility.yul\":11253:11582   */\n    tag_37:\n        /* \"#utility.yul\":11312:11318   */\n      0x00\n        /* \"#utility.yul\":11361:11363   */\n      0x20\n        /* \"#utility.yul\":11349:11358   */\n      dup3\n        /* \"#utility.yul\":11340:11347   */\n      dup5\n        /* \"#utility.yul\":11336:11359   */\n      sub\n        /* \"#utility.yul\":11332:11364   */\n      slt\n        /* \"#utility.yul\":11329:11448   */\n      iszero\n      tag_384\n      jumpi\n        /* \"#utility.yul\":11367:11446   */\n      tag_385\n      tag_196\n      jump\t// in\n    tag_385:\n        /* \"#utility.yul\":11329:11448   */\n    tag_384:\n        /* \"#utility.yul\":11487:11488   */\n      0x00\n        /* \"#utility.yul\":11512:11565   */\n      tag_386\n        /* \"#utility.yul\":11557:11564   */\n      dup5\n        /* \"#utility.yul\":11548:11554   */\n      dup3\n        /* \"#utility.yul\":11537:11546   */\n      dup6\n        /* \"#utility.yul\":11533:11555   */\n      add\n        /* \"#utility.yul\":11512:11565   */\n      tag_232\n      jump\t// in\n    tag_386:\n        /* \"#utility.yul\":11502:11565   */\n      swap2\n      pop\n        /* \"#utility.yul\":11458:11575   */\n      pop\n        /* \"#utility.yul\":11253:11582   */\n      swap3\n      swap2\n      pop\n      pop\n      jump\t// out\n        /* \"#utility.yul\":11588:11706   */\n    tag_233:\n        /* \"#utility.yul\":11675:11699   */\n      tag_388\n        /* \"#utility.yul\":11693:11698   */\n      dup2\n        /* \"#utility.yul\":11675:11699   */\n      tag_198\n      jump\t// in\n    tag_388:\n        /* \"#utility.yul\":11670:11673   */\n      dup3\n        /* \"#utility.yul\":11663:11700   */\n      mstore\n        /* \"#utility.yul\":11588:11706   */\n      pop\n      pop\n      jump\t// out\n        /* \"#utility.yul\":11712:11830   */\n    tag_234:\n        /* \"#utility.yul\":11799:11823   */\n      tag_390\n        /* \"#utility.yul\":11817:11822   */\n      dup2\n        /* \"#utility.yul\":11799:11823   */\n      tag_215\n      jump\t// in\n    tag_390:\n        /* \"#utility.yul\":11794:11797   */\n      dup3\n        /* \"#utility.yul\":11787:11824   */\n      mstore\n        /* \"#utility.yul\":11712:11830   */\n      pop\n      pop\n      jump\t// out\n        /* \"#utility.yul\":11836:12005   */\n    tag_235:\n        /* \"#utility.yul\":11920:11931   */\n      0x00\n        /* \"#utility.yul\":11954:11960   */\n      dup3\n        /* \"#utility.yul\":11949:11952   */\n      dup3\n        /* \"#utility.yul\":11942:11961   */\n      mstore\n        /* \"#utility.yul\":11994:11998   */\n      0x20\n        /* \"#utility.yul\":11989:11992   */\n      dup3\n        /* \"#utility.yul\":11985:11999   */\n      add\n        /* \"#utility.yul\":11970:11999   */\n      swap1\n      pop\n        /* \"#utility.yul\":11836:12005   */\n      swap3\n      swap2\n      pop\n      pop\n      jump\t// out\n        /* \"#utility.yul\":12011:12388   */\n    tag_236:\n        /* \"#utility.yul\":12099:12102   */\n      0x00\n        /* \"#utility.yul\":12127:12166   */\n      tag_393\n        /* \"#utility.yul\":12160:12165   */\n      dup3\n        /* \"#utility.yul\":12127:12166   */\n      tag_217\n      jump\t// in\n    tag_393:\n        /* \"#utility.yul\":12182:12253   */\n      tag_394\n        /* \"#utility.yul\":12246:12252   */\n      dup2\n        /* \"#utility.yul\":12241:12244   */\n      dup6\n        /* \"#utility.yul\":12182:12253   */\n      tag_235\n      jump\t// in\n    tag_394:\n        /* \"#utility.yul\":12175:12253   */\n      swap4\n      pop\n        /* \"#utility.yul\":12262:12327   */\n      tag_395\n        /* \"#utility.yul\":12320:12326   */\n      dup2\n        /* \"#utility.yul\":12315:12318   */\n      dup6\n        /* \"#utility.yul\":12308:12312   */\n      0x20\n        /* \"#utility.yul\":12301:12306   */\n      dup7\n        /* \"#utility.yul\":12297:12313   */\n      add\n        /* \"#utility.yul\":12262:12327   */\n      tag_219\n      jump\t// in\n    tag_395:\n        /* \"#utility.yul\":12352:12381   */\n      tag_396\n        /* \"#utility.yul\":12374:12380   */\n      dup2\n        /* \"#utility.yul\":12352:12381   */\n      tag_203\n      jump\t// in\n    tag_396:\n        /* \"#utility.yul\":12347:12350   */\n      dup5\n        /* \"#utility.yul\":12343:12382   */\n      add\n        /* \"#utility.yul\":12336:12382   */\n      swap2\n      pop\n        /* \"#utility.yul\":12103:12388   */\n      pop\n        /* \"#utility.yul\":12011:12388   */\n      swap3\n      swap2\n      pop\n      pop\n      jump\t// out\n        /* \"#utility.yul\":12394:13351   */\n    tag_47:\n        /* \"#utility.yul\":12667:12671   */\n      0x00\n        /* \"#utility.yul\":12705:12708   */\n      0xc0\n        /* \"#utility.yul\":12694:12703   */\n      dup3\n        /* \"#utility.yul\":12690:12709   */\n      add\n        /* \"#utility.yul\":12682:12709   */\n      swap1\n      pop\n        /* \"#utility.yul\":12719:12790   */\n      tag_398\n        /* \"#utility.yul\":12787:12788   */\n      0x00\n        /* \"#utility.yul\":12776:12785   */\n      dup4\n        /* \"#utility.yul\":12772:12789   */\n      add\n        /* \"#utility.yul\":12763:12769   */\n      dup10\n        /* \"#utility.yul\":12719:12790   */\n      tag_233\n      jump\t// in\n    tag_398:\n        /* \"#utility.yul\":12800:12872   */\n      tag_399\n        /* \"#utility.yul\":12868:12870   */\n      0x20\n        /* \"#utility.yul\":12857:12866   */\n      dup4\n        /* \"#utility.yul\":12853:12871   */\n      add\n        /* \"#utility.yul\":12844:12850   */\n      dup9\n        /* \"#utility.yul\":12800:12872   */\n      tag_234\n      jump\t// in\n    tag_399:\n        /* \"#utility.yul\":12919:12928   */\n      dup2\n        /* \"#utility.yul\":12913:12917   */\n      dup2\n        /* \"#utility.yul\":12909:12929   */\n      sub\n        /* \"#utility.yul\":12904:12906   */\n      0x40\n        /* \"#utility.yul\":12893:12902   */\n      dup4\n        /* \"#utility.yul\":12889:12907   */\n      add\n        /* \"#utility.yul\":12882:12930   */\n      mstore\n        /* \"#utility.yul\":12947:13025   */\n      tag_400\n        /* \"#utility.yul\":13020:13024   */\n      dup2\n        /* \"#utility.yul\":13011:13017   */\n      dup8\n        /* \"#utility.yul\":12947:13025   */\n      tag_236\n      jump\t// in\n    tag_400:\n        /* \"#utility.yul\":12939:13025   */\n      swap1\n      pop\n        /* \"#utility.yul\":13072:13081   */\n      dup2\n        /* \"#utility.yul\":13066:13070   */\n      dup2\n        /* \"#utility.yul\":13062:13082   */\n      sub\n        /* \"#utility.yul\":13057:13059   */\n      0x60\n        /* \"#utility.yul\":13046:13055   */\n      dup4\n        /* \"#utility.yul\":13042:13060   */\n      add\n        /* \"#utility.yul\":13035:13083   */\n      mstore\n        /* \"#utility.yul\":13100:13178   */\n      tag_401\n        /* \"#utility.yul\":13173:13177   */\n      dup2\n        /* \"#utility.yul\":13164:13170   */\n      dup7\n        /* \"#utility.yul\":13100:13178   */\n      tag_236\n      jump\t// in\n    tag_401:\n        /* \"#utility.yul\":13092:13178   */\n      swap1\n      pop\n        /* \"#utility.yul\":13188:13261   */\n      tag_402\n        /* \"#utility.yul\":13256:13259   */\n      0x80\n        /* \"#utility.yul\":13245:13254   */\n      dup4\n        /* \"#utility.yul\":13241:13260   */\n      add\n        /* \"#utility.yul\":13232:13238   */\n      dup6\n        /* \"#utility.yul\":13188:13261   */\n      tag_233\n      jump\t// in\n    tag_402:\n        /* \"#utility.yul\":13271:13344   */\n      tag_403\n        /* \"#utility.yul\":13339:13342   */\n      0xa0\n        /* \"#utility.yul\":13328:13337   */\n      dup4\n        /* \"#utility.yul\":13324:13343   */\n      add\n        /* \"#utility.yul\":13315:13321   */\n      dup5\n        /* \"#utility.yul\":13271:13344   */\n      tag_233\n      jump\t// in\n    tag_403:\n        /* \"#utility.yul\":12394:13351   */\n      swap8\n      swap7\n      pop\n      pop\n      pop\n      pop\n      pop\n      pop\n      pop\n      jump\t// out\n        /* \"#utility.yul\":13357:14011   */\n    tag_50:\n        /* \"#utility.yul\":13435:13441   */\n      0x00\n        /* \"#utility.yul\":13443:13449   */\n      0x00\n        /* \"#utility.yul\":13492:13494   */\n      0x40\n        /* \"#utility.yul\":13480:13489   */\n      dup4\n        /* \"#utility.yul\":13471:13478   */\n      dup6\n        /* \"#utility.yul\":13467:13490   */\n      sub\n        /* \"#utility.yul\":13463:13495   */\n      slt\n        /* \"#utility.yul\":13460:13579   */\n      iszero\n      tag_405\n      jumpi\n        /* \"#utility.yul\":13498:13577   */\n      tag_406\n      tag_196\n      jump\t// in\n    tag_406:\n        /* \"#utility.yul\":13460:13579   */\n    tag_405:\n        /* \"#utility.yul\":13618:13619   */\n      0x00\n        /* \"#utility.yul\":13643:13696   */\n      tag_407\n        /* \"#utility.yul\":13688:13695   */\n      dup6\n        /* \"#utility.yul\":13679:13685   */\n      dup3\n        /* \"#utility.yul\":13668:13677   */\n      dup7\n        /* \"#utility.yul\":13664:13686   */\n      add\n        /* \"#utility.yul\":13643:13696   */\n      tag_200\n      jump\t// in\n    tag_407:\n        /* \"#utility.yul\":13633:13696   */\n      swap3\n      pop\n        /* \"#utility.yul\":13589:13706   */\n      pop\n        /* \"#utility.yul\":13773:13775   */\n      0x20\n        /* \"#utility.yul\":13762:13771   */\n      dup4\n        /* \"#utility.yul\":13758:13776   */\n      add\n        /* \"#utility.yul\":13745:13777   */\n      calldataload\n        /* \"#utility.yul\":13804:13822   */\n      0xffffffffffffffff\n        /* \"#utility.yul\":13796:13802   */\n      dup2\n        /* \"#utility.yul\":13793:13823   */\n      gt\n        /* \"#utility.yul\":13790:13907   */\n      iszero\n      tag_408\n      jumpi\n        /* \"#utility.yul\":13826:13905   */\n      tag_409\n      tag_197\n      jump\t// in\n    tag_409:\n        /* \"#utility.yul\":13790:13907   */\n    tag_408:\n        /* \"#utility.yul\":13931:13994   */\n      tag_410\n        /* \"#utility.yul\":13986:13993   */\n      dup6\n        /* \"#utility.yul\":13977:13983   */\n      dup3\n        /* \"#utility.yul\":13966:13975   */\n      dup7\n        /* \"#utility.yul\":13962:13984   */\n      add\n        /* \"#utility.yul\":13931:13994   */\n      tag_209\n      jump\t// in\n    tag_410:\n        /* \"#utility.yul\":13921:13994   */\n      swap2\n      pop\n        /* \"#utility.yul\":13716:14004   */\n      pop\n        /* \"#utility.yul\":13357:14011   */\n      swap3\n      pop\n      swap3\n      swap1\n      pop\n      jump\t// out\n        /* \"#utility.yul\":14017:14641   */\n    tag_59:\n        /* \"#utility.yul\":14206:14210   */\n      0x00\n        /* \"#utility.yul\":14244:14246   */\n      0x60\n        /* \"#utility.yul\":14233:14242   */\n      dup3\n        /* \"#utility.yul\":14229:14247   */\n      add\n        /* \"#utility.yul\":14221:14247   */\n      swap1\n      pop\n        /* \"#utility.yul\":14293:14302   */\n      dup2\n        /* \"#utility.yul\":14287:14291   */\n      dup2\n        /* \"#utility.yul\":14283:14303   */\n      sub\n        /* \"#utility.yul\":14279:14280   */\n      0x00\n        /* \"#utility.yul\":14268:14277   */\n      dup4\n        /* \"#utility.yul\":14264:14281   */\n      add\n        /* \"#utility.yul\":14257:14304   */\n      mstore\n        /* \"#utility.yul\":14321:14399   */\n      tag_412\n        /* \"#utility.yul\":14394:14398   */\n      dup2\n        /* \"#utility.yul\":14385:14391   */\n      dup7\n        /* \"#utility.yul\":14321:14399   */\n      tag_236\n      jump\t// in\n    tag_412:\n        /* \"#utility.yul\":14313:14399   */\n      swap1\n      pop\n        /* \"#utility.yul\":14446:14455   */\n      dup2\n        /* \"#utility.yul\":14440:14444   */\n      dup2\n        /* \"#utility.yul\":14436:14456   */\n      sub\n        /* \"#utility.yul\":14431:14433   */\n      0x20\n        /* \"#utility.yul\":14420:14429   */\n      dup4\n        /* \"#utility.yul\":14416:14434   */\n      add\n        /* \"#utility.yul\":14409:14457   */\n      mstore\n        /* \"#utility.yul\":14474:14552   */\n      tag_413\n        /* \"#utility.yul\":14547:14551   */\n      dup2\n        /* \"#utility.yul\":14538:14544   */\n      dup6\n        /* \"#utility.yul\":14474:14552   */\n      tag_236\n      jump\t// in\n    tag_413:\n        /* \"#utility.yul\":14466:14552   */\n      swap1\n      pop\n        /* \"#utility.yul\":14562:14634   */\n      tag_414\n        /* \"#utility.yul\":14630:14632   */\n      0x40\n        /* \"#utility.yul\":14619:14628   */\n      dup4\n        /* \"#utility.yul\":14615:14633   */\n      add\n        /* \"#utility.yul\":14606:14612   */\n      dup5\n        /* \"#utility.yul\":14562:14634   */\n      tag_233\n      jump\t// in\n    tag_414:\n        /* \"#utility.yul\":14017:14641   */\n      swap5\n      swap4\n      pop\n      pop\n      pop\n      pop\n      jump\t// out\n        /* \"#utility.yul\":14647:14814   */\n    tag_237:\n        /* \"#utility.yul\":14787:14806   */\n      0x506f7374206e6f6e2074726f7661746f2e000000000000000000000000000000\n        /* \"#utility.yul\":14783:14784   */\n      0x00\n        /* \"#utility.yul\":14775:14781   */\n      dup3\n        /* \"#utility.yul\":14771:14785   */\n      add\n        /* \"#utility.yul\":14764:14807   */\n      mstore\n        /* \"#utility.yul\":14647:14814   */\n      pop\n      jump\t// out\n        /* \"#utility.yul\":14820:15186   */\n    tag_238:\n        /* \"#utility.yul\":14962:14965   */\n      0x00\n        /* \"#utility.yul\":14983:15050   */\n      tag_417\n        /* \"#utility.yul\":15047:15049   */\n      0x11\n        /* \"#utility.yul\":15042:15045   */\n      dup4\n        /* \"#utility.yul\":14983:15050   */\n      tag_235\n      jump\t// in\n    tag_417:\n        /* \"#utility.yul\":14976:15050   */\n      swap2\n      pop\n        /* \"#utility.yul\":15059:15152   */\n      tag_418\n        /* \"#utility.yul\":15148:15151   */\n      dup3\n        /* \"#utility.yul\":15059:15152   */\n      tag_237\n      jump\t// in\n    tag_418:\n        /* \"#utility.yul\":15177:15179   */\n      0x20\n        /* \"#utility.yul\":15172:15175   */\n      dup3\n        /* \"#utility.yul\":15168:15180   */\n      add\n        /* \"#utility.yul\":15161:15180   */\n      swap1\n      pop\n        /* \"#utility.yul\":14820:15186   */\n      swap2\n      swap1\n      pop\n      jump\t// out\n        /* \"#utility.yul\":15192:15611   */\n    tag_63:\n        /* \"#utility.yul\":15358:15362   */\n      0x00\n        /* \"#utility.yul\":15396:15398   */\n      0x20\n        /* \"#utility.yul\":15385:15394   */\n      dup3\n        /* \"#utility.yul\":15381:15399   */\n      add\n        /* \"#utility.yul\":15373:15399   */\n      swap1\n      pop\n        /* \"#utility.yul\":15445:15454   */\n      dup2\n        /* \"#utility.yul\":15439:15443   */\n      dup2\n        /* \"#utility.yul\":15435:15455   */\n      sub\n        /* \"#utility.yul\":15431:15432   */\n      0x00\n        /* \"#utility.yul\":15420:15429   */\n      dup4\n        /* \"#utility.yul\":15416:15433   */\n      add\n        /* \"#utility.yul\":15409:15456   */\n      mstore\n        /* \"#utility.yul\":15473:15604   */\n      tag_420\n        /* \"#utility.yul\":15599:15603   */\n      dup2\n        /* \"#utility.yul\":15473:15604   */\n      tag_238\n      jump\t// in\n    tag_420:\n        /* \"#utility.yul\":15465:15604   */\n      swap1\n      pop\n        /* \"#utility.yul\":15192:15611   */\n      swap2\n      swap1\n      pop\n      jump\t// out\n        /* \"#utility.yul\":15617:15799   */\n    tag_239:\n        /* \"#utility.yul\":15757:15791   */\n      0x4e6f6e20736569206c276175746f72652064692071756573746f20706f73742e\n        /* \"#utility.yul\":15753:15754   */\n      0x00\n        /* \"#utility.yul\":15745:15751   */\n      dup3\n        /* \"#utility.yul\":15741:15755   */\n      add\n        /* \"#utility.yul\":15734:15792   */\n      mstore\n        /* \"#utility.yul\":15617:15799   */\n      pop\n      jump\t// out\n        /* \"#utility.yul\":15805:16171   */\n    tag_240:\n        /* \"#utility.yul\":15947:15950   */\n      0x00\n        /* \"#utility.yul\":15968:16035   */\n      tag_423\n        /* \"#utility.yul\":16032:16034   */\n      0x20\n        /* \"#utility.yul\":16027:16030   */\n      dup4\n        /* \"#utility.yul\":15968:16035   */\n      tag_235\n      jump\t// in\n    tag_423:\n        /* \"#utility.yul\":15961:16035   */\n      swap2\n      pop\n        /* \"#utility.yul\":16044:16137   */\n      tag_424\n        /* \"#utility.yul\":16133:16136   */\n      dup3\n        /* \"#utility.yul\":16044:16137   */\n      tag_239\n      jump\t// in\n    tag_424:\n        /* \"#utility.yul\":16162:16164   */\n      0x20\n        /* \"#utility.yul\":16157:16160   */\n      dup3\n        /* \"#utility.yul\":16153:16165   */\n      add\n        /* \"#utility.yul\":16146:16165   */\n      swap1\n      pop\n        /* \"#utility.yul\":15805:16171   */\n      swap2\n      swap1\n      pop\n      jump\t// out\n        /* \"#utility.yul\":16177:16596   */\n    tag_67:\n        /* \"#utility.yul\":16343:16347   */\n      0x00\n        /* \"#utility.yul\":16381:16383   */\n      0x20\n        /* \"#utility.yul\":16370:16379   */\n      dup3\n        /* \"#utility.yul\":16366:16384   */\n      add\n        /* \"#utility.yul\":16358:16384   */\n      swap1\n      pop\n        /* \"#utility.yul\":16430:16439   */\n      dup2\n        /* \"#utility.yul\":16424:16428   */\n      dup2\n        /* \"#utility.yul\":16420:16440   */\n      sub\n        /* \"#utility.yul\":16416:16417   */\n      0x00\n        /* \"#utility.yul\":16405:16414   */\n      dup4\n        /* \"#utility.yul\":16401:16418   */\n      add\n        /* \"#utility.yul\":16394:16441   */\n      mstore\n        /* \"#utility.yul\":16458:16589   */\n      tag_426\n        /* \"#utility.yul\":16584:16588   */\n      dup2\n        /* \"#utility.yul\":16458:16589   */\n      tag_240\n      jump\t// in\n    tag_426:\n        /* \"#utility.yul\":16450:16589   */\n      swap1\n      pop\n        /* \"#utility.yul\":16177:16596   */\n      swap2\n      swap1\n      pop\n      jump\t// out\n        /* \"#utility.yul\":16602:16775   */\n    tag_241:\n        /* \"#utility.yul\":16742:16767   */\n      0x4163636f756e742067696127206573697374656e74652e000000000000000000\n        /* \"#utility.yul\":16738:16739   */\n      0x00\n        /* \"#utility.yul\":16730:16736   */\n      dup3\n        /* \"#utility.yul\":16726:16740   */\n      add\n        /* \"#utility.yul\":16719:16768   */\n      mstore\n        /* \"#utility.yul\":16602:16775   */\n      pop\n      jump\t// out\n        /* \"#utility.yul\":16781:17147   */\n    tag_242:\n        /* \"#utility.yul\":16923:16926   */\n      0x00\n        /* \"#utility.yul\":16944:17011   */\n      tag_429\n        /* \"#utility.yul\":17008:17010   */\n      0x17\n        /* \"#utility.yul\":17003:17006   */\n      dup4\n        /* \"#utility.yul\":16944:17011   */\n      tag_235\n      jump\t// in\n    tag_429:\n        /* \"#utility.yul\":16937:17011   */\n      swap2\n      pop\n        /* \"#utility.yul\":17020:17113   */\n      tag_430\n        /* \"#utility.yul\":17109:17112   */\n      dup3\n        /* \"#utility.yul\":17020:17113   */\n      tag_241\n      jump\t// in\n    tag_430:\n        /* \"#utility.yul\":17138:17140   */\n      0x20\n        /* \"#utility.yul\":17133:17136   */\n      dup3\n        /* \"#utility.yul\":17129:17141   */\n      add\n        /* \"#utility.yul\":17122:17141   */\n      swap1\n      pop\n        /* \"#utility.yul\":16781:17147   */\n      swap2\n      swap1\n      pop\n      jump\t// out\n        /* \"#utility.yul\":17153:17572   */\n    tag_72:\n        /* \"#utility.yul\":17319:17323   */\n      0x00\n        /* \"#utility.yul\":17357:17359   */\n      0x20\n        /* \"#utility.yul\":17346:17355   */\n      dup3\n        /* \"#utility.yul\":17342:17360   */\n      add\n        /* \"#utility.yul\":17334:17360   */\n      swap1\n      pop\n        /* \"#utility.yul\":17406:17415   */\n      dup2\n        /* \"#utility.yul\":17400:17404   */\n      dup2\n        /* \"#utility.yul\":17396:17416   */\n      sub\n        /* \"#utility.yul\":17392:17393   */\n      0x00\n        /* \"#utility.yul\":17381:17390   */\n      dup4\n        /* \"#utility.yul\":17377:17394   */\n      add\n        /* \"#utility.yul\":17370:17417   */\n      mstore\n        /* \"#utility.yul\":17434:17565   */\n      tag_432\n        /* \"#utility.yul\":17560:17564   */\n      dup2\n        /* \"#utility.yul\":17434:17565   */\n      tag_242\n      jump\t// in\n    tag_432:\n        /* \"#utility.yul\":17426:17565   */\n      swap1\n      pop\n        /* \"#utility.yul\":17153:17572   */\n      swap2\n      swap1\n      pop\n      jump\t// out\n        /* \"#utility.yul\":17578:17759   */\n    tag_243:\n        /* \"#utility.yul\":17718:17751   */\n      0x557365726e616d65206e6f6e2070756f27206573736572652076756f746f2e00\n        /* \"#utility.yul\":17714:17715   */\n      0x00\n        /* \"#utility.yul\":17706:17712   */\n      dup3\n        /* \"#utility.yul\":17702:17716   */\n      add\n        /* \"#utility.yul\":17695:17752   */\n      mstore\n        /* \"#utility.yul\":17578:17759   */\n      pop\n      jump\t// out\n        /* \"#utility.yul\":17765:18131   */\n    tag_244:\n        /* \"#utility.yul\":17907:17910   */\n      0x00\n        /* \"#utility.yul\":17928:17995   */\n      tag_435\n        /* \"#utility.yul\":17992:17994   */\n      0x1f\n        /* \"#utility.yul\":17987:17990   */\n      dup4\n        /* \"#utility.yul\":17928:17995   */\n      tag_235\n      jump\t// in\n    tag_435:\n        /* \"#utility.yul\":17921:17995   */\n      swap2\n      pop\n        /* \"#utility.yul\":18004:18097   */\n      tag_436\n        /* \"#utility.yul\":18093:18096   */\n      dup3\n        /* \"#utility.yul\":18004:18097   */\n      tag_243\n      jump\t// in\n    tag_436:\n        /* \"#utility.yul\":18122:18124   */\n      0x20\n        /* \"#utility.yul\":18117:18120   */\n      dup3\n        /* \"#utility.yul\":18113:18125   */\n      add\n        /* \"#utility.yul\":18106:18125   */\n      swap1\n      pop\n        /* \"#utility.yul\":17765:18131   */\n      swap2\n      swap1\n      pop\n      jump\t// out\n        /* \"#utility.yul\":18137:18556   */\n    tag_75:\n        /* \"#utility.yul\":18303:18307   */\n      0x00\n        /* \"#utility.yul\":18341:18343   */\n      0x20\n        /* \"#utility.yul\":18330:18339   */\n      dup3\n        /* \"#utility.yul\":18326:18344   */\n      add\n        /* \"#utility.yul\":18318:18344   */\n      swap1\n      pop\n        /* \"#utility.yul\":18390:18399   */\n      dup2\n        /* \"#utility.yul\":18384:18388   */\n      dup2\n        /* \"#utility.yul\":18380:18400   */\n      sub\n        /* \"#utility.yul\":18376:18377   */\n      0x00\n        /* \"#utility.yul\":18365:18374   */\n      dup4\n        /* \"#utility.yul\":18361:18378   */\n      add\n        /* \"#utility.yul\":18354:18401   */\n      mstore\n        /* \"#utility.yul\":18418:18549   */\n      tag_438\n        /* \"#utility.yul\":18544:18548   */\n      dup2\n        /* \"#utility.yul\":18418:18549   */\n      tag_244\n      jump\t// in\n    tag_438:\n        /* \"#utility.yul\":18410:18549   */\n      swap1\n      pop\n        /* \"#utility.yul\":18137:18556   */\n      swap2\n      swap1\n      pop\n      jump\t// out\n        /* \"#utility.yul\":18562:18742   */\n    tag_245:\n        /* \"#utility.yul\":18610:18687   */\n      0x4e487b7100000000000000000000000000000000000000000000000000000000\n        /* \"#utility.yul\":18607:18608   */\n      0x00\n        /* \"#utility.yul\":18600:18688   */\n      mstore\n        /* \"#utility.yul\":18707:18711   */\n      0x22\n        /* \"#utility.yul\":18704:18705   */\n      0x04\n        /* \"#utility.yul\":18697:18712   */\n      mstore\n        /* \"#utility.yul\":18731:18735   */\n      0x24\n        /* \"#utility.yul\":18728:18729   */\n      0x00\n        /* \"#utility.yul\":18721:18736   */\n      revert\n        /* \"#utility.yul\":18748:19068   */\n    tag_89:\n        /* \"#utility.yul\":18792:18798   */\n      0x00\n        /* \"#utility.yul\":18829:18830   */\n      0x02\n        /* \"#utility.yul\":18823:18827   */\n      dup3\n        /* \"#utility.yul\":18819:18831   */\n      div\n        /* \"#utility.yul\":18809:18831   */\n      swap1\n      pop\n        /* \"#utility.yul\":18876:18877   */\n      0x01\n        /* \"#utility.yul\":18870:18874   */\n      dup3\n        /* \"#utility.yul\":18866:18878   */\n      and\n        /* \"#utility.yul\":18897:18915   */\n      dup1\n        /* \"#utility.yul\":18887:18968   */\n      tag_441\n      jumpi\n        /* \"#utility.yul\":18953:18957   */\n      0x7f\n        /* \"#utility.yul\":18945:18951   */\n      dup3\n        /* \"#utility.yul\":18941:18958   */\n      and\n        /* \"#utility.yul\":18931:18958   */\n      swap2\n      pop\n        /* \"#utility.yul\":18887:18968   */\n    tag_441:\n        /* \"#utility.yul\":19015:19017   */\n      0x20\n        /* \"#utility.yul\":19007:19013   */\n      dup3\n        /* \"#utility.yul\":19004:19018   */\n      lt\n        /* \"#utility.yul\":18984:19002   */\n      dup2\n        /* \"#utility.yul\":18981:19019   */\n      sub\n        /* \"#utility.yul\":18978:19062   */\n      tag_442\n      jumpi\n        /* \"#utility.yul\":19034:19052   */\n      tag_443\n      tag_245\n      jump\t// in\n    tag_443:\n        /* \"#utility.yul\":18978:19062   */\n    tag_442:\n        /* \"#utility.yul\":18799:19068   */\n      pop\n        /* \"#utility.yul\":18748:19068   */\n      swap2\n      swap1\n      pop\n      jump\t// out\n        /* \"#utility.yul\":19074:19215   */\n    tag_246:\n        /* \"#utility.yul\":19123:19127   */\n      0x00\n        /* \"#utility.yul\":19146:19149   */\n      dup2\n        /* \"#utility.yul\":19138:19149   */\n      swap1\n      pop\n        /* \"#utility.yul\":19169:19172   */\n      dup2\n        /* \"#utility.yul\":19166:19167   */\n      0x00\n        /* \"#utility.yul\":19159:19173   */\n      mstore\n        /* \"#utility.yul\":19203:19207   */\n      0x20\n        /* \"#utility.yul\":19200:19201   */\n      0x00\n        /* \"#utility.yul\":19190:19208   */\n      keccak256\n        /* \"#utility.yul\":19182:19208   */\n      swap1\n      pop\n        /* \"#utility.yul\":19074:19215   */\n      swap2\n      swap1\n      pop\n      jump\t// out\n        /* \"#utility.yul\":19221:19314   */\n    tag_247:\n        /* \"#utility.yul\":19258:19264   */\n      0x00\n        /* \"#utility.yul\":19305:19307   */\n      0x20\n        /* \"#utility.yul\":19300:19302   */\n      0x1f\n        /* \"#utility.yul\":19293:19298   */\n      dup4\n        /* \"#utility.yul\":19289:19303   */\n      add\n        /* \"#utility.yul\":19285:19308   */\n      div\n        /* \"#utility.yul\":19275:19308   */\n      swap1\n      pop\n        /* \"#utility.yul\":19221:19314   */\n      swap2\n      swap1\n      pop\n      jump\t// out\n        /* \"#utility.yul\":19320:19427   */\n    tag_248:\n        /* \"#utility.yul\":19364:19372   */\n      0x00\n        /* \"#utility.yul\":19414:19419   */\n      dup3\n        /* \"#utility.yul\":19408:19412   */\n      dup3\n        /* \"#utility.yul\":19404:19420   */\n      shl\n        /* \"#utility.yul\":19383:19420   */\n      swap1\n      pop\n        /* \"#utility.yul\":19320:19427   */\n      swap3\n      swap2\n      pop\n      pop\n      jump\t// out\n        /* \"#utility.yul\":19433:19826   */\n    tag_249:\n        /* \"#utility.yul\":19502:19508   */\n      0x00\n        /* \"#utility.yul\":19552:19553   */\n      0x08\n        /* \"#utility.yul\":19540:19550   */\n      dup4\n        /* \"#utility.yul\":19536:19554   */\n      mul\n        /* \"#utility.yul\":19575:19672   */\n      tag_448\n        /* \"#utility.yul\":19605:19671   */\n      0xffffffffffffffffffffffffffffffffffffffffffffffffffffffffffffffff\n        /* \"#utility.yul\":19594:19603   */\n      dup3\n        /* \"#utility.yul\":19575:19672   */\n      tag_248\n      jump\t// in\n    tag_448:\n        /* \"#utility.yul\":19693:19732   */\n      tag_449\n        /* \"#utility.yul\":19723:19731   */\n      dup7\n        /* \"#utility.yul\":19712:19721   */\n      dup4\n        /* \"#utility.yul\":19693:19732   */\n      tag_248\n      jump\t// in\n    tag_449:\n        /* \"#utility.yul\":19681:19732   */\n      swap6\n      pop\n        /* \"#utility.yul\":19765:19769   */\n      dup1\n        /* \"#utility.yul\":19761:19770   */\n      not\n        /* \"#utility.yul\":19754:19759   */\n      dup5\n        /* \"#utility.yul\":19750:19771   */\n      and\n        /* \"#utility.yul\":19741:19771   */\n      swap4\n      pop\n        /* \"#utility.yul\":19814:19818   */\n      dup1\n        /* \"#utility.yul\":19804:19812   */\n      dup7\n        /* \"#utility.yul\":19800:19819   */\n      and\n        /* \"#utility.yul\":19793:19798   */\n      dup5\n        /* \"#utility.yul\":19790:19820   */\n      or\n        /* \"#utility.yul\":19780:19820   */\n      swap3\n      pop\n        /* \"#utility.yul\":19509:19826   */\n      pop\n      pop\n        /* \"#utility.yul\":19433:19826   */\n      swap4\n      swap3\n      pop\n      pop\n      pop\n      jump\t// out\n        /* \"#utility.yul\":19832:19892   */\n    tag_250:\n        /* \"#utility.yul\":19860:19863   */\n      0x00\n        /* \"#utility.yul\":19881:19886   */\n      dup2\n        /* \"#utility.yul\":19874:19886   */\n      swap1\n      pop\n        /* \"#utility.yul\":19832:19892   */\n      swap2\n      swap1\n      pop\n      jump\t// out\n        /* \"#utility.yul\":19898:20040   */\n    tag_251:\n        /* \"#utility.yul\":19948:19957   */\n      0x00\n        /* \"#utility.yul\":19981:20034   */\n      tag_452\n        /* \"#utility.yul\":19999:20033   */\n      tag_453\n        /* \"#utility.yul\":20008:20032   */\n      tag_454\n        /* \"#utility.yul\":20026:20031   */\n      dup5\n        /* \"#utility.yul\":20008:20032   */\n      tag_198\n      jump\t// in\n    tag_454:\n        /* \"#utility.yul\":19999:20033   */\n      tag_250\n      jump\t// in\n    tag_453:\n        /* \"#utility.yul\":19981:20034   */\n      tag_198\n      jump\t// in\n    tag_452:\n        /* \"#utility.yul\":19968:20034   */\n      swap1\n      pop\n        /* \"#utility.yul\":19898:20040   */\n      swap2\n      swap1\n      pop\n      jump\t// out\n        /* \"#utility.yul\":20046:20121   */\n    tag_252:\n        /* \"#utility.yul\":20089:20092   */\n      0x00\n        /* \"#utility.yul\":20110:20115   */\n      dup2\n        /* \"#utility.yul\":20103:20115   */\n      swap1\n      pop\n        /* \"#utility.yul\":20046:20121   */\n      swap2\n      swap1\n      pop\n      jump\t// out\n        /* \"#utility.yul\":20127:20396   */\n    tag_253:\n        /* \"#utility.yul\":20237:20276   */\n      tag_457\n        /* \"#utility.yul\":20268:20275   */\n      dup4\n        /* \"#utility.yul\":20237:20276   */\n      tag_251\n      jump\t// in\n    tag_457:\n        /* \"#utility.yul\":20298:20389   */\n      tag_458\n        /* \"#utility.yul\":20347:20388   */\n      tag_459\n        /* \"#utility.yul\":20371:20387   */\n      dup3\n        /* \"#utility.yul\":20347:20388   */\n      tag_252\n      jump\t// in\n    tag_459:\n        /* \"#utility.yul\":20339:20345   */\n      dup5\n        /* \"#utility.yul\":20332:20336   */\n      dup5\n        /* \"#utility.yul\":20326:20337   */\n      sload\n        /* \"#utility.yul\":20298:20389   */\n      tag_249\n      jump\t// in\n    tag_458:\n        /* \"#utility.yul\":20292:20296   */\n      dup3\n        /* \"#utility.yul\":20285:20390   */\n      sstore\n        /* \"#utility.yul\":20203:20396   */\n      pop\n        /* \"#utility.yul\":20127:20396   */\n      pop\n      pop\n      pop\n      jump\t// out\n        /* \"#utility.yul\":20402:20475   */\n    tag_254:\n        /* \"#utility.yul\":20447:20450   */\n      0x00\n        /* \"#utility.yul\":20468:20469   */\n      0x00\n        /* \"#utility.yul\":20461:20469   */\n      swap1\n      pop\n        /* \"#utility.yul\":20402:20475   */\n      swap1\n      jump\t// out\n        /* \"#utility.yul\":20481:20670   */\n    tag_255:\n        /* \"#utility.yul\":20558:20590   */\n      tag_462\n      tag_254\n      jump\t// in\n    tag_462:\n        /* \"#utility.yul\":20599:20664   */\n      tag_463\n        /* \"#utility.yul\":20657:20663   */\n      dup2\n        /* \"#utility.yul\":20649:20655   */\n      dup5\n        /* \"#utility.yul\":20643:20647   */\n      dup5\n        /* \"#utility.yul\":20599:20664   */\n      tag_253\n      jump\t// in\n    tag_463:\n        /* \"#utility.yul\":20534:20670   */\n      pop\n        /* \"#utility.yul\":20481:20670   */\n      pop\n      pop\n      jump\t// out\n        /* \"#utility.yul\":20676:20862   */\n    tag_256:\n        /* \"#utility.yul\":20736:20856   */\n    tag_465:\n        /* \"#utility.yul\":20753:20756   */\n      dup2\n        /* \"#utility.yul\":20746:20751   */\n      dup2\n        /* \"#utility.yul\":20743:20757   */\n      lt\n        /* \"#utility.yul\":20736:20856   */\n      iszero\n      tag_467\n      jumpi\n        /* \"#utility.yul\":20807:20846   */\n      tag_468\n        /* \"#utility.yul\":20844:20845   */\n      0x00\n        /* \"#utility.yul\":20837:20842   */\n      dup3\n        /* \"#utility.yul\":20807:20846   */\n      tag_255\n      jump\t// in\n    tag_468:\n        /* \"#utility.yul\":20780:20781   */\n      0x01\n        /* \"#utility.yul\":20773:20778   */\n      dup2\n        /* \"#utility.yul\":20769:20782   */\n      add\n        /* \"#utility.yul\":20760:20782   */\n      swap1\n      pop\n        /* \"#utility.yul\":20736:20856   */\n      jump(tag_465)\n    tag_467:\n        /* \"#utility.yul\":20676:20862   */\n      pop\n      pop\n      jump\t// out\n        /* \"#utility.yul\":20868:21411   */\n    tag_257:\n        /* \"#utility.yul\":20969:20971   */\n      0x1f\n        /* \"#utility.yul\":20964:20967   */\n      dup3\n        /* \"#utility.yul\":20961:20972   */\n      gt\n        /* \"#utility.yul\":20958:21404   */\n      iszero\n      tag_470\n      jumpi\n        /* \"#utility.yul\":21003:21041   */\n      tag_471\n        /* \"#utility.yul\":21035:21040   */\n      dup2\n        /* \"#utility.yul\":21003:21041   */\n      tag_246\n      jump\t// in\n    tag_471:\n        /* \"#utility.yul\":21087:21116   */\n      tag_472\n        /* \"#utility.yul\":21105:21115   */\n      dup5\n        /* \"#utility.yul\":21087:21116   */\n      tag_247\n      jump\t// in\n    tag_472:\n        /* \"#utility.yul\":21077:21085   */\n      dup2\n        /* \"#utility.yul\":21073:21117   */\n      add\n        /* \"#utility.yul\":21270:21272   */\n      0x20\n        /* \"#utility.yul\":21258:21268   */\n      dup6\n        /* \"#utility.yul\":21255:21273   */\n      lt\n        /* \"#utility.yul\":21252:21301   */\n      iszero\n      tag_473\n      jumpi\n        /* \"#utility.yul\":21291:21299   */\n      dup2\n        /* \"#utility.yul\":21276:21299   */\n      swap1\n      pop\n        /* \"#utility.yul\":21252:21301   */\n    tag_473:\n        /* \"#utility.yul\":21314:21394   */\n      tag_474\n        /* \"#utility.yul\":21370:21392   */\n      tag_475\n        /* \"#utility.yul\":21388:21391   */\n      dup6\n        /* \"#utility.yul\":21370:21392   */\n      tag_247\n      jump\t// in\n    tag_475:\n        /* \"#utility.yul\":21360:21368   */\n      dup4\n        /* \"#utility.yul\":21356:21393   */\n      add\n        /* \"#utility.yul\":21343:21354   */\n      dup3\n        /* \"#utility.yul\":21314:21394   */\n      tag_256\n      jump\t// in\n    tag_474:\n        /* \"#utility.yul\":20973:21404   */\n      pop\n      pop\n        /* \"#utility.yul\":20958:21404   */\n    tag_470:\n        /* \"#utility.yul\":20868:21411   */\n      pop\n      pop\n      pop\n      jump\t// out\n        /* \"#utility.yul\":21417:21534   */\n    tag_258:\n        /* \"#utility.yul\":21471:21479   */\n      0x00\n        /* \"#utility.yul\":21521:21526   */\n      dup3\n        /* \"#utility.yul\":21515:21519   */\n      dup3\n        /* \"#utility.yul\":21511:21527   */\n      shr\n        /* \"#utility.yul\":21490:21527   */\n      swap1\n      pop\n        /* \"#utility.yul\":21417:21534   */\n      swap3\n      swap2\n      pop\n      pop\n      jump\t// out\n        /* \"#utility.yul\":21540:21709   */\n    tag_259:\n        /* \"#utility.yul\":21584:21590   */\n      0x00\n        /* \"#utility.yul\":21617:21668   */\n      tag_478\n        /* \"#utility.yul\":21665:21666   */\n      0x00\n        /* \"#utility.yul\":21661:21667   */\n      not\n        /* \"#utility.yul\":21653:21658   */\n      dup5\n        /* \"#utility.yul\":21650:21651   */\n      0x08\n        /* \"#utility.yul\":21646:21659   */\n      mul\n        /* \"#utility.yul\":21617:21668   */\n      tag_258\n      jump\t// in\n    tag_478:\n        /* \"#utility.yul\":21613:21669   */\n      not\n        /* \"#utility.yul\":21698:21702   */\n      dup1\n        /* \"#utility.yul\":21692:21696   */\n      dup4\n        /* \"#utility.yul\":21688:21703   */\n      and\n        /* \"#utility.yul\":21678:21703   */\n      swap2\n      pop\n        /* \"#utility.yul\":21591:21709   */\n      pop\n        /* \"#utility.yul\":21540:21709   */\n      swap3\n      swap2\n      pop\n      pop\n      jump\t// out\n        /* \"#utility.yul\":21714:22009   */\n    tag_260:\n        /* \"#utility.yul\":21790:21794   */\n      0x00\n        /* \"#utility.yul\":21936:21965   */\n      tag_480\n        /* \"#utility.yul\":21961:21964   */\n      dup4\n        /* \"#utility.yul\":21955:21959   */\n      dup4\n        /* \"#utility.yul\":21936:21965   */\n      tag_259\n      jump\t// in\n    tag_480:\n        /* \"#utility.yul\":21928:21965   */\n      swap2\n      pop\n        /* \"#utility.yul\":21998:22001   */\n      dup3\n        /* \"#utility.yul\":21995:21996   */\n      0x02\n        /* \"#utility.yul\":21991:22002   */\n      mul\n        /* \"#utility.yul\":21985:21989   */\n      dup3\n        /* \"#utility.yul\":21982:22003   */\n      or\n        /* \"#utility.yul\":21974:22003   */\n      swap1\n      pop\n        /* \"#utility.yul\":21714:22009   */\n      swap3\n      swap2\n      pop\n      pop\n      jump\t// out\n        /* \"#utility.yul\":22014:23409   */\n    tag_77:\n        /* \"#utility.yul\":22131:22168   */\n      tag_482\n        /* \"#utility.yul\":22164:22167   */\n      dup3\n        /* \"#utility.yul\":22131:22168   */\n      tag_217\n      jump\t// in\n    tag_482:\n        /* \"#utility.yul\":22233:22251   */\n      0xffffffffffffffff\n        /* \"#utility.yul\":22225:22231   */\n      dup2\n        /* \"#utility.yul\":22222:22252   */\n      gt\n        /* \"#utility.yul\":22219:22275   */\n      iszero\n      tag_483\n      jumpi\n        /* \"#utility.yul\":22255:22273   */\n      tag_484\n      tag_104\n      jump\t// in\n    tag_484:\n        /* \"#utility.yul\":22219:22275   */\n    tag_483:\n        /* \"#utility.yul\":22299:22337   */\n      tag_485\n        /* \"#utility.yul\":22331:22335   */\n      dup3\n        /* \"#utility.yul\":22325:22336   */\n      sload\n        /* \"#utility.yul\":22299:22337   */\n      tag_89\n      jump\t// in\n    tag_485:\n        /* \"#utility.yul\":22384:22451   */\n      tag_486\n        /* \"#utility.yul\":22444:22450   */\n      dup3\n        /* \"#utility.yul\":22436:22442   */\n      dup3\n        /* \"#utility.yul\":22430:22434   */\n      dup6\n        /* \"#utility.yul\":22384:22451   */\n      tag_257\n      jump\t// in\n    tag_486:\n        /* \"#utility.yul\":22478:22479   */\n      0x00\n        /* \"#utility.yul\":22502:22506   */\n      0x20\n        /* \"#utility.yul\":22489:22506   */\n      swap1\n      pop\n        /* \"#utility.yul\":22534:22536   */\n      0x1f\n        /* \"#utility.yul\":22526:22532   */\n      dup4\n        /* \"#utility.yul\":22523:22537   */\n      gt\n        /* \"#utility.yul\":22551:22552   */\n      0x01\n        /* \"#utility.yul\":22546:23164   */\n      dup2\n      eq\n      tag_488\n      jumpi\n        /* \"#utility.yul\":23208:23209   */\n      0x00\n        /* \"#utility.yul\":23225:23231   */\n      dup5\n        /* \"#utility.yul\":23222:23299   */\n      iszero\n      tag_489\n      jumpi\n        /* \"#utility.yul\":23274:23283   */\n      dup3\n        /* \"#utility.yul\":23269:23272   */\n      dup8\n        /* \"#utility.yul\":23265:23284   */\n      add\n        /* \"#utility.yul\":23259:23285   */\n      mload\n        /* \"#utility.yul\":23250:23285   */\n      swap1\n      pop\n        /* \"#utility.yul\":23222:23299   */\n    tag_489:\n        /* \"#utility.yul\":23325:23392   */\n      tag_490\n        /* \"#utility.yul\":23385:23391   */\n      dup6\n        /* \"#utility.yul\":23378:23383   */\n      dup3\n        /* \"#utility.yul\":23325:23392   */\n      tag_260\n      jump\t// in\n    tag_490:\n        /* \"#utility.yul\":23319:23323   */\n      dup7\n        /* \"#utility.yul\":23312:23393   */\n      sstore\n        /* \"#utility.yul\":23181:23403   */\n      pop\n        /* \"#utility.yul\":22516:23403   */\n      jump(tag_487)\n        /* \"#utility.yul\":22546:23164   */\n    tag_488:\n        /* \"#utility.yul\":22598:22602   */\n      0x1f\n        /* \"#utility.yul\":22594:22603   */\n      not\n        /* \"#utility.yul\":22586:22592   */\n      dup5\n        /* \"#utility.yul\":22582:22604   */\n      and\n        /* \"#utility.yul\":22632:22669   */\n      tag_491\n        /* \"#utility.yul\":22664:22668   */\n      dup7\n        /* \"#utility.yul\":22632:22669   */\n      tag_246\n      jump\t// in\n    tag_491:\n        /* \"#utility.yul\":22691:22692   */\n      0x00\n        /* \"#utility.yul\":22705:22913   */\n    tag_492:\n        /* \"#utility.yul\":22719:22726   */\n      dup3\n        /* \"#utility.yul\":22716:22717   */\n      dup2\n        /* \"#utility.yul\":22713:22727   */\n      lt\n        /* \"#utility.yul\":22705:22913   */\n      iszero\n      tag_494\n      jumpi\n        /* \"#utility.yul\":22798:22807   */\n      dup5\n        /* \"#utility.yul\":22793:22796   */\n      dup10\n        /* \"#utility.yul\":22789:22808   */\n      add\n        /* \"#utility.yul\":22783:22809   */\n      mload\n        /* \"#utility.yul\":22775:22781   */\n      dup3\n        /* \"#utility.yul\":22768:22810   */\n      sstore\n        /* \"#utility.yul\":22849:22850   */\n      0x01\n        /* \"#utility.yul\":22841:22847   */\n      dup3\n        /* \"#utility.yul\":22837:22851   */\n      add\n        /* \"#utility.yul\":22827:22851   */\n      swap2\n      pop\n        /* \"#utility.yul\":22896:22898   */\n      0x20\n        /* \"#utility.yul\":22885:22894   */\n      dup6\n        /* \"#utility.yul\":22881:22899   */\n      add\n        /* \"#utility.yul\":22868:22899   */\n      swap5\n      pop\n        /* \"#utility.yul\":22742:22746   */\n      0x20\n        /* \"#utility.yul\":22739:22740   */\n      dup2\n        /* \"#utility.yul\":22735:22747   */\n      add\n        /* \"#utility.yul\":22730:22747   */\n      swap1\n      pop\n        /* \"#utility.yul\":22705:22913   */\n      jump(tag_492)\n    tag_494:\n        /* \"#utility.yul\":22941:22947   */\n      dup7\n        /* \"#utility.yul\":22932:22939   */\n      dup4\n        /* \"#utility.yul\":22929:22948   */\n      lt\n        /* \"#utility.yul\":22926:23105   */\n      iszero\n      tag_495\n      jumpi\n        /* \"#utility.yul\":22999:23008   */\n      dup5\n        /* \"#utility.yul\":22994:22997   */\n      dup10\n        /* \"#utility.yul\":22990:23009   */\n      add\n        /* \"#utility.yul\":22984:23010   */\n      mload\n        /* \"#utility.yul\":23042:23090   */\n      tag_496\n        /* \"#utility.yul\":23084:23088   */\n      0x1f\n        /* \"#utility.yul\":23076:23082   */\n      dup10\n        /* \"#utility.yul\":23072:23089   */\n      and\n        /* \"#utility.yul\":23061:23070   */\n      dup3\n        /* \"#utility.yul\":23042:23090   */\n      tag_259\n      jump\t// in\n    tag_496:\n        /* \"#utility.yul\":23034:23040   */\n      dup4\n        /* \"#utility.yul\":23027:23091   */\n      sstore\n        /* \"#utility.yul\":22949:23105   */\n      pop\n        /* \"#utility.yul\":22926:23105   */\n    tag_495:\n        /* \"#utility.yul\":23151:23152   */\n      0x01\n        /* \"#utility.yul\":23147:23148   */\n      0x02\n        /* \"#utility.yul\":23139:23145   */\n      dup9\n        /* \"#utility.yul\":23135:23149   */\n      mul\n        /* \"#utility.yul\":23131:23153   */\n      add\n        /* \"#utility.yul\":23125:23129   */\n      dup9\n        /* \"#utility.yul\":23118:23154   */\n      sstore\n        /* \"#utility.yul\":22553:23164   */\n      pop\n      pop\n      pop\n        /* \"#utility.yul\":22516:23403   */\n    tag_487:\n      pop\n        /* \"#utility.yul\":22106:23409   */\n      pop\n      pop\n      pop\n        /* \"#utility.yul\":22014:23409   */\n      pop\n      pop\n      jump\t// out\n        /* \"#utility.yul\":23415:23728   */\n    tag_80:\n        /* \"#utility.yul\":23528:23532   */\n      0x00\n        /* \"#utility.yul\":23566:23568   */\n      0x20\n        /* \"#utility.yul\":23555:23564   */\n      dup3\n        /* \"#utility.yul\":23551:23569   */\n      add\n        /* \"#utility.yul\":23543:23569   */\n      swap1\n      pop\n        /* \"#utility.yul\":23615:23624   */\n      dup2\n        /* \"#utility.yul\":23609:23613   */\n      dup2\n        /* \"#utility.yul\":23605:23625   */\n      sub\n        /* \"#utility.yul\":23601:23602   */\n      0x00\n        /* \"#utility.yul\":23590:23599   */\n      dup4\n        /* \"#utility.yul\":23586:23603   */\n      add\n        /* \"#utility.yul\":23579:23626   */\n      mstore\n        /* \"#utility.yul\":23643:23721   */\n      tag_498\n        /* \"#utility.yul\":23716:23720   */\n      dup2\n        /* \"#utility.yul\":23707:23713   */\n      dup5\n        /* \"#utility.yul\":23643:23721   */\n      tag_236\n      jump\t// in\n    tag_498:\n        /* \"#utility.yul\":23635:23721   */\n      swap1\n      pop\n        /* \"#utility.yul\":23415:23728   */\n      swap3\n      swap2\n      pop\n      pop\n      jump\t// out\n        /* \"#utility.yul\":23734:23914   */\n    tag_261:\n        /* \"#utility.yul\":23782:23859   */\n      0x4e487b7100000000000000000000000000000000000000000000000000000000\n        /* \"#utility.yul\":23779:23780   */\n      0x00\n        /* \"#utility.yul\":23772:23860   */\n      mstore\n        /* \"#utility.yul\":23879:23883   */\n      0x11\n        /* \"#utility.yul\":23876:23877   */\n      0x04\n        /* \"#utility.yul\":23869:23884   */\n      mstore\n        /* \"#utility.yul\":23903:23907   */\n      0x24\n        /* \"#utility.yul\":23900:23901   */\n      0x00\n        /* \"#utility.yul\":23893:23908   */\n      revert\n        /* \"#utility.yul\":23920:24153   */\n    tag_100:\n        /* \"#utility.yul\":23959:23962   */\n      0x00\n        /* \"#utility.yul\":23982:24006   */\n      tag_501\n        /* \"#utility.yul\":24000:24005   */\n      dup3\n        /* \"#utility.yul\":23982:24006   */\n      tag_198\n      jump\t// in\n    tag_501:\n        /* \"#utility.yul\":23973:24006   */\n      swap2\n      pop\n        /* \"#utility.yul\":24028:24094   */\n      0xffffffffffffffffffffffffffffffffffffffffffffffffffffffffffffffff\n        /* \"#utility.yul\":24021:24026   */\n      dup3\n        /* \"#utility.yul\":24018:24095   */\n      sub\n        /* \"#utility.yul\":24015:24118   */\n      tag_502\n      jumpi\n        /* \"#utility.yul\":24098:24116   */\n      tag_503\n      tag_261\n      jump\t// in\n    tag_503:\n        /* \"#utility.yul\":24015:24118   */\n    tag_502:\n        /* \"#utility.yul\":24145:24146   */\n      0x01\n        /* \"#utility.yul\":24138:24143   */\n      dup3\n        /* \"#utility.yul\":24134:24147   */\n      add\n        /* \"#utility.yul\":24127:24147   */\n      swap1\n      pop\n        /* \"#utility.yul\":23920:24153   */\n      swap2\n      swap1\n      pop\n      jump\t// out\n        /* \"#utility.yul\":24159:24339   */\n    tag_112:\n        /* \"#utility.yul\":24207:24284   */\n      0x4e487b7100000000000000000000000000000000000000000000000000000000\n        /* \"#utility.yul\":24204:24205   */\n      0x00\n        /* \"#utility.yul\":24197:24285   */\n      mstore\n        /* \"#utility.yul\":24304:24308   */\n      0x32\n        /* \"#utility.yul\":24301:24302   */\n      0x04\n        /* \"#utility.yul\":24294:24309   */\n      mstore\n        /* \"#utility.yul\":24328:24332   */\n      0x24\n        /* \"#utility.yul\":24325:24326   */\n      0x00\n        /* \"#utility.yul\":24318:24333   */\n      revert\n        /* \"#utility.yul\":24345:24524   */\n    tag_262:\n        /* \"#utility.yul\":24485:24516   */\n      0x44657669207072696d612063726561726520756e206163636f756e742e000000\n        /* \"#utility.yul\":24481:24482   */\n      0x00\n        /* \"#utility.yul\":24473:24479   */\n      dup3\n        /* \"#utility.yul\":24469:24483   */\n      add\n        /* \"#utility.yul\":24462:24517   */\n      mstore\n        /* \"#utility.yul\":24345:24524   */\n      pop\n      jump\t// out\n        /* \"#utility.yul\":24530:24896   */\n    tag_263:\n        /* \"#utility.yul\":24672:24675   */\n      0x00\n        /* \"#utility.yul\":24693:24760   */\n      tag_507\n        /* \"#utility.yul\":24757:24759   */\n      0x1d\n        /* \"#utility.yul\":24752:24755   */\n      dup4\n        /* \"#utility.yul\":24693:24760   */\n      tag_235\n      jump\t// in\n    tag_507:\n        /* \"#utility.yul\":24686:24760   */\n      swap2\n      pop\n        /* \"#utility.yul\":24769:24862   */\n      tag_508\n        /* \"#utility.yul\":24858:24861   */\n      dup3\n        /* \"#utility.yul\":24769:24862   */\n      tag_262\n      jump\t// in\n    tag_508:\n        /* \"#utility.yul\":24887:24889   */\n      0x20\n        /* \"#utility.yul\":24882:24885   */\n      dup3\n        /* \"#utility.yul\":24878:24890   */\n      add\n        /* \"#utility.yul\":24871:24890   */\n      swap1\n      pop\n        /* \"#utility.yul\":24530:24896   */\n      swap2\n      swap1\n      pop\n      jump\t// out\n        /* \"#utility.yul\":24902:25321   */\n    tag_118:\n        /* \"#utility.yul\":25068:25072   */\n      0x00\n        /* \"#utility.yul\":25106:25108   */\n      0x20\n        /* \"#utility.yul\":25095:25104   */\n      dup3\n        /* \"#utility.yul\":25091:25109   */\n      add\n        /* \"#utility.yul\":25083:25109   */\n      swap1\n      pop\n        /* \"#utility.yul\":25155:25164   */\n      dup2\n        /* \"#utility.yul\":25149:25153   */\n      dup2\n        /* \"#utility.yul\":25145:25165   */\n      sub\n        /* \"#utility.yul\":25141:25142   */\n      0x00\n        /* \"#utility.yul\":25130:25139   */\n      dup4\n        /* \"#utility.yul\":25126:25143   */\n      add\n        /* \"#utility.yul\":25119:25166   */\n      mstore\n        /* \"#utility.yul\":25183:25314   */\n      tag_510\n        /* \"#utility.yul\":25309:25313   */\n      dup2\n        /* \"#utility.yul\":25183:25314   */\n      tag_263\n      jump\t// in\n    tag_510:\n        /* \"#utility.yul\":25175:25314   */\n      swap1\n      pop\n        /* \"#utility.yul\":24902:25321   */\n      swap2\n      swap1\n      pop\n      jump\t// out\n        /* \"#utility.yul\":25327:25509   */\n    tag_264:\n        /* \"#utility.yul\":25467:25501   */\n      0x496c207469746f6c6f206e6f6e2070756f27206573736572652076756f746f2e\n        /* \"#utility.yul\":25463:25464   */\n      0x00\n        /* \"#utility.yul\":25455:25461   */\n      dup3\n        /* \"#utility.yul\":25451:25465   */\n      add\n        /* \"#utility.yul\":25444:25502   */\n      mstore\n        /* \"#utility.yul\":25327:25509   */\n      pop\n      jump\t// out\n        /* \"#utility.yul\":25515:25881   */\n    tag_265:\n        /* \"#utility.yul\":25657:25660   */\n      0x00\n        /* \"#utility.yul\":25678:25745   */\n      tag_513\n        /* \"#utility.yul\":25742:25744   */\n      0x20\n        /* \"#utility.yul\":25737:25740   */\n      dup4\n        /* \"#utility.yul\":25678:25745   */\n      tag_235\n      jump\t// in\n    tag_513:\n        /* \"#utility.yul\":25671:25745   */\n      swap2\n      pop\n        /* \"#utility.yul\":25754:25847   */\n      tag_514\n        /* \"#utility.yul\":25843:25846   */\n      dup3\n        /* \"#utility.yul\":25754:25847   */\n      tag_264\n      jump\t// in\n    tag_514:\n        /* \"#utility.yul\":25872:25874   */\n      0x20\n        /* \"#utility.yul\":25867:25870   */\n      dup3\n        /* \"#utility.yul\":25863:25875   */\n      add\n        /* \"#utility.yul\":25856:25875   */\n      swap1\n      pop\n        /* \"#utility.yul\":25515:25881   */\n      swap2\n      swap1\n      pop\n      jump\t// out\n        /* \"#utility.yul\":25887:26306   */\n    tag_122:\n        /* \"#utility.yul\":26053:26057   */\n      0x00\n        /* \"#utility.yul\":26091:26093   */\n      0x20\n        /* \"#utility.yul\":26080:26089   */\n      dup3\n        /* \"#utility.yul\":26076:26094   */\n      add\n        /* \"#utility.yul\":26068:26094   */\n      swap1\n      pop\n        /* \"#utility.yul\":26140:26149   */\n      dup2\n        /* \"#utility.yul\":26134:26138   */\n      dup2\n        /* \"#utility.yul\":26130:26150   */\n      sub\n        /* \"#utility.yul\":26126:26127   */\n      0x00\n        /* \"#utility.yul\":26115:26124   */\n      dup4\n        /* \"#utility.yul\":26111:26128   */\n      add\n        /* \"#utility.yul\":26104:26151   */\n      mstore\n        /* \"#utility.yul\":26168:26299   */\n      tag_516\n        /* \"#utility.yul\":26294:26298   */\n      dup2\n        /* \"#utility.yul\":26168:26299   */\n      tag_265\n      jump\t// in\n    tag_516:\n        /* \"#utility.yul\":26160:26299   */\n      swap1\n      pop\n        /* \"#utility.yul\":25887:26306   */\n      swap2\n      swap1\n      pop\n      jump\t// out\n        /* \"#utility.yul\":26312:26534   */\n    tag_266:\n        /* \"#utility.yul\":26452:26486   */\n      0x496c20636f6e74656e75746f206e6f6e2070756f27206573736572652076756f\n        /* \"#utility.yul\":26448:26449   */\n      0x00\n        /* \"#utility.yul\":26440:26446   */\n      dup3\n        /* \"#utility.yul\":26436:26450   */\n      add\n        /* \"#utility.yul\":26429:26487   */\n      mstore\n        /* \"#utility.yul\":26521:26526   */\n      0x746f2e0000000000000000000000000000000000000000000000000000000000\n        /* \"#utility.yul\":26516:26518   */\n      0x20\n        /* \"#utility.yul\":26508:26514   */\n      dup3\n        /* \"#utility.yul\":26504:26519   */\n      add\n        /* \"#utility.yul\":26497:26527   */\n      mstore\n        /* \"#utility.yul\":26312:26534   */\n      pop\n      jump\t// out\n        /* \"#utility.yul\":26540:26906   */\n    tag_267:\n        /* \"#utility.yul\":26682:26685   */\n      0x00\n        /* \"#utility.yul\":26703:26770   */\n      tag_519\n        /* \"#utility.yul\":26767:26769   */\n      0x23\n        /* \"#utility.yul\":26762:26765   */\n      dup4\n        /* \"#utility.yul\":26703:26770   */\n      tag_235\n      jump\t// in\n    tag_519:\n        /* \"#utility.yul\":26696:26770   */\n      swap2\n      pop\n        /* \"#utility.yul\":26779:26872   */\n      tag_520\n        /* \"#utility.yul\":26868:26871   */\n      dup3\n        /* \"#utility.yul\":26779:26872   */\n      tag_266\n      jump\t// in\n    tag_520:\n        /* \"#utility.yul\":26897:26899   */\n      0x40\n        /* \"#utility.yul\":26892:26895   */\n      dup3\n        /* \"#utility.yul\":26888:26900   */\n      add\n        /* \"#utility.yul\":26881:26900   */\n      swap1\n      pop\n        /* \"#utility.yul\":26540:26906   */\n      swap2\n      swap1\n      pop\n      jump\t// out\n        /* \"#utility.yul\":26912:27331   */\n    tag_125:\n        /* \"#utility.yul\":27078:27082   */\n      0x00\n        /* \"#utility.yul\":27116:27118   */\n      0x20\n        /* \"#utility.yul\":27105:27114   */\n      dup3\n        /* \"#utility.yul\":27101:27119   */\n      add\n        /* \"#utility.yul\":27093:27119   */\n      swap1\n      pop\n        /* \"#utility.yul\":27165:27174   */\n      dup2\n        /* \"#utility.yul\":27159:27163   */\n      dup2\n        /* \"#utility.yul\":27155:27175   */\n      sub\n        /* \"#utility.yul\":27151:27152   */\n      0x00\n        /* \"#utility.yul\":27140:27149   */\n      dup4\n        /* \"#utility.yul\":27136:27153   */\n      add\n        /* \"#utility.yul\":27129:27176   */\n      mstore\n        /* \"#utility.yul\":27193:27324   */\n      tag_522\n        /* \"#utility.yul\":27319:27323   */\n      dup2\n        /* \"#utility.yul\":27193:27324   */\n      tag_267\n      jump\t// in\n    tag_522:\n        /* \"#utility.yul\":27185:27324   */\n      swap1\n      pop\n        /* \"#utility.yul\":26912:27331   */\n      swap2\n      swap1\n      pop\n      jump\t// out\n        /* \"#utility.yul\":27337:27558   */\n    tag_268:\n        /* \"#utility.yul\":27477:27511   */\n      0x4861692067696127206d6573736f206c696b6520612071756573746f20706f73\n        /* \"#utility.yul\":27473:27474   */\n      0x00\n        /* \"#utility.yul\":27465:27471   */\n      dup3\n        /* \"#utility.yul\":27461:27475   */\n      add\n        /* \"#utility.yul\":27454:27512   */\n      mstore\n        /* \"#utility.yul\":27546:27550   */\n      0x742e000000000000000000000000000000000000000000000000000000000000\n        /* \"#utility.yul\":27541:27543   */\n      0x20\n        /* \"#utility.yul\":27533:27539   */\n      dup3\n        /* \"#utility.yul\":27529:27544   */\n      add\n        /* \"#utility.yul\":27522:27551   */\n      mstore\n        /* \"#utility.yul\":27337:27558   */\n      pop\n      jump\t// out\n        /* \"#utility.yul\":27564:27930   */\n    tag_269:\n        /* \"#utility.yul\":27706:27709   */\n      0x00\n        /* \"#utility.yul\":27727:27794   */\n      tag_525\n        /* \"#utility.yul\":27791:27793   */\n      0x22\n        /* \"#utility.yul\":27786:27789   */\n      dup4\n        /* \"#utility.yul\":27727:27794   */\n      tag_235\n      jump\t// in\n    tag_525:\n        /* \"#utility.yul\":27720:27794   */\n      swap2\n      pop\n        /* \"#utility.yul\":27803:27896   */\n      tag_526\n        /* \"#utility.yul\":27892:27895   */\n      dup3\n        /* \"#utility.yul\":27803:27896   */\n      tag_268\n      jump\t// in\n    tag_526:\n        /* \"#utility.yul\":27921:27923   */\n      0x40\n        /* \"#utility.yul\":27916:27919   */\n      dup3\n        /* \"#utility.yul\":27912:27924   */\n      add\n        /* \"#utility.yul\":27905:27924   */\n      swap1\n      pop\n        /* \"#utility.yul\":27564:27930   */\n      swap2\n      swap1\n      pop\n      jump\t// out\n        /* \"#utility.yul\":27936:28355   */\n    tag_143:\n        /* \"#utility.yul\":28102:28106   */\n      0x00\n        /* \"#utility.yul\":28140:28142   */\n      0x20\n        /* \"#utility.yul\":28129:28138   */\n      dup3\n        /* \"#utility.yul\":28125:28143   */\n      add\n        /* \"#utility.yul\":28117:28143   */\n      swap1\n      pop\n        /* \"#utility.yul\":28189:28198   */\n      dup2\n        /* \"#utility.yul\":28183:28187   */\n      dup2\n        /* \"#utility.yul\":28179:28199   */\n      sub\n        /* \"#utility.yul\":28175:28176   */\n      0x00\n        /* \"#utility.yul\":28164:28173   */\n      dup4\n        /* \"#utility.yul\":28160:28177   */\n      add\n        /* \"#utility.yul\":28153:28200   */\n      mstore\n        /* \"#utility.yul\":28217:28348   */\n      tag_528\n        /* \"#utility.yul\":28343:28347   */\n      dup2\n        /* \"#utility.yul\":28217:28348   */\n      tag_269\n      jump\t// in\n    tag_528:\n        /* \"#utility.yul\":28209:28348   */\n      swap1\n      pop\n        /* \"#utility.yul\":27936:28355   */\n      swap2\n      swap1\n      pop\n      jump\t// out\n        /* \"#utility.yul\":28361:28582   */\n    tag_270:\n        /* \"#utility.yul\":28501:28535   */\n      0x496c20636f6d6d656e746f206e6f6e2070756f27206573736572652076756f74\n        /* \"#utility.yul\":28497:28498   */\n      0x00\n        /* \"#utility.yul\":28489:28495   */\n      dup3\n        /* \"#utility.yul\":28485:28499   */\n      add\n        /* \"#utility.yul\":28478:28536   */\n      mstore\n        /* \"#utility.yul\":28570:28574   */\n      0x6f2e000000000000000000000000000000000000000000000000000000000000\n        /* \"#utility.yul\":28565:28567   */\n      0x20\n        /* \"#utility.yul\":28557:28563   */\n      dup3\n        /* \"#utility.yul\":28553:28568   */\n      add\n        /* \"#utility.yul\":28546:28575   */\n      mstore\n        /* \"#utility.yul\":28361:28582   */\n      pop\n      jump\t// out\n        /* \"#utility.yul\":28588:28954   */\n    tag_271:\n        /* \"#utility.yul\":28730:28733   */\n      0x00\n        /* \"#utility.yul\":28751:28818   */\n      tag_531\n        /* \"#utility.yul\":28815:28817   */\n      0x22\n        /* \"#utility.yul\":28810:28813   */\n      dup4\n        /* \"#utility.yul\":28751:28818   */\n      tag_235\n      jump\t// in\n    tag_531:\n        /* \"#utility.yul\":28744:28818   */\n      swap2\n      pop\n        /* \"#utility.yul\":28827:28920   */\n      tag_532\n        /* \"#utility.yul\":28916:28919   */\n      dup3\n        /* \"#utility.yul\":28827:28920   */\n      tag_270\n      jump\t// in\n    tag_532:\n        /* \"#utility.yul\":28945:28947   */\n      0x40\n        /* \"#utility.yul\":28940:28943   */\n      dup3\n        /* \"#utility.yul\":28936:28948   */\n      add\n        /* \"#utility.yul\":28929:28948   */\n      swap1\n      pop\n        /* \"#utility.yul\":28588:28954   */\n      swap2\n      swap1\n      pop\n      jump\t// out\n        /* \"#utility.yul\":28960:29379   */\n    tag_168:\n        /* \"#utility.yul\":29126:29130   */\n      0x00\n        /* \"#utility.yul\":29164:29166   */\n      0x20\n        /* \"#utility.yul\":29153:29162   */\n      dup3\n        /* \"#utility.yul\":29149:29167   */\n      add\n        /* \"#utility.yul\":29141:29167   */\n      swap1\n      pop\n        /* \"#utility.yul\":29213:29222   */\n      dup2\n        /* \"#utility.yul\":29207:29211   */\n      dup2\n        /* \"#utility.yul\":29203:29223   */\n      sub\n        /* \"#utility.yul\":29199:29200   */\n      0x00\n        /* \"#utility.yul\":29188:29197   */\n      dup4\n        /* \"#utility.yul\":29184:29201   */\n      add\n        /* \"#utility.yul\":29177:29224   */\n      mstore\n        /* \"#utility.yul\":29241:29372   */\n      tag_534\n        /* \"#utility.yul\":29367:29371   */\n      dup2\n        /* \"#utility.yul\":29241:29372   */\n      tag_271\n      jump\t// in\n    tag_534:\n        /* \"#utility.yul\":29233:29372   */\n      swap1\n      pop\n        /* \"#utility.yul\":28960:29379   */\n      swap2\n      swap1\n      pop\n      jump\t// out\n        /* \"#utility.yul\":29385:29555   */\n    tag_272:\n        /* \"#utility.yul\":29525:29547   */\n      0x4163636f756e74206e6f6e2074726f7661746f2e000000000000000000000000\n        /* \"#utility.yul\":29521:29522   */\n      0x00\n        /* \"#utility.yul\":29513:29519   */\n      dup3\n        /* \"#utility.yul\":29509:29523   */\n      add\n        /* \"#utility.yul\":29502:29548   */\n      mstore\n        /* \"#utility.yul\":29385:29555   */\n      pop\n      jump\t// out\n        /* \"#utility.yul\":29561:29927   */\n    tag_273:\n        /* \"#utility.yul\":29703:29706   */\n      0x00\n        /* \"#utility.yul\":29724:29791   */\n      tag_537\n        /* \"#utility.yul\":29788:29790   */\n      0x14\n        /* \"#utility.yul\":29783:29786   */\n      dup4\n        /* \"#utility.yul\":29724:29791   */\n      tag_235\n      jump\t// in\n    tag_537:\n        /* \"#utility.yul\":29717:29791   */\n      swap2\n      pop\n        /* \"#utility.yul\":29800:29893   */\n      tag_538\n        /* \"#utility.yul\":29889:29892   */\n      dup3\n        /* \"#utility.yul\":29800:29893   */\n      tag_272\n      jump\t// in\n    tag_538:\n        /* \"#utility.yul\":29918:29920   */\n      0x20\n        /* \"#utility.yul\":29913:29916   */\n      dup3\n        /* \"#utility.yul\":29909:29921   */\n      add\n        /* \"#utility.yul\":29902:29921   */\n      swap1\n      pop\n        /* \"#utility.yul\":29561:29927   */\n      swap2\n      swap1\n      pop\n      jump\t// out\n        /* \"#utility.yul\":29933:30352   */\n    tag_184:\n        /* \"#utility.yul\":30099:30103   */\n      0x00\n        /* \"#utility.yul\":30137:30139   */\n      0x20\n        /* \"#utility.yul\":30126:30135   */\n      dup3\n        /* \"#utility.yul\":30122:30140   */\n      add\n        /* \"#utility.yul\":30114:30140   */\n      swap1\n      pop\n        /* \"#utility.yul\":30186:30195   */\n      dup2\n        /* \"#utility.yul\":30180:30184   */\n      dup2\n        /* \"#utility.yul\":30176:30196   */\n      sub\n        /* \"#utility.yul\":30172:30173   */\n      0x00\n        /* \"#utility.yul\":30161:30170   */\n      dup4\n        /* \"#utility.yul\":30157:30174   */\n      add\n        /* \"#utility.yul\":30150:30197   */\n      mstore\n        /* \"#utility.yul\":30214:30345   */\n      tag_540\n        /* \"#utility.yul\":30340:30344   */\n      dup2\n        /* \"#utility.yul\":30214:30345   */\n      tag_273\n      jump\t// in\n    tag_540:\n        /* \"#utility.yul\":30206:30345   */\n      swap1\n      pop\n        /* \"#utility.yul\":29933:30352   */\n      swap2\n      swap1\n      pop\n      jump\t// out\n\n    auxdata: 0xa2646970667358221220301a4a06aedf808b5f95807ddd57645a2b5cab757d8066a420b9b15ee486c9a864736f6c634300081e0033\n}\n",
				"bytecode": {
					"linkReferences": {},
					"object": "6080604052348015600e575f5ffd5b506126ac8061001c5f395ff3fe608060405234801561000f575f5ffd5b50600436106100a7575f3560e01c806347ef6de11161006f57806347ef6de11461014d578063725009d31461017d5780639fc226f414610199578063aa7e5683146101ce578063fa99654a146101ea578063fbcbc0f114610206576100a7565b8063094cd5ee146100ab57806319289287146100c757806323edf697146100e35780633056110014610113578063392338f514610131575b5f5ffd5b6100c560048036038101906100c09190611801565b610238565b005b6100e160048036038101906100dc9190611968565b610398565b005b6100fd60048036038101906100f89190611801565b6105d1565b60405161010a9190611bba565b60405180910390f35b61011b6107a2565b6040516101289190611c82565b60405180910390f35b61014b60048036038101906101469190611968565b6108d1565b005b61016760048036038101906101629190611ccc565b610bc1565b6040516101749190611c82565b60405180910390f35b61019760048036038101906101929190611801565b610c54565b005b6101b360048036038101906101ae9190611801565b610eae565b6040516101c596959493929190611d5d565b60405180910390f35b6101e860048036038101906101e39190611dca565b611115565b005b61020460048036038101906101ff9190611dca565b611394565b005b610220600480360381019061021b9190611ccc565b61152f565b60405161022f93929190611e24565b60405180910390f35b8060015f8281526020019081526020015f206006015f9054906101000a900460ff16610299576040517f08c379a000000000000000000000000000000000000000000000000000000000815260040161029090611eb1565b60405180910390fd5b813373ffffffffffffffffffffffffffffffffffffffff1660015f8381526020019081526020015f206001015f9054906101000a900473ffffffffffffffffffffffffffffffffffffffff1673ffffffffffffffffffffffffffffffffffffffff161461033b576040517f08c379a000000000000000000000000000000000000000000000000000000000815260040161033290611f19565b60405180910390fd5b5f60015f8581526020019081526020015f206006015f6101000a81548160ff021916908315150217905550827f32d67e2131cd025eb20e7256680e338dedbe17b28943a11681860a9271ad119d60405160405180910390a2505050565b5f5f3373ffffffffffffffffffffffffffffffffffffffff1673ffffffffffffffffffffffffffffffffffffffff1681526020019081526020015f206004015f9054906101000a900460ff1615610424576040517f08c379a000000000000000000000000000000000000000000000000000000000815260040161041b90611f81565b60405180910390fd5b5f825111610467576040517f08c379a000000000000000000000000000000000000000000000000000000000815260040161045e90611fe9565b60405180910390fd5b6040518060a001604052803373ffffffffffffffffffffffffffffffffffffffff168152602001838152602001828152602001428152602001600115158152505f5f3373ffffffffffffffffffffffffffffffffffffffff1673ffffffffffffffffffffffffffffffffffffffff1681526020019081526020015f205f820151815f015f6101000a81548173ffffffffffffffffffffffffffffffffffffffff021916908373ffffffffffffffffffffffffffffffffffffffff160217905550602082015181600101908161053c9190612204565b5060408201518160020190816105529190612204565b50606082015181600301556080820151816004015f6101000a81548160ff0219169083151502179055509050503373ffffffffffffffffffffffffffffffffffffffff167fb3202828e8e55b43ee1a77a1ee6ffbe19f0205767feb21e28cadd26390ff0501836040516105c591906122d3565b60405180910390a25050565b60608160015f8281526020019081526020015f206006015f9054906101000a900460ff16610634576040517f08c379a000000000000000000000000000000000000000000000000000000000815260040161062b90611eb1565b60405180910390fd5b60025f8481526020019081526020015f20805480602002602001604051908101604052809291908181526020015f905b82821015610796578382905f5260205f2090600502016040518060a00160405290815f8201548152602001600182015f9054906101000a900473ffffffffffffffffffffffffffffffffffffffff1673ffffffffffffffffffffffffffffffffffffffff1673ffffffffffffffffffffffffffffffffffffffff1681526020016002820180546106f390612034565b80601f016020809104026020016040519081016040528092919081815260200182805461071f90612034565b801561076a5780601f106107415761010080835404028352916020019161076a565b820191905f5260205f20905b81548152906001019060200180831161074d57829003601f168201915b505050505081526020016003820154815260200160048201548152505081526020019060010190610664565b50505050915050919050565b60605f5f90505f600190505b60055481116107ff5760015f8281526020019081526020015f206006015f9054906101000a900460ff16156107ec5781806107e890612320565b9250505b80806107f790612320565b9150506107ae565b505f8167ffffffffffffffff81111561081b5761081a611844565b5b6040519080825280602002602001820160405280156108495781602001602082028036833780820191505090505b5090505f5f90505f600190505b60055481116108c75760015f8281526020019081526020015f206006015f9054906101000a900460ff16156108b4578083838151811061089957610898612367565b5b60200260200101818152505081806108b090612320565b9250505b80806108bf90612320565b915050610856565b5081935050505090565b5f5f3373ffffffffffffffffffffffffffffffffffffffff1673ffffffffffffffffffffffffffffffffffffffff1681526020019081526020015f206004015f9054906101000a900460ff1661095c576040517f08c379a0000000000000000000000000000000000000000000000000000000008152600401610953906123de565b60405180910390fd5b5f82511161099f576040517f08c379a000000000000000000000000000000000000000000000000000000000815260040161099690612446565b60405180910390fd5b5f8151116109e2576040517f08c379a00000000000000000000000000000000000000000000000000000000081526004016109d9906124d4565b60405180910390fd5b60055f8154809291906109f490612320565b91905055505f60055490506040518060e001604052808281526020013373ffffffffffffffffffffffffffffffffffffffff1681526020018481526020018381526020015f81526020014281526020016001151581525060015f8381526020019081526020015f205f820151815f01556020820151816001015f6101000a81548173ffffffffffffffffffffffffffffffffffffffff021916908373ffffffffffffffffffffffffffffffffffffffff1602179055506040820151816002019081610abf9190612204565b506060820151816003019081610ad59190612204565b506080820151816004015560a0820151816005015560c0820151816006015f6101000a81548160ff02191690831515021790555090505060035f3373ffffffffffffffffffffffffffffffffffffffff1673ffffffffffffffffffffffffffffffffffffffff1681526020019081526020015f2081908060018154018082558091505060019003905f5260205f20015f90919091909150553373ffffffffffffffffffffffffffffffffffffffff16817f8e40a51278abe2f4b410c0a96ff0bdd024b22666ca334062bf72afd596984bd685604051610bb491906122d3565b60405180910390a3505050565b606060035f8373ffffffffffffffffffffffffffffffffffffffff1673ffffffffffffffffffffffffffffffffffffffff1681526020019081526020015f20805480602002602001604051908101604052809291908181526020018280548015610c4857602002820191905f5260205f20905b815481526020019060010190808311610c34575b50505050509050919050565b5f5f3373ffffffffffffffffffffffffffffffffffffffff1673ffffffffffffffffffffffffffffffffffffffff1681526020019081526020015f206004015f9054906101000a900460ff16610cdf576040517f08c379a0000000000000000000000000000000000000000000000000000000008152600401610cd6906123de565b60405180910390fd5b8060015f8281526020019081526020015f206006015f9054906101000a900460ff16610d40576040517f08c379a0000000000000000000000000000000000000000000000000000000008152600401610d3790611eb1565b60405180910390fd5b60045f8381526020019081526020015f205f3373ffffffffffffffffffffffffffffffffffffffff1673ffffffffffffffffffffffffffffffffffffffff1681526020019081526020015f205f9054906101000a900460ff1615610dd9576040517f08c379a0000000000000000000000000000000000000000000000000000000008152600401610dd090612562565b60405180910390fd5b600160045f8481526020019081526020015f205f3373ffffffffffffffffffffffffffffffffffffffff1673ffffffffffffffffffffffffffffffffffffffff1681526020019081526020015f205f6101000a81548160ff02191690831515021790555060015f8381526020019081526020015f206004015f815480929190610e6190612320565b91905055503373ffffffffffffffffffffffffffffffffffffffff16827fcf765d6f163c9b0d832e2a94f4c8e9bffd32a2c3ca5fdbb8cc67b5fe1441f41360405160405180910390a35050565b5f5f6060805f5f8660015f8281526020019081526020015f206006015f9054906101000a900460ff16610f16576040517f08c379a0000000000000000000000000000000000000000000000000000000008152600401610f0d90611eb1565b60405180910390fd5b5f60015f8a81526020019081526020015f206040518060e00160405290815f8201548152602001600182015f9054906101000a900473ffffffffffffffffffffffffffffffffffffffff1673ffffffffffffffffffffffffffffffffffffffff1673ffffffffffffffffffffffffffffffffffffffff168152602001600282018054610fa190612034565b80601f0160208091040260200160405190810160405280929190818152602001828054610fcd90612034565b80156110185780601f10610fef57610100808354040283529160200191611018565b820191905f5260205f20905b815481529060010190602001808311610ffb57829003601f168201915b5050505050815260200160038201805461103190612034565b80601f016020809104026020016040519081016040528092919081815260200182805461105d90612034565b80156110a85780601f1061107f576101008083540402835291602001916110a8565b820191905f5260205f20905b81548152906001019060200180831161108b57829003601f168201915b505050505081526020016004820154815260200160058201548152602001600682015f9054906101000a900460ff1615151515815250509050805f015181602001518260400151836060015184608001518560a00151975097509750975097509750505091939550919395565b5f5f3373ffffffffffffffffffffffffffffffffffffffff1673ffffffffffffffffffffffffffffffffffffffff1681526020019081526020015f206004015f9054906101000a900460ff166111a0576040517f08c379a0000000000000000000000000000000000000000000000000000000008152600401611197906123de565b60405180910390fd5b8160015f8281526020019081526020015f206006015f9054906101000a900460ff16611201576040517f08c379a00000000000000000000000000000000000000000000000000000000081526004016111f890611eb1565b60405180910390fd5b5f825111611244576040517f08c379a000000000000000000000000000000000000000000000000000000000815260040161123b906125f0565b60405180910390fd5b5f60025f8581526020019081526020015f2080549050905060025f8581526020019081526020015f206040518060a001604052808381526020013373ffffffffffffffffffffffffffffffffffffffff16815260200185815260200186815260200142815250908060018154018082558091505060019003905f5260205f2090600502015f909190919091505f820151815f01556020820151816001015f6101000a81548173ffffffffffffffffffffffffffffffffffffffff021916908373ffffffffffffffffffffffffffffffffffffffff16021790555060408201518160020190816113339190612204565b50606082015181600301556080820151816004015550503373ffffffffffffffffffffffffffffffffffffffff16847f1ae003d984a091dd98a7026587cd616a3d83f6a3059c28db1b36c6ea79a730f560405160405180910390a350505050565b8160015f8281526020019081526020015f206006015f9054906101000a900460ff166113f5576040517f08c379a00000000000000000000000000000000000000000000000000000000081526004016113ec90611eb1565b60405180910390fd5b823373ffffffffffffffffffffffffffffffffffffffff1660015f8381526020019081526020015f206001015f9054906101000a900473ffffffffffffffffffffffffffffffffffffffff1673ffffffffffffffffffffffffffffffffffffffff1614611497576040517f08c379a000000000000000000000000000000000000000000000000000000000815260040161148e90611f19565b60405180910390fd5b5f8351116114da576040517f08c379a00000000000000000000000000000000000000000000000000000000081526004016114d1906124d4565b60405180910390fd5b8260015f8681526020019081526020015f2060030190816114fb9190612204565b50837f6b028d8032a54c1f25d3bdf66fbab62942ed25cec9e26dc705778b12d6146b8a60405160405180910390a250505050565b6060805f5f5f8573ffffffffffffffffffffffffffffffffffffffff1673ffffffffffffffffffffffffffffffffffffffff1681526020019081526020015f206004015f9054906101000a900460ff166115be576040517f08c379a00000000000000000000000000000000000000000000000000000000081526004016115b590612658565b60405180910390fd5b5f5f5f8673ffffffffffffffffffffffffffffffffffffffff1673ffffffffffffffffffffffffffffffffffffffff1681526020019081526020015f206040518060a00160405290815f82015f9054906101000a900473ffffffffffffffffffffffffffffffffffffffff1673ffffffffffffffffffffffffffffffffffffffff1673ffffffffffffffffffffffffffffffffffffffff16815260200160018201805461166a90612034565b80601f016020809104026020016040519081016040528092919081815260200182805461169690612034565b80156116e15780601f106116b8576101008083540402835291602001916116e1565b820191905f5260205f20905b8154815290600101906020018083116116c457829003601f168201915b505050505081526020016002820180546116fa90612034565b80601f016020809104026020016040519081016040528092919081815260200182805461172690612034565b80156117715780601f1061174857610100808354040283529160200191611771565b820191905f5260205f20905b81548152906001019060200180831161175457829003601f168201915b5050505050815260200160038201548152602001600482015f9054906101000a900460ff1615151515815250509050806020015181604001518260600151935093509350509193909250565b5f604051905090565b5f5ffd5b5f5ffd5b5f819050919050565b6117e0816117ce565b81146117ea575f5ffd5b50565b5f813590506117fb816117d7565b92915050565b5f60208284031215611816576118156117c6565b5b5f611823848285016117ed565b91505092915050565b5f5ffd5b5f5ffd5b5f601f19601f8301169050919050565b7f4e487b71000000000000000000000000000000000000000000000000000000005f52604160045260245ffd5b61187a82611834565b810181811067ffffffffffffffff8211171561189957611898611844565b5b80604052505050565b5f6118ab6117bd565b90506118b78282611871565b919050565b5f67ffffffffffffffff8211156118d6576118d5611844565b5b6118df82611834565b9050602081019050919050565b828183375f83830152505050565b5f61190c611907846118bc565b6118a2565b90508281526020810184848401111561192857611927611830565b5b6119338482856118ec565b509392505050565b5f82601f83011261194f5761194e61182c565b5b813561195f8482602086016118fa565b91505092915050565b5f5f6040838503121561197e5761197d6117c6565b5b5f83013567ffffffffffffffff81111561199b5761199a6117ca565b5b6119a78582860161193b565b925050602083013567ffffffffffffffff8111156119c8576119c76117ca565b5b6119d48582860161193b565b9150509250929050565b5f81519050919050565b5f82825260208201905092915050565b5f819050602082019050919050565b611a10816117ce565b82525050565b5f73ffffffffffffffffffffffffffffffffffffffff82169050919050565b5f611a3f82611a16565b9050919050565b611a4f81611a35565b82525050565b5f81519050919050565b5f82825260208201905092915050565b8281835e5f83830152505050565b5f611a8782611a55565b611a918185611a5f565b9350611aa1818560208601611a6f565b611aaa81611834565b840191505092915050565b5f60a083015f830151611aca5f860182611a07565b506020830151611add6020860182611a46565b5060408301518482036040860152611af58282611a7d565b9150506060830151611b0a6060860182611a07565b506080830151611b1d6080860182611a07565b508091505092915050565b5f611b338383611ab5565b905092915050565b5f602082019050919050565b5f611b51826119de565b611b5b81856119e8565b935083602082028501611b6d856119f8565b805f5b85811015611ba85784840389528151611b898582611b28565b9450611b9483611b3b565b925060208a01995050600181019050611b70565b50829750879550505050505092915050565b5f6020820190508181035f830152611bd28184611b47565b905092915050565b5f81519050919050565b5f82825260208201905092915050565b5f819050602082019050919050565b5f611c0e8383611a07565b60208301905092915050565b5f602082019050919050565b5f611c3082611bda565b611c3a8185611be4565b9350611c4583611bf4565b805f5b83811015611c75578151611c5c8882611c03565b9750611c6783611c1a565b925050600181019050611c48565b5085935050505092915050565b5f6020820190508181035f830152611c9a8184611c26565b905092915050565b611cab81611a35565b8114611cb5575f5ffd5b50565b5f81359050611cc681611ca2565b92915050565b5f60208284031215611ce157611ce06117c6565b5b5f611cee84828501611cb8565b91505092915050565b611d00816117ce565b82525050565b611d0f81611a35565b82525050565b5f82825260208201905092915050565b5f611d2f82611a55565b611d398185611d15565b9350611d49818560208601611a6f565b611d5281611834565b840191505092915050565b5f60c082019050611d705f830189611cf7565b611d7d6020830188611d06565b8181036040830152611d8f8187611d25565b90508181036060830152611da38186611d25565b9050611db26080830185611cf7565b611dbf60a0830184611cf7565b979650505050505050565b5f5f60408385031215611de057611ddf6117c6565b5b5f611ded858286016117ed565b925050602083013567ffffffffffffffff811115611e0e57611e0d6117ca565b5b611e1a8582860161193b565b9150509250929050565b5f6060820190508181035f830152611e3c8186611d25565b90508181036020830152611e508185611d25565b9050611e5f6040830184611cf7565b949350505050565b7f506f7374206e6f6e2074726f7661746f2e0000000000000000000000000000005f82015250565b5f611e9b601183611d15565b9150611ea682611e67565b602082019050919050565b5f6020820190508181035f830152611ec881611e8f565b9050919050565b7f4e6f6e20736569206c276175746f72652064692071756573746f20706f73742e5f82015250565b5f611f03602083611d15565b9150611f0e82611ecf565b602082019050919050565b5f6020820190508181035f830152611f3081611ef7565b9050919050565b7f4163636f756e742067696127206573697374656e74652e0000000000000000005f82015250565b5f611f6b601783611d15565b9150611f7682611f37565b602082019050919050565b5f6020820190508181035f830152611f9881611f5f565b9050919050565b7f557365726e616d65206e6f6e2070756f27206573736572652076756f746f2e005f82015250565b5f611fd3601f83611d15565b9150611fde82611f9f565b602082019050919050565b5f6020820190508181035f83015261200081611fc7565b9050919050565b7f4e487b71000000000000000000000000000000000000000000000000000000005f52602260045260245ffd5b5f600282049050600182168061204b57607f821691505b60208210810361205e5761205d612007565b5b50919050565b5f819050815f5260205f209050919050565b5f6020601f8301049050919050565b5f82821b905092915050565b5f600883026120c07fffffffffffffffffffffffffffffffffffffffffffffffffffffffffffffffff82612085565b6120ca8683612085565b95508019841693508086168417925050509392505050565b5f819050919050565b5f6121056121006120fb846117ce565b6120e2565b6117ce565b9050919050565b5f819050919050565b61211e836120eb565b61213261212a8261210c565b848454612091565b825550505050565b5f5f905090565b61214961213a565b612154818484612115565b505050565b5b818110156121775761216c5f82612141565b60018101905061215a565b5050565b601f8211156121bc5761218d81612064565b61219684612076565b810160208510156121a5578190505b6121b96121b185612076565b830182612159565b50505b505050565b5f82821c905092915050565b5f6121dc5f19846008026121c1565b1980831691505092915050565b5f6121f483836121cd565b9150826002028217905092915050565b61220d82611a55565b67ffffffffffffffff81111561222657612225611844565b5b6122308254612034565b61223b82828561217b565b5f60209050601f83116001811461226c575f841561225a578287015190505b61226485826121e9565b8655506122cb565b601f19841661227a86612064565b5f5b828110156122a15784890151825560018201915060208501945060208101905061227c565b868310156122be57848901516122ba601f8916826121cd565b8355505b6001600288020188555050505b505050505050565b5f6020820190508181035f8301526122eb8184611d25565b905092915050565b7f4e487b71000000000000000000000000000000000000000000000000000000005f52601160045260245ffd5b5f61232a826117ce565b91507fffffffffffffffffffffffffffffffffffffffffffffffffffffffffffffffff820361235c5761235b6122f3565b5b600182019050919050565b7f4e487b71000000000000000000000000000000000000000000000000000000005f52603260045260245ffd5b7f44657669207072696d612063726561726520756e206163636f756e742e0000005f82015250565b5f6123c8601d83611d15565b91506123d382612394565b602082019050919050565b5f6020820190508181035f8301526123f5816123bc565b9050919050565b7f496c207469746f6c6f206e6f6e2070756f27206573736572652076756f746f2e5f82015250565b5f612430602083611d15565b915061243b826123fc565b602082019050919050565b5f6020820190508181035f83015261245d81612424565b9050919050565b7f496c20636f6e74656e75746f206e6f6e2070756f27206573736572652076756f5f8201527f746f2e0000000000000000000000000000000000000000000000000000000000602082015250565b5f6124be602383611d15565b91506124c982612464565b604082019050919050565b5f6020820190508181035f8301526124eb816124b2565b9050919050565b7f4861692067696127206d6573736f206c696b6520612071756573746f20706f735f8201527f742e000000000000000000000000000000000000000000000000000000000000602082015250565b5f61254c602283611d15565b9150612557826124f2565b604082019050919050565b5f6020820190508181035f83015261257981612540565b9050919050565b7f496c20636f6d6d656e746f206e6f6e2070756f27206573736572652076756f745f8201527f6f2e000000000000000000000000000000000000000000000000000000000000602082015250565b5f6125da602283611d15565b91506125e582612580565b604082019050919050565b5f6020820190508181035f830152612607816125ce565b9050919050565b7f4163636f756e74206e6f6e2074726f7661746f2e0000000000000000000000005f82015250565b5f612642601483611d15565b915061264d8261260e565b602082019050919050565b5f6020820190508181035f83015261266f81612636565b905091905056fea2646970667358221220301a4a06aedf808b5f95807ddd57645a2b5cab757d8066a420b9b15ee486c9a864736f6c634300081e0033",
					"opcodes": "PUSH1 0x80 PUSH1 0x40 MSTORE CALLVALUE DUP1 ISZERO PUSH1 0xE JUMPI PUSH0 PUSH0 REVERT JUMPDEST POP PUSH2 0x26AC DUP1 PUSH2 0x1C PUSH0 CODECOPY PUSH0 RETURN INVALID PUSH1 0x80 PUSH1 0x40 MSTORE CALLVALUE DUP1 ISZERO PUSH2 0xF JUMPI PUSH0 PUSH0 REVERT JUMPDEST POP PUSH1 0x4 CALLDATASIZE LT PUSH2 0xA7 JUMPI PUSH0 CALLDATALOAD PUSH1 0xE0 SHR DUP1 PUSH4 0x47EF6DE1 GT PUSH2 0x6F JUMPI DUP1 PUSH4 0x47EF6DE1 EQ PUSH2 0x14D JUMPI DUP1 PUSH4 0x725009D3 EQ PUSH2 0x17D JUMPI DUP1 PUSH4 0x9FC226F4 EQ PUSH2 0x199 JUMPI DUP1 PUSH4 0xAA7E5683 EQ PUSH2 0x1CE JUMPI DUP1 PUSH4 0xFA99654A EQ PUSH2 0x1EA JUMPI DUP1 PUSH4 0xFBCBC0F1 EQ PUSH2 0x206 JUMPI PUSH2 0xA7 JUMP JUMPDEST DUP1 PUSH4 0x94CD5EE EQ PUSH2 0xAB JUMPI DUP1 PUSH4 0x19289287 EQ PUSH2 0xC7 JUMPI DUP1 PUSH4 0x23EDF697 EQ PUSH2 0xE3 JUMPI DUP1 PUSH4 0x30561100 EQ PUSH2 0x113 JUMPI DUP1 PUSH4 0x392338F5 EQ PUSH2 0x131 JUMPI JUMPDEST PUSH0 PUSH0 REVERT JUMPDEST PUSH2 0xC5 PUSH1 0x4 DUP1 CALLDATASIZE SUB DUP2 ADD SWAP1 PUSH2 0xC0 SWAP2 SWAP1 PUSH2 0x1801 JUMP JUMPDEST PUSH2 0x238 JUMP JUMPDEST STOP JUMPDEST PUSH2 0xE1 PUSH1 0x4 DUP1 CALLDATASIZE SUB DUP2 ADD SWAP1 PUSH2 0xDC SWAP2 SWAP1 PUSH2 0x1968 JUMP JUMPDEST PUSH2 0x398 JUMP JUMPDEST STOP JUMPDEST PUSH2 0xFD PUSH1 0x4 DUP1 CALLDATASIZE SUB DUP2 ADD SWAP1 PUSH2 0xF8 SWAP2 SWAP1 PUSH2 0x1801 JUMP JUMPDEST PUSH2 0x5D1 JUMP JUMPDEST PUSH1 0x40 MLOAD PUSH2 0x10A SWAP2 SWAP1 PUSH2 0x1BBA JUMP JUMPDEST PUSH1 0x40 MLOAD DUP1 SWAP2 SUB SWAP1 RETURN JUMPDEST PUSH2 0x11B PUSH2 0x7A2 JUMP JUMPDEST PUSH1 0x40 MLOAD PUSH2 0x128 SWAP2 SWAP1 PUSH2 0x1C82 JUMP JUMPDEST PUSH1 0x40 MLOAD DUP1 SWAP2 SUB SWAP1 RETURN JUMPDEST PUSH2 0x14B PUSH1 0x4 DUP1 CALLDATASIZE SUB DUP2 ADD SWAP1 PUSH2 0x146 SWAP2 SWAP1 PUSH2 0x1968 JUMP JUMPDEST PUSH2 0x8D1 JUMP JUMPDEST STOP JUMPDEST PUSH2 0x167 PUSH1 0x4 DUP1 CALLDATASIZE SUB DUP2 ADD SWAP1 PUSH2 0x162 SWAP2 SWAP1 PUSH2 0x1CCC JUMP JUMPDEST PUSH2 0xBC1 JUMP JUMPDEST PUSH1 0x40 MLOAD PUSH2 0x174 SWAP2 SWAP1 PUSH2 0x1C82 JUMP JUMPDEST PUSH1 0x40 MLOAD DUP1 SWAP2 SUB SWAP1 RETURN JUMPDEST PUSH2 0x197 PUSH1 0x4 DUP1 CALLDATASIZE SUB DUP2 ADD SWAP1 PUSH2 0x192 SWAP2 SWAP1 PUSH2 0x1801 JUMP JUMPDEST PUSH2 0xC54 JUMP JUMPDEST STOP JUMPDEST PUSH2 0x1B3 PUSH1 0x4 DUP1 CALLDATASIZE SUB DUP2 ADD SWAP1 PUSH2 0x1AE SWAP2 SWAP1 PUSH2 0x1801 JUMP JUMPDEST PUSH2 0xEAE JUMP JUMPDEST PUSH1 0x40 MLOAD PUSH2 0x1C5 SWAP7 SWAP6 SWAP5 SWAP4 SWAP3 SWAP2 SWAP1 PUSH2 0x1D5D JUMP JUMPDEST PUSH1 0x40 MLOAD DUP1 SWAP2 SUB SWAP1 RETURN JUMPDEST PUSH2 0x1E8 PUSH1 0x4 DUP1 CALLDATASIZE SUB DUP2 ADD SWAP1 PUSH2 0x1E3 SWAP2 SWAP1 PUSH2 0x1DCA JUMP JUMPDEST PUSH2 0x1115 JUMP JUMPDEST STOP JUMPDEST PUSH2 0x204 PUSH1 0x4 DUP1 CALLDATASIZE SUB DUP2 ADD SWAP1 PUSH2 0x1FF SWAP2 SWAP1 PUSH2 0x1DCA JUMP JUMPDEST PUSH2 0x1394 JUMP JUMPDEST STOP JUMPDEST PUSH2 0x220 PUSH1 0x4 DUP1 CALLDATASIZE SUB DUP2 ADD SWAP1 PUSH2 0x21B SWAP2 SWAP1 PUSH2 0x1CCC JUMP JUMPDEST PUSH2 0x152F JUMP JUMPDEST PUSH1 0x40 MLOAD PUSH2 0x22F SWAP4 SWAP3 SWAP2 SWAP1 PUSH2 0x1E24 JUMP JUMPDEST PUSH1 0x40 MLOAD DUP1 SWAP2 SUB SWAP1 RETURN JUMPDEST DUP1 PUSH1 0x1 PUSH0 DUP3 DUP2 MSTORE PUSH1 0x20 ADD SWAP1 DUP2 MSTORE PUSH1 0x20 ADD PUSH0 KECCAK256 PUSH1 0x6 ADD PUSH0 SWAP1 SLOAD SWAP1 PUSH2 0x100 EXP SWAP1 DIV PUSH1 0xFF AND PUSH2 0x299 JUMPI PUSH1 0x40 MLOAD PUSH32 0x8C379A000000000000000000000000000000000000000000000000000000000 DUP2 MSTORE PUSH1 0x4 ADD PUSH2 0x290 SWAP1 PUSH2 0x1EB1 JUMP JUMPDEST PUSH1 0x40 MLOAD DUP1 SWAP2 SUB SWAP1 REVERT JUMPDEST DUP2 CALLER PUSH20 0xFFFFFFFFFFFFFFFFFFFFFFFFFFFFFFFFFFFFFFFF AND PUSH1 0x1 PUSH0 DUP4 DUP2 MSTORE PUSH1 0x20 ADD SWAP1 DUP2 MSTORE PUSH1 0x20 ADD PUSH0 KECCAK256 PUSH1 0x1 ADD PUSH0 SWAP1 SLOAD SWAP1 PUSH2 0x100 EXP SWAP1 DIV PUSH20 0xFFFFFFFFFFFFFFFFFFFFFFFFFFFFFFFFFFFFFFFF AND PUSH20 0xFFFFFFFFFFFFFFFFFFFFFFFFFFFFFFFFFFFFFFFF AND EQ PUSH2 0x33B JUMPI PUSH1 0x40 MLOAD PUSH32 0x8C379A000000000000000000000000000000000000000000000000000000000 DUP2 MSTORE PUSH1 0x4 ADD PUSH2 0x332 SWAP1 PUSH2 0x1F19 JUMP JUMPDEST PUSH1 0x40 MLOAD DUP1 SWAP2 SUB SWAP1 REVERT JUMPDEST PUSH0 PUSH1 0x1 PUSH0 DUP6 DUP2 MSTORE PUSH1 0x20 ADD SWAP1 DUP2 MSTORE PUSH1 0x20 ADD PUSH0 KECCAK256 PUSH1 0x6 ADD PUSH0 PUSH2 0x100 EXP DUP2 SLOAD DUP2 PUSH1 0xFF MUL NOT AND SWAP1 DUP4 ISZERO ISZERO MUL OR SWAP1 SSTORE POP DUP3 PUSH32 0x32D67E2131CD025EB20E7256680E338DEDBE17B28943A11681860A9271AD119D PUSH1 0x40 MLOAD PUSH1 0x40 MLOAD DUP1 SWAP2 SUB SWAP1 LOG2 POP POP POP JUMP JUMPDEST PUSH0 PUSH0 CALLER PUSH20 0xFFFFFFFFFFFFFFFFFFFFFFFFFFFFFFFFFFFFFFFF AND PUSH20 0xFFFFFFFFFFFFFFFFFFFFFFFFFFFFFFFFFFFFFFFF AND DUP2 MSTORE PUSH1 0x20 ADD SWAP1 DUP2 MSTORE PUSH1 0x20 ADD PUSH0 KECCAK256 PUSH1 0x4 ADD PUSH0 SWAP1 SLOAD SWAP1 PUSH2 0x100 EXP SWAP1 DIV PUSH1 0xFF AND ISZERO PUSH2 0x424 JUMPI PUSH1 0x40 MLOAD PUSH32 0x8C379A000000000000000000000000000000000000000000000000000000000 DUP2 MSTORE PUSH1 0x4 ADD PUSH2 0x41B SWAP1 PUSH2 0x1F81 JUMP JUMPDEST PUSH1 0x40 MLOAD DUP1 SWAP2 SUB SWAP1 REVERT JUMPDEST PUSH0 DUP3 MLOAD GT PUSH2 0x467 JUMPI PUSH1 0x40 MLOAD PUSH32 0x8C379A000000000000000000000000000000000000000000000000000000000 DUP2 MSTORE PUSH1 0x4 ADD PUSH2 0x45E SWAP1 PUSH2 0x1FE9 JUMP JUMPDEST PUSH1 0x40 MLOAD DUP1 SWAP2 SUB SWAP1 REVERT JUMPDEST PUSH1 0x40 MLOAD DUP1 PUSH1 0xA0 ADD PUSH1 0x40 MSTORE DUP1 CALLER PUSH20 0xFFFFFFFFFFFFFFFFFFFFFFFFFFFFFFFFFFFFFFFF AND DUP2 MSTORE PUSH1 0x20 ADD DUP4 DUP2 MSTORE PUSH1 0x20 ADD DUP3 DUP2 MSTORE PUSH1 0x20 ADD TIMESTAMP DUP2 MSTORE PUSH1 0x20 ADD PUSH1 0x1 ISZERO ISZERO DUP2 MSTORE POP PUSH0 PUSH0 CALLER PUSH20 0xFFFFFFFFFFFFFFFFFFFFFFFFFFFFFFFFFFFFFFFF AND PUSH20 0xFFFFFFFFFFFFFFFFFFFFFFFFFFFFFFFFFFFFFFFF AND DUP2 MSTORE PUSH1 0x20 ADD SWAP1 DUP2 MSTORE PUSH1 0x20 ADD PUSH0 KECCAK256 PUSH0 DUP3 ADD MLOAD DUP2 PUSH0 ADD PUSH0 PUSH2 0x100 EXP DUP2 SLOAD DUP2 PUSH20 0xFFFFFFFFFFFFFFFFFFFFFFFFFFFFFFFFFFFFFFFF MUL NOT AND SWAP1 DUP4 PUSH20 0xFFFFFFFFFFFFFFFFFFFFFFFFFFFFFFFFFFFFFFFF AND MUL OR SWAP1 SSTORE POP PUSH1 0x20 DUP3 ADD MLOAD DUP2 PUSH1 0x1 ADD SWAP1 DUP2 PUSH2 0x53C SWAP2 SWAP1 PUSH2 0x2204 JUMP JUMPDEST POP PUSH1 0x40 DUP3 ADD MLOAD DUP2 PUSH1 0x2 ADD SWAP1 DUP2 PUSH2 0x552 SWAP2 SWAP1 PUSH2 0x2204 JUMP JUMPDEST POP PUSH1 0x60 DUP3 ADD MLOAD DUP2 PUSH1 0x3 ADD SSTORE PUSH1 0x80 DUP3 ADD MLOAD DUP2 PUSH1 0x4 ADD PUSH0 PUSH2 0x100 EXP DUP2 SLOAD DUP2 PUSH1 0xFF MUL NOT AND SWAP1 DUP4 ISZERO ISZERO MUL OR SWAP1 SSTORE POP SWAP1 POP POP CALLER PUSH20 0xFFFFFFFFFFFFFFFFFFFFFFFFFFFFFFFFFFFFFFFF AND PUSH32 0xB3202828E8E55B43EE1A77A1EE6FFBE19F0205767FEB21E28CADD26390FF0501 DUP4 PUSH1 0x40 MLOAD PUSH2 0x5C5 SWAP2 SWAP1 PUSH2 0x22D3 JUMP JUMPDEST PUSH1 0x40 MLOAD DUP1 SWAP2 SUB SWAP1 LOG2 POP POP JUMP JUMPDEST PUSH1 0x60 DUP2 PUSH1 0x1 PUSH0 DUP3 DUP2 MSTORE PUSH1 0x20 ADD SWAP1 DUP2 MSTORE PUSH1 0x20 ADD PUSH0 KECCAK256 PUSH1 0x6 ADD PUSH0 SWAP1 SLOAD SWAP1 PUSH2 0x100 EXP SWAP1 DIV PUSH1 0xFF AND PUSH2 0x634 JUMPI PUSH1 0x40 MLOAD PUSH32 0x8C379A000000000000000000000000000000000000000000000000000000000 DUP2 MSTORE PUSH1 0x4 ADD PUSH2 0x62B SWAP1 PUSH2 0x1EB1 JUMP JUMPDEST PUSH1 0x40 MLOAD DUP1 SWAP2 SUB SWAP1 REVERT JUMPDEST PUSH1 0x2 PUSH0 DUP5 DUP2 MSTORE PUSH1 0x20 ADD SWAP1 DUP2 MSTORE PUSH1 0x20 ADD PUSH0 KECCAK256 DUP1 SLOAD DUP1 PUSH1 0x20 MUL PUSH1 0x20 ADD PUSH1 0x40 MLOAD SWAP1 DUP2 ADD PUSH1 0x40 MSTORE DUP1 SWAP3 SWAP2 SWAP1 DUP2 DUP2 MSTORE PUSH1 0x20 ADD PUSH0 SWAP1 JUMPDEST DUP3 DUP3 LT ISZERO PUSH2 0x796 JUMPI DUP4 DUP3 SWAP1 PUSH0 MSTORE PUSH1 0x20 PUSH0 KECCAK256 SWAP1 PUSH1 0x5 MUL ADD PUSH1 0x40 MLOAD DUP1 PUSH1 0xA0 ADD PUSH1 0x40 MSTORE SWAP1 DUP2 PUSH0 DUP3 ADD SLOAD DUP2 MSTORE PUSH1 0x20 ADD PUSH1 0x1 DUP3 ADD PUSH0 SWAP1 SLOAD SWAP1 PUSH2 0x100 EXP SWAP1 DIV PUSH20 0xFFFFFFFFFFFFFFFFFFFFFFFFFFFFFFFFFFFFFFFF AND PUSH20 0xFFFFFFFFFFFFFFFFFFFFFFFFFFFFFFFFFFFFFFFF AND PUSH20 0xFFFFFFFFFFFFFFFFFFFFFFFFFFFFFFFFFFFFFFFF AND DUP2 MSTORE PUSH1 0x20 ADD PUSH1 0x2 DUP3 ADD DUP1 SLOAD PUSH2 0x6F3 SWAP1 PUSH2 0x2034 JUMP JUMPDEST DUP1 PUSH1 0x1F ADD PUSH1 0x20 DUP1 SWAP2 DIV MUL PUSH1 0x20 ADD PUSH1 0x40 MLOAD SWAP1 DUP2 ADD PUSH1 0x40 MSTORE DUP1 SWAP3 SWAP2 SWAP1 DUP2 DUP2 MSTORE PUSH1 0x20 ADD DUP3 DUP1 SLOAD PUSH2 0x71F SWAP1 PUSH2 0x2034 JUMP JUMPDEST DUP1 ISZERO PUSH2 0x76A JUMPI DUP1 PUSH1 0x1F LT PUSH2 0x741 JUMPI PUSH2 0x100 DUP1 DUP4 SLOAD DIV MUL DUP4 MSTORE SWAP2 PUSH1 0x20 ADD SWAP2 PUSH2 0x76A JUMP JUMPDEST DUP3 ADD SWAP2 SWAP1 PUSH0 MSTORE PUSH1 0x20 PUSH0 KECCAK256 SWAP1 JUMPDEST DUP2 SLOAD DUP2 MSTORE SWAP1 PUSH1 0x1 ADD SWAP1 PUSH1 0x20 ADD DUP1 DUP4 GT PUSH2 0x74D JUMPI DUP3 SWAP1 SUB PUSH1 0x1F AND DUP3 ADD SWAP2 JUMPDEST POP POP POP POP POP DUP2 MSTORE PUSH1 0x20 ADD PUSH1 0x3 DUP3 ADD SLOAD DUP2 MSTORE PUSH1 0x20 ADD PUSH1 0x4 DUP3 ADD SLOAD DUP2 MSTORE POP POP DUP2 MSTORE PUSH1 0x20 ADD SWAP1 PUSH1 0x1 ADD SWAP1 PUSH2 0x664 JUMP JUMPDEST POP POP POP POP SWAP2 POP POP SWAP2 SWAP1 POP JUMP JUMPDEST PUSH1 0x60 PUSH0 PUSH0 SWAP1 POP PUSH0 PUSH1 0x1 SWAP1 POP JUMPDEST PUSH1 0x5 SLOAD DUP2 GT PUSH2 0x7FF JUMPI PUSH1 0x1 PUSH0 DUP3 DUP2 MSTORE PUSH1 0x20 ADD SWAP1 DUP2 MSTORE PUSH1 0x20 ADD PUSH0 KECCAK256 PUSH1 0x6 ADD PUSH0 SWAP1 SLOAD SWAP1 PUSH2 0x100 EXP SWAP1 DIV PUSH1 0xFF AND ISZERO PUSH2 0x7EC JUMPI DUP2 DUP1 PUSH2 0x7E8 SWAP1 PUSH2 0x2320 JUMP JUMPDEST SWAP3 POP POP JUMPDEST DUP1 DUP1 PUSH2 0x7F7 SWAP1 PUSH2 0x2320 JUMP JUMPDEST SWAP2 POP POP PUSH2 0x7AE JUMP JUMPDEST POP PUSH0 DUP2 PUSH8 0xFFFFFFFFFFFFFFFF DUP2 GT ISZERO PUSH2 0x81B JUMPI PUSH2 0x81A PUSH2 0x1844 JUMP JUMPDEST JUMPDEST PUSH1 0x40 MLOAD SWAP1 DUP1 DUP3 MSTORE DUP1 PUSH1 0x20 MUL PUSH1 0x20 ADD DUP3 ADD PUSH1 0x40 MSTORE DUP1 ISZERO PUSH2 0x849 JUMPI DUP2 PUSH1 0x20 ADD PUSH1 0x20 DUP3 MUL DUP1 CALLDATASIZE DUP4 CALLDATACOPY DUP1 DUP3 ADD SWAP2 POP POP SWAP1 POP JUMPDEST POP SWAP1 POP PUSH0 PUSH0 SWAP1 POP PUSH0 PUSH1 0x1 SWAP1 POP JUMPDEST PUSH1 0x5 SLOAD DUP2 GT PUSH2 0x8C7 JUMPI PUSH1 0x1 PUSH0 DUP3 DUP2 MSTORE PUSH1 0x20 ADD SWAP1 DUP2 MSTORE PUSH1 0x20 ADD PUSH0 KECCAK256 PUSH1 0x6 ADD PUSH0 SWAP1 SLOAD SWAP1 PUSH2 0x100 EXP SWAP1 DIV PUSH1 0xFF AND ISZERO PUSH2 0x8B4 JUMPI DUP1 DUP4 DUP4 DUP2 MLOAD DUP2 LT PUSH2 0x899 JUMPI PUSH2 0x898 PUSH2 0x2367 JUMP JUMPDEST JUMPDEST PUSH1 0x20 MUL PUSH1 0x20 ADD ADD DUP2 DUP2 MSTORE POP POP DUP2 DUP1 PUSH2 0x8B0 SWAP1 PUSH2 0x2320 JUMP JUMPDEST SWAP3 POP POP JUMPDEST DUP1 DUP1 PUSH2 0x8BF SWAP1 PUSH2 0x2320 JUMP JUMPDEST SWAP2 POP POP PUSH2 0x856 JUMP JUMPDEST POP DUP2 SWAP4 POP POP POP POP SWAP1 JUMP JUMPDEST PUSH0 PUSH0 CALLER PUSH20 0xFFFFFFFFFFFFFFFFFFFFFFFFFFFFFFFFFFFFFFFF AND PUSH20 0xFFFFFFFFFFFFFFFFFFFFFFFFFFFFFFFFFFFFFFFF AND DUP2 MSTORE PUSH1 0x20 ADD SWAP1 DUP2 MSTORE PUSH1 0x20 ADD PUSH0 KECCAK256 PUSH1 0x4 ADD PUSH0 SWAP1 SLOAD SWAP1 PUSH2 0x100 EXP SWAP1 DIV PUSH1 0xFF AND PUSH2 0x95C JUMPI PUSH1 0x40 MLOAD PUSH32 0x8C379A000000000000000000000000000000000000000000000000000000000 DUP2 MSTORE PUSH1 0x4 ADD PUSH2 0x953 SWAP1 PUSH2 0x23DE JUMP JUMPDEST PUSH1 0x40 MLOAD DUP1 SWAP2 SUB SWAP1 REVERT JUMPDEST PUSH0 DUP3 MLOAD GT PUSH2 0x99F JUMPI PUSH1 0x40 MLOAD PUSH32 0x8C379A000000000000000000000000000000000000000000000000000000000 DUP2 MSTORE PUSH1 0x4 ADD PUSH2 0x996 SWAP1 PUSH2 0x2446 JUMP JUMPDEST PUSH1 0x40 MLOAD DUP1 SWAP2 SUB SWAP1 REVERT JUMPDEST PUSH0 DUP2 MLOAD GT PUSH2 0x9E2 JUMPI PUSH1 0x40 MLOAD PUSH32 0x8C379A000000000000000000000000000000000000000000000000000000000 DUP2 MSTORE PUSH1 0x4 ADD PUSH2 0x9D9 SWAP1 PUSH2 0x24D4 JUMP JUMPDEST PUSH1 0x40 MLOAD DUP1 SWAP2 SUB SWAP1 REVERT JUMPDEST PUSH1 0x5 PUSH0 DUP2 SLOAD DUP1 SWAP3 SWAP2 SWAP1 PUSH2 0x9F4 SWAP1 PUSH2 0x2320 JUMP JUMPDEST SWAP2 SWAP1 POP SSTORE POP PUSH0 PUSH1 0x5 SLOAD SWAP1 POP PUSH1 0x40 MLOAD DUP1 PUSH1 0xE0 ADD PUSH1 0x40 MSTORE DUP1 DUP3 DUP2 MSTORE PUSH1 0x20 ADD CALLER PUSH20 0xFFFFFFFFFFFFFFFFFFFFFFFFFFFFFFFFFFFFFFFF AND DUP2 MSTORE PUSH1 0x20 ADD DUP5 DUP2 MSTORE PUSH1 0x20 ADD DUP4 DUP2 MSTORE PUSH1 0x20 ADD PUSH0 DUP2 MSTORE PUSH1 0x20 ADD TIMESTAMP DUP2 MSTORE PUSH1 0x20 ADD PUSH1 0x1 ISZERO ISZERO DUP2 MSTORE POP PUSH1 0x1 PUSH0 DUP4 DUP2 MSTORE PUSH1 0x20 ADD SWAP1 DUP2 MSTORE PUSH1 0x20 ADD PUSH0 KECCAK256 PUSH0 DUP3 ADD MLOAD DUP2 PUSH0 ADD SSTORE PUSH1 0x20 DUP3 ADD MLOAD DUP2 PUSH1 0x1 ADD PUSH0 PUSH2 0x100 EXP DUP2 SLOAD DUP2 PUSH20 0xFFFFFFFFFFFFFFFFFFFFFFFFFFFFFFFFFFFFFFFF MUL NOT AND SWAP1 DUP4 PUSH20 0xFFFFFFFFFFFFFFFFFFFFFFFFFFFFFFFFFFFFFFFF AND MUL OR SWAP1 SSTORE POP PUSH1 0x40 DUP3 ADD MLOAD DUP2 PUSH1 0x2 ADD SWAP1 DUP2 PUSH2 0xABF SWAP2 SWAP1 PUSH2 0x2204 JUMP JUMPDEST POP PUSH1 0x60 DUP3 ADD MLOAD DUP2 PUSH1 0x3 ADD SWAP1 DUP2 PUSH2 0xAD5 SWAP2 SWAP1 PUSH2 0x2204 JUMP JUMPDEST POP PUSH1 0x80 DUP3 ADD MLOAD DUP2 PUSH1 0x4 ADD SSTORE PUSH1 0xA0 DUP3 ADD MLOAD DUP2 PUSH1 0x5 ADD SSTORE PUSH1 0xC0 DUP3 ADD MLOAD DUP2 PUSH1 0x6 ADD PUSH0 PUSH2 0x100 EXP DUP2 SLOAD DUP2 PUSH1 0xFF MUL NOT AND SWAP1 DUP4 ISZERO ISZERO MUL OR SWAP1 SSTORE POP SWAP1 POP POP PUSH1 0x3 PUSH0 CALLER PUSH20 0xFFFFFFFFFFFFFFFFFFFFFFFFFFFFFFFFFFFFFFFF AND PUSH20 0xFFFFFFFFFFFFFFFFFFFFFFFFFFFFFFFFFFFFFFFF AND DUP2 MSTORE PUSH1 0x20 ADD SWAP1 DUP2 MSTORE PUSH1 0x20 ADD PUSH0 KECCAK256 DUP2 SWAP1 DUP1 PUSH1 0x1 DUP2 SLOAD ADD DUP1 DUP3 SSTORE DUP1 SWAP2 POP POP PUSH1 0x1 SWAP1 SUB SWAP1 PUSH0 MSTORE PUSH1 0x20 PUSH0 KECCAK256 ADD PUSH0 SWAP1 SWAP2 SWAP1 SWAP2 SWAP1 SWAP2 POP SSTORE CALLER PUSH20 0xFFFFFFFFFFFFFFFFFFFFFFFFFFFFFFFFFFFFFFFF AND DUP2 PUSH32 0x8E40A51278ABE2F4B410C0A96FF0BDD024B22666CA334062BF72AFD596984BD6 DUP6 PUSH1 0x40 MLOAD PUSH2 0xBB4 SWAP2 SWAP1 PUSH2 0x22D3 JUMP JUMPDEST PUSH1 0x40 MLOAD DUP1 SWAP2 SUB SWAP1 LOG3 POP POP POP JUMP JUMPDEST PUSH1 0x60 PUSH1 0x3 PUSH0 DUP4 PUSH20 0xFFFFFFFFFFFFFFFFFFFFFFFFFFFFFFFFFFFFFFFF AND PUSH20 0xFFFFFFFFFFFFFFFFFFFFFFFFFFFFFFFFFFFFFFFF AND DUP2 MSTORE PUSH1 0x20 ADD SWAP1 DUP2 MSTORE PUSH1 0x20 ADD PUSH0 KECCAK256 DUP1 SLOAD DUP1 PUSH1 0x20 MUL PUSH1 0x20 ADD PUSH1 0x40 MLOAD SWAP1 DUP2 ADD PUSH1 0x40 MSTORE DUP1 SWAP3 SWAP2 SWAP1 DUP2 DUP2 MSTORE PUSH1 0x20 ADD DUP3 DUP1 SLOAD DUP1 ISZERO PUSH2 0xC48 JUMPI PUSH1 0x20 MUL DUP3 ADD SWAP2 SWAP1 PUSH0 MSTORE PUSH1 0x20 PUSH0 KECCAK256 SWAP1 JUMPDEST DUP2 SLOAD DUP2 MSTORE PUSH1 0x20 ADD SWAP1 PUSH1 0x1 ADD SWAP1 DUP1 DUP4 GT PUSH2 0xC34 JUMPI JUMPDEST POP POP POP POP POP SWAP1 POP SWAP2 SWAP1 POP JUMP JUMPDEST PUSH0 PUSH0 CALLER PUSH20 0xFFFFFFFFFFFFFFFFFFFFFFFFFFFFFFFFFFFFFFFF AND PUSH20 0xFFFFFFFFFFFFFFFFFFFFFFFFFFFFFFFFFFFFFFFF AND DUP2 MSTORE PUSH1 0x20 ADD SWAP1 DUP2 MSTORE PUSH1 0x20 ADD PUSH0 KECCAK256 PUSH1 0x4 ADD PUSH0 SWAP1 SLOAD SWAP1 PUSH2 0x100 EXP SWAP1 DIV PUSH1 0xFF AND PUSH2 0xCDF JUMPI PUSH1 0x40 MLOAD PUSH32 0x8C379A000000000000000000000000000000000000000000000000000000000 DUP2 MSTORE PUSH1 0x4 ADD PUSH2 0xCD6 SWAP1 PUSH2 0x23DE JUMP JUMPDEST PUSH1 0x40 MLOAD DUP1 SWAP2 SUB SWAP1 REVERT JUMPDEST DUP1 PUSH1 0x1 PUSH0 DUP3 DUP2 MSTORE PUSH1 0x20 ADD SWAP1 DUP2 MSTORE PUSH1 0x20 ADD PUSH0 KECCAK256 PUSH1 0x6 ADD PUSH0 SWAP1 SLOAD SWAP1 PUSH2 0x100 EXP SWAP1 DIV PUSH1 0xFF AND PUSH2 0xD40 JUMPI PUSH1 0x40 MLOAD PUSH32 0x8C379A000000000000000000000000000000000000000000000000000000000 DUP2 MSTORE PUSH1 0x4 ADD PUSH2 0xD37 SWAP1 PUSH2 0x1EB1 JUMP JUMPDEST PUSH1 0x40 MLOAD DUP1 SWAP2 SUB SWAP1 REVERT JUMPDEST PUSH1 0x4 PUSH0 DUP4 DUP2 MSTORE PUSH1 0x20 ADD SWAP1 DUP2 MSTORE PUSH1 0x20 ADD PUSH0 KECCAK256 PUSH0 CALLER PUSH20 0xFFFFFFFFFFFFFFFFFFFFFFFFFFFFFFFFFFFFFFFF AND PUSH20 0xFFFFFFFFFFFFFFFFFFFFFFFFFFFFFFFFFFFFFFFF AND DUP2 MSTORE PUSH1 0x20 ADD SWAP1 DUP2 MSTORE PUSH1 0x20 ADD PUSH0 KECCAK256 PUSH0 SWAP1 SLOAD SWAP1 PUSH2 0x100 EXP SWAP1 DIV PUSH1 0xFF AND ISZERO PUSH2 0xDD9 JUMPI PUSH1 0x40 MLOAD PUSH32 0x8C379A000000000000000000000000000000000000000000000000000000000 DUP2 MSTORE PUSH1 0x4 ADD PUSH2 0xDD0 SWAP1 PUSH2 0x2562 JUMP JUMPDEST PUSH1 0x40 MLOAD DUP1 SWAP2 SUB SWAP1 REVERT JUMPDEST PUSH1 0x1 PUSH1 0x4 PUSH0 DUP5 DUP2 MSTORE PUSH1 0x20 ADD SWAP1 DUP2 MSTORE PUSH1 0x20 ADD PUSH0 KECCAK256 PUSH0 CALLER PUSH20 0xFFFFFFFFFFFFFFFFFFFFFFFFFFFFFFFFFFFFFFFF AND PUSH20 0xFFFFFFFFFFFFFFFFFFFFFFFFFFFFFFFFFFFFFFFF AND DUP2 MSTORE PUSH1 0x20 ADD SWAP1 DUP2 MSTORE PUSH1 0x20 ADD PUSH0 KECCAK256 PUSH0 PUSH2 0x100 EXP DUP2 SLOAD DUP2 PUSH1 0xFF MUL NOT AND SWAP1 DUP4 ISZERO ISZERO MUL OR SWAP1 SSTORE POP PUSH1 0x1 PUSH0 DUP4 DUP2 MSTORE PUSH1 0x20 ADD SWAP1 DUP2 MSTORE PUSH1 0x20 ADD PUSH0 KECCAK256 PUSH1 0x4 ADD PUSH0 DUP2 SLOAD DUP1 SWAP3 SWAP2 SWAP1 PUSH2 0xE61 SWAP1 PUSH2 0x2320 JUMP JUMPDEST SWAP2 SWAP1 POP SSTORE POP CALLER PUSH20 0xFFFFFFFFFFFFFFFFFFFFFFFFFFFFFFFFFFFFFFFF AND DUP3 PUSH32 0xCF765D6F163C9B0D832E2A94F4C8E9BFFD32A2C3CA5FDBB8CC67B5FE1441F413 PUSH1 0x40 MLOAD PUSH1 0x40 MLOAD DUP1 SWAP2 SUB SWAP1 LOG3 POP POP JUMP JUMPDEST PUSH0 PUSH0 PUSH1 0x60 DUP1 PUSH0 PUSH0 DUP7 PUSH1 0x1 PUSH0 DUP3 DUP2 MSTORE PUSH1 0x20 ADD SWAP1 DUP2 MSTORE PUSH1 0x20 ADD PUSH0 KECCAK256 PUSH1 0x6 ADD PUSH0 SWAP1 SLOAD SWAP1 PUSH2 0x100 EXP SWAP1 DIV PUSH1 0xFF AND PUSH2 0xF16 JUMPI PUSH1 0x40 MLOAD PUSH32 0x8C379A000000000000000000000000000000000000000000000000000000000 DUP2 MSTORE PUSH1 0x4 ADD PUSH2 0xF0D SWAP1 PUSH2 0x1EB1 JUMP JUMPDEST PUSH1 0x40 MLOAD DUP1 SWAP2 SUB SWAP1 REVERT JUMPDEST PUSH0 PUSH1 0x1 PUSH0 DUP11 DUP2 MSTORE PUSH1 0x20 ADD SWAP1 DUP2 MSTORE PUSH1 0x20 ADD PUSH0 KECCAK256 PUSH1 0x40 MLOAD DUP1 PUSH1 0xE0 ADD PUSH1 0x40 MSTORE SWAP1 DUP2 PUSH0 DUP3 ADD SLOAD DUP2 MSTORE PUSH1 0x20 ADD PUSH1 0x1 DUP3 ADD PUSH0 SWAP1 SLOAD SWAP1 PUSH2 0x100 EXP SWAP1 DIV PUSH20 0xFFFFFFFFFFFFFFFFFFFFFFFFFFFFFFFFFFFFFFFF AND PUSH20 0xFFFFFFFFFFFFFFFFFFFFFFFFFFFFFFFFFFFFFFFF AND PUSH20 0xFFFFFFFFFFFFFFFFFFFFFFFFFFFFFFFFFFFFFFFF AND DUP2 MSTORE PUSH1 0x20 ADD PUSH1 0x2 DUP3 ADD DUP1 SLOAD PUSH2 0xFA1 SWAP1 PUSH2 0x2034 JUMP JUMPDEST DUP1 PUSH1 0x1F ADD PUSH1 0x20 DUP1 SWAP2 DIV MUL PUSH1 0x20 ADD PUSH1 0x40 MLOAD SWAP1 DUP2 ADD PUSH1 0x40 MSTORE DUP1 SWAP3 SWAP2 SWAP1 DUP2 DUP2 MSTORE PUSH1 0x20 ADD DUP3 DUP1 SLOAD PUSH2 0xFCD SWAP1 PUSH2 0x2034 JUMP JUMPDEST DUP1 ISZERO PUSH2 0x1018 JUMPI DUP1 PUSH1 0x1F LT PUSH2 0xFEF JUMPI PUSH2 0x100 DUP1 DUP4 SLOAD DIV MUL DUP4 MSTORE SWAP2 PUSH1 0x20 ADD SWAP2 PUSH2 0x1018 JUMP JUMPDEST DUP3 ADD SWAP2 SWAP1 PUSH0 MSTORE PUSH1 0x20 PUSH0 KECCAK256 SWAP1 JUMPDEST DUP2 SLOAD DUP2 MSTORE SWAP1 PUSH1 0x1 ADD SWAP1 PUSH1 0x20 ADD DUP1 DUP4 GT PUSH2 0xFFB JUMPI DUP3 SWAP1 SUB PUSH1 0x1F AND DUP3 ADD SWAP2 JUMPDEST POP POP POP POP POP DUP2 MSTORE PUSH1 0x20 ADD PUSH1 0x3 DUP3 ADD DUP1 SLOAD PUSH2 0x1031 SWAP1 PUSH2 0x2034 JUMP JUMPDEST DUP1 PUSH1 0x1F ADD PUSH1 0x20 DUP1 SWAP2 DIV MUL PUSH1 0x20 ADD PUSH1 0x40 MLOAD SWAP1 DUP2 ADD PUSH1 0x40 MSTORE DUP1 SWAP3 SWAP2 SWAP1 DUP2 DUP2 MSTORE PUSH1 0x20 ADD DUP3 DUP1 SLOAD PUSH2 0x105D SWAP1 PUSH2 0x2034 JUMP JUMPDEST DUP1 ISZERO PUSH2 0x10A8 JUMPI DUP1 PUSH1 0x1F LT PUSH2 0x107F JUMPI PUSH2 0x100 DUP1 DUP4 SLOAD DIV MUL DUP4 MSTORE SWAP2 PUSH1 0x20 ADD SWAP2 PUSH2 0x10A8 JUMP JUMPDEST DUP3 ADD SWAP2 SWAP1 PUSH0 MSTORE PUSH1 0x20 PUSH0 KECCAK256 SWAP1 JUMPDEST DUP2 SLOAD DUP2 MSTORE SWAP1 PUSH1 0x1 ADD SWAP1 PUSH1 0x20 ADD DUP1 DUP4 GT PUSH2 0x108B JUMPI DUP3 SWAP1 SUB PUSH1 0x1F AND DUP3 ADD SWAP2 JUMPDEST POP POP POP POP POP DUP2 MSTORE PUSH1 0x20 ADD PUSH1 0x4 DUP3 ADD SLOAD DUP2 MSTORE PUSH1 0x20 ADD PUSH1 0x5 DUP3 ADD SLOAD DUP2 MSTORE PUSH1 0x20 ADD PUSH1 0x6 DUP3 ADD PUSH0 SWAP1 SLOAD SWAP1 PUSH2 0x100 EXP SWAP1 DIV PUSH1 0xFF AND ISZERO ISZERO ISZERO ISZERO DUP2 MSTORE POP POP SWAP1 POP DUP1 PUSH0 ADD MLOAD DUP2 PUSH1 0x20 ADD MLOAD DUP3 PUSH1 0x40 ADD MLOAD DUP4 PUSH1 0x60 ADD MLOAD DUP5 PUSH1 0x80 ADD MLOAD DUP6 PUSH1 0xA0 ADD MLOAD SWAP8 POP SWAP8 POP SWAP8 POP SWAP8 POP SWAP8 POP SWAP8 POP POP POP SWAP2 SWAP4 SWAP6 POP SWAP2 SWAP4 SWAP6 JUMP JUMPDEST PUSH0 PUSH0 CALLER PUSH20 0xFFFFFFFFFFFFFFFFFFFFFFFFFFFFFFFFFFFFFFFF AND PUSH20 0xFFFFFFFFFFFFFFFFFFFFFFFFFFFFFFFFFFFFFFFF AND DUP2 MSTORE PUSH1 0x20 ADD SWAP1 DUP2 MSTORE PUSH1 0x20 ADD PUSH0 KECCAK256 PUSH1 0x4 ADD PUSH0 SWAP1 SLOAD SWAP1 PUSH2 0x100 EXP SWAP1 DIV PUSH1 0xFF AND PUSH2 0x11A0 JUMPI PUSH1 0x40 MLOAD PUSH32 0x8C379A000000000000000000000000000000000000000000000000000000000 DUP2 MSTORE PUSH1 0x4 ADD PUSH2 0x1197 SWAP1 PUSH2 0x23DE JUMP JUMPDEST PUSH1 0x40 MLOAD DUP1 SWAP2 SUB SWAP1 REVERT JUMPDEST DUP2 PUSH1 0x1 PUSH0 DUP3 DUP2 MSTORE PUSH1 0x20 ADD SWAP1 DUP2 MSTORE PUSH1 0x20 ADD PUSH0 KECCAK256 PUSH1 0x6 ADD PUSH0 SWAP1 SLOAD SWAP1 PUSH2 0x100 EXP SWAP1 DIV PUSH1 0xFF AND PUSH2 0x1201 JUMPI PUSH1 0x40 MLOAD PUSH32 0x8C379A000000000000000000000000000000000000000000000000000000000 DUP2 MSTORE PUSH1 0x4 ADD PUSH2 0x11F8 SWAP1 PUSH2 0x1EB1 JUMP JUMPDEST PUSH1 0x40 MLOAD DUP1 SWAP2 SUB SWAP1 REVERT JUMPDEST PUSH0 DUP3 MLOAD GT PUSH2 0x1244 JUMPI PUSH1 0x40 MLOAD PUSH32 0x8C379A000000000000000000000000000000000000000000000000000000000 DUP2 MSTORE PUSH1 0x4 ADD PUSH2 0x123B SWAP1 PUSH2 0x25F0 JUMP JUMPDEST PUSH1 0x40 MLOAD DUP1 SWAP2 SUB SWAP1 REVERT JUMPDEST PUSH0 PUSH1 0x2 PUSH0 DUP6 DUP2 MSTORE PUSH1 0x20 ADD SWAP1 DUP2 MSTORE PUSH1 0x20 ADD PUSH0 KECCAK256 DUP1 SLOAD SWAP1 POP SWAP1 POP PUSH1 0x2 PUSH0 DUP6 DUP2 MSTORE PUSH1 0x20 ADD SWAP1 DUP2 MSTORE PUSH1 0x20 ADD PUSH0 KECCAK256 PUSH1 0x40 MLOAD DUP1 PUSH1 0xA0 ADD PUSH1 0x40 MSTORE DUP1 DUP4 DUP2 MSTORE PUSH1 0x20 ADD CALLER PUSH20 0xFFFFFFFFFFFFFFFFFFFFFFFFFFFFFFFFFFFFFFFF AND DUP2 MSTORE PUSH1 0x20 ADD DUP6 DUP2 MSTORE PUSH1 0x20 ADD DUP7 DUP2 MSTORE PUSH1 0x20 ADD TIMESTAMP DUP2 MSTORE POP SWAP1 DUP1 PUSH1 0x1 DUP2 SLOAD ADD DUP1 DUP3 SSTORE DUP1 SWAP2 POP POP PUSH1 0x1 SWAP1 SUB SWAP1 PUSH0 MSTORE PUSH1 0x20 PUSH0 KECCAK256 SWAP1 PUSH1 0x5 MUL ADD PUSH0 SWAP1 SWAP2 SWAP1 SWAP2 SWAP1 SWAP2 POP PUSH0 DUP3 ADD MLOAD DUP2 PUSH0 ADD SSTORE PUSH1 0x20 DUP3 ADD MLOAD DUP2 PUSH1 0x1 ADD PUSH0 PUSH2 0x100 EXP DUP2 SLOAD DUP2 PUSH20 0xFFFFFFFFFFFFFFFFFFFFFFFFFFFFFFFFFFFFFFFF MUL NOT AND SWAP1 DUP4 PUSH20 0xFFFFFFFFFFFFFFFFFFFFFFFFFFFFFFFFFFFFFFFF AND MUL OR SWAP1 SSTORE POP PUSH1 0x40 DUP3 ADD MLOAD DUP2 PUSH1 0x2 ADD SWAP1 DUP2 PUSH2 0x1333 SWAP2 SWAP1 PUSH2 0x2204 JUMP JUMPDEST POP PUSH1 0x60 DUP3 ADD MLOAD DUP2 PUSH1 0x3 ADD SSTORE PUSH1 0x80 DUP3 ADD MLOAD DUP2 PUSH1 0x4 ADD SSTORE POP POP CALLER PUSH20 0xFFFFFFFFFFFFFFFFFFFFFFFFFFFFFFFFFFFFFFFF AND DUP5 PUSH32 0x1AE003D984A091DD98A7026587CD616A3D83F6A3059C28DB1B36C6EA79A730F5 PUSH1 0x40 MLOAD PUSH1 0x40 MLOAD DUP1 SWAP2 SUB SWAP1 LOG3 POP POP POP POP JUMP JUMPDEST DUP2 PUSH1 0x1 PUSH0 DUP3 DUP2 MSTORE PUSH1 0x20 ADD SWAP1 DUP2 MSTORE PUSH1 0x20 ADD PUSH0 KECCAK256 PUSH1 0x6 ADD PUSH0 SWAP1 SLOAD SWAP1 PUSH2 0x100 EXP SWAP1 DIV PUSH1 0xFF AND PUSH2 0x13F5 JUMPI PUSH1 0x40 MLOAD PUSH32 0x8C379A000000000000000000000000000000000000000000000000000000000 DUP2 MSTORE PUSH1 0x4 ADD PUSH2 0x13EC SWAP1 PUSH2 0x1EB1 JUMP JUMPDEST PUSH1 0x40 MLOAD DUP1 SWAP2 SUB SWAP1 REVERT JUMPDEST DUP3 CALLER PUSH20 0xFFFFFFFFFFFFFFFFFFFFFFFFFFFFFFFFFFFFFFFF AND PUSH1 0x1 PUSH0 DUP4 DUP2 MSTORE PUSH1 0x20 ADD SWAP1 DUP2 MSTORE PUSH1 0x20 ADD PUSH0 KECCAK256 PUSH1 0x1 ADD PUSH0 SWAP1 SLOAD SWAP1 PUSH2 0x100 EXP SWAP1 DIV PUSH20 0xFFFFFFFFFFFFFFFFFFFFFFFFFFFFFFFFFFFFFFFF AND PUSH20 0xFFFFFFFFFFFFFFFFFFFFFFFFFFFFFFFFFFFFFFFF AND EQ PUSH2 0x1497 JUMPI PUSH1 0x40 MLOAD PUSH32 0x8C379A000000000000000000000000000000000000000000000000000000000 DUP2 MSTORE PUSH1 0x4 ADD PUSH2 0x148E SWAP1 PUSH2 0x1F19 JUMP JUMPDEST PUSH1 0x40 MLOAD DUP1 SWAP2 SUB SWAP1 REVERT JUMPDEST PUSH0 DUP4 MLOAD GT PUSH2 0x14DA JUMPI PUSH1 0x40 MLOAD PUSH32 0x8C379A000000000000000000000000000000000000000000000000000000000 DUP2 MSTORE PUSH1 0x4 ADD PUSH2 0x14D1 SWAP1 PUSH2 0x24D4 JUMP JUMPDEST PUSH1 0x40 MLOAD DUP1 SWAP2 SUB SWAP1 REVERT JUMPDEST DUP3 PUSH1 0x1 PUSH0 DUP7 DUP2 MSTORE PUSH1 0x20 ADD SWAP1 DUP2 MSTORE PUSH1 0x20 ADD PUSH0 KECCAK256 PUSH1 0x3 ADD SWAP1 DUP2 PUSH2 0x14FB SWAP2 SWAP1 PUSH2 0x2204 JUMP JUMPDEST POP DUP4 PUSH32 0x6B028D8032A54C1F25D3BDF66FBAB62942ED25CEC9E26DC705778B12D6146B8A PUSH1 0x40 MLOAD PUSH1 0x40 MLOAD DUP1 SWAP2 SUB SWAP1 LOG2 POP POP POP POP JUMP JUMPDEST PUSH1 0x60 DUP1 PUSH0 PUSH0 PUSH0 DUP6 PUSH20 0xFFFFFFFFFFFFFFFFFFFFFFFFFFFFFFFFFFFFFFFF AND PUSH20 0xFFFFFFFFFFFFFFFFFFFFFFFFFFFFFFFFFFFFFFFF AND DUP2 MSTORE PUSH1 0x20 ADD SWAP1 DUP2 MSTORE PUSH1 0x20 ADD PUSH0 KECCAK256 PUSH1 0x4 ADD PUSH0 SWAP1 SLOAD SWAP1 PUSH2 0x100 EXP SWAP1 DIV PUSH1 0xFF AND PUSH2 0x15BE JUMPI PUSH1 0x40 MLOAD PUSH32 0x8C379A000000000000000000000000000000000000000000000000000000000 DUP2 MSTORE PUSH1 0x4 ADD PUSH2 0x15B5 SWAP1 PUSH2 0x2658 JUMP JUMPDEST PUSH1 0x40 MLOAD DUP1 SWAP2 SUB SWAP1 REVERT JUMPDEST PUSH0 PUSH0 PUSH0 DUP7 PUSH20 0xFFFFFFFFFFFFFFFFFFFFFFFFFFFFFFFFFFFFFFFF AND PUSH20 0xFFFFFFFFFFFFFFFFFFFFFFFFFFFFFFFFFFFFFFFF AND DUP2 MSTORE PUSH1 0x20 ADD SWAP1 DUP2 MSTORE PUSH1 0x20 ADD PUSH0 KECCAK256 PUSH1 0x40 MLOAD DUP1 PUSH1 0xA0 ADD PUSH1 0x40 MSTORE SWAP1 DUP2 PUSH0 DUP3 ADD PUSH0 SWAP1 SLOAD SWAP1 PUSH2 0x100 EXP SWAP1 DIV PUSH20 0xFFFFFFFFFFFFFFFFFFFFFFFFFFFFFFFFFFFFFFFF AND PUSH20 0xFFFFFFFFFFFFFFFFFFFFFFFFFFFFFFFFFFFFFFFF AND PUSH20 0xFFFFFFFFFFFFFFFFFFFFFFFFFFFFFFFFFFFFFFFF AND DUP2 MSTORE PUSH1 0x20 ADD PUSH1 0x1 DUP3 ADD DUP1 SLOAD PUSH2 0x166A SWAP1 PUSH2 0x2034 JUMP JUMPDEST DUP1 PUSH1 0x1F ADD PUSH1 0x20 DUP1 SWAP2 DIV MUL PUSH1 0x20 ADD PUSH1 0x40 MLOAD SWAP1 DUP2 ADD PUSH1 0x40 MSTORE DUP1 SWAP3 SWAP2 SWAP1 DUP2 DUP2 MSTORE PUSH1 0x20 ADD DUP3 DUP1 SLOAD PUSH2 0x1696 SWAP1 PUSH2 0x2034 JUMP JUMPDEST DUP1 ISZERO PUSH2 0x16E1 JUMPI DUP1 PUSH1 0x1F LT PUSH2 0x16B8 JUMPI PUSH2 0x100 DUP1 DUP4 SLOAD DIV MUL DUP4 MSTORE SWAP2 PUSH1 0x20 ADD SWAP2 PUSH2 0x16E1 JUMP JUMPDEST DUP3 ADD SWAP2 SWAP1 PUSH0 MSTORE PUSH1 0x20 PUSH0 KECCAK256 SWAP1 JUMPDEST DUP2 SLOAD DUP2 MSTORE SWAP1 PUSH1 0x1 ADD SWAP1 PUSH1 0x20 ADD DUP1 DUP4 GT PUSH2 0x16C4 JUMPI DUP3 SWAP1 SUB PUSH1 0x1F AND DUP3 ADD SWAP2 JUMPDEST POP POP POP POP POP DUP2 MSTORE PUSH1 0x20 ADD PUSH1 0x2 DUP3 ADD DUP1 SLOAD PUSH2 0x16FA SWAP1 PUSH2 0x2034 JUMP JUMPDEST DUP1 PUSH1 0x1F ADD PUSH1 0x20 DUP1 SWAP2 DIV MUL PUSH1 0x20 ADD PUSH1 0x40 MLOAD SWAP1 DUP2 ADD PUSH1 0x40 MSTORE DUP1 SWAP3 SWAP2 SWAP1 DUP2 DUP2 MSTORE PUSH1 0x20 ADD DUP3 DUP1 SLOAD PUSH2 0x1726 SWAP1 PUSH2 0x2034 JUMP JUMPDEST DUP1 ISZERO PUSH2 0x1771 JUMPI DUP1 PUSH1 0x1F LT PUSH2 0x1748 JUMPI PUSH2 0x100 DUP1 DUP4 SLOAD DIV MUL DUP4 MSTORE SWAP2 PUSH1 0x20 ADD SWAP2 PUSH2 0x1771 JUMP JUMPDEST DUP3 ADD SWAP2 SWAP1 PUSH0 MSTORE PUSH1 0x20 PUSH0 KECCAK256 SWAP1 JUMPDEST DUP2 SLOAD DUP2 MSTORE SWAP1 PUSH1 0x1 ADD SWAP1 PUSH1 0x20 ADD DUP1 DUP4 GT PUSH2 0x1754 JUMPI DUP3 SWAP1 SUB PUSH1 0x1F AND DUP3 ADD SWAP2 JUMPDEST POP POP POP POP POP DUP2 MSTORE PUSH1 0x20 ADD PUSH1 0x3 DUP3 ADD SLOAD DUP2 MSTORE PUSH1 0x20 ADD PUSH1 0x4 DUP3 ADD PUSH0 SWAP1 SLOAD SWAP1 PUSH2 0x100 EXP SWAP1 DIV PUSH1 0xFF AND ISZERO ISZERO ISZERO ISZERO DUP2 MSTORE POP POP SWAP1 POP DUP1 PUSH1 0x20 ADD MLOAD DUP2 PUSH1 0x40 ADD MLOAD DUP3 PUSH1 0x60 ADD MLOAD SWAP4 POP SWAP4 POP SWAP4 POP POP SWAP2 SWAP4 SWAP1 SWAP3 POP JUMP JUMPDEST PUSH0 PUSH1 0x40 MLOAD SWAP1 POP SWAP1 JUMP JUMPDEST PUSH0 PUSH0 REVERT JUMPDEST PUSH0 PUSH0 REVERT JUMPDEST PUSH0 DUP2 SWAP1 POP SWAP2 SWAP1 POP JUMP JUMPDEST PUSH2 0x17E0 DUP2 PUSH2 0x17CE JUMP JUMPDEST DUP2 EQ PUSH2 0x17EA JUMPI PUSH0 PUSH0 REVERT JUMPDEST POP JUMP JUMPDEST PUSH0 DUP2 CALLDATALOAD SWAP1 POP PUSH2 0x17FB DUP2 PUSH2 0x17D7 JUMP JUMPDEST SWAP3 SWAP2 POP POP JUMP JUMPDEST PUSH0 PUSH1 0x20 DUP3 DUP5 SUB SLT ISZERO PUSH2 0x1816 JUMPI PUSH2 0x1815 PUSH2 0x17C6 JUMP JUMPDEST JUMPDEST PUSH0 PUSH2 0x1823 DUP5 DUP3 DUP6 ADD PUSH2 0x17ED JUMP JUMPDEST SWAP2 POP POP SWAP3 SWAP2 POP POP JUMP JUMPDEST PUSH0 PUSH0 REVERT JUMPDEST PUSH0 PUSH0 REVERT JUMPDEST PUSH0 PUSH1 0x1F NOT PUSH1 0x1F DUP4 ADD AND SWAP1 POP SWAP2 SWAP1 POP JUMP JUMPDEST PUSH32 0x4E487B7100000000000000000000000000000000000000000000000000000000 PUSH0 MSTORE PUSH1 0x41 PUSH1 0x4 MSTORE PUSH1 0x24 PUSH0 REVERT JUMPDEST PUSH2 0x187A DUP3 PUSH2 0x1834 JUMP JUMPDEST DUP2 ADD DUP2 DUP2 LT PUSH8 0xFFFFFFFFFFFFFFFF DUP3 GT OR ISZERO PUSH2 0x1899 JUMPI PUSH2 0x1898 PUSH2 0x1844 JUMP JUMPDEST JUMPDEST DUP1 PUSH1 0x40 MSTORE POP POP POP JUMP JUMPDEST PUSH0 PUSH2 0x18AB PUSH2 0x17BD JUMP JUMPDEST SWAP1 POP PUSH2 0x18B7 DUP3 DUP3 PUSH2 0x1871 JUMP JUMPDEST SWAP2 SWAP1 POP JUMP JUMPDEST PUSH0 PUSH8 0xFFFFFFFFFFFFFFFF DUP3 GT ISZERO PUSH2 0x18D6 JUMPI PUSH2 0x18D5 PUSH2 0x1844 JUMP JUMPDEST JUMPDEST PUSH2 0x18DF DUP3 PUSH2 0x1834 JUMP JUMPDEST SWAP1 POP PUSH1 0x20 DUP2 ADD SWAP1 POP SWAP2 SWAP1 POP JUMP JUMPDEST DUP3 DUP2 DUP4 CALLDATACOPY PUSH0 DUP4 DUP4 ADD MSTORE POP POP POP JUMP JUMPDEST PUSH0 PUSH2 0x190C PUSH2 0x1907 DUP5 PUSH2 0x18BC JUMP JUMPDEST PUSH2 0x18A2 JUMP JUMPDEST SWAP1 POP DUP3 DUP2 MSTORE PUSH1 0x20 DUP2 ADD DUP5 DUP5 DUP5 ADD GT ISZERO PUSH2 0x1928 JUMPI PUSH2 0x1927 PUSH2 0x1830 JUMP JUMPDEST JUMPDEST PUSH2 0x1933 DUP5 DUP3 DUP6 PUSH2 0x18EC JUMP JUMPDEST POP SWAP4 SWAP3 POP POP POP JUMP JUMPDEST PUSH0 DUP3 PUSH1 0x1F DUP4 ADD SLT PUSH2 0x194F JUMPI PUSH2 0x194E PUSH2 0x182C JUMP JUMPDEST JUMPDEST DUP2 CALLDATALOAD PUSH2 0x195F DUP5 DUP3 PUSH1 0x20 DUP7 ADD PUSH2 0x18FA JUMP JUMPDEST SWAP2 POP POP SWAP3 SWAP2 POP POP JUMP JUMPDEST PUSH0 PUSH0 PUSH1 0x40 DUP4 DUP6 SUB SLT ISZERO PUSH2 0x197E JUMPI PUSH2 0x197D PUSH2 0x17C6 JUMP JUMPDEST JUMPDEST PUSH0 DUP4 ADD CALLDATALOAD PUSH8 0xFFFFFFFFFFFFFFFF DUP2 GT ISZERO PUSH2 0x199B JUMPI PUSH2 0x199A PUSH2 0x17CA JUMP JUMPDEST JUMPDEST PUSH2 0x19A7 DUP6 DUP3 DUP7 ADD PUSH2 0x193B JUMP JUMPDEST SWAP3 POP POP PUSH1 0x20 DUP4 ADD CALLDATALOAD PUSH8 0xFFFFFFFFFFFFFFFF DUP2 GT ISZERO PUSH2 0x19C8 JUMPI PUSH2 0x19C7 PUSH2 0x17CA JUMP JUMPDEST JUMPDEST PUSH2 0x19D4 DUP6 DUP3 DUP7 ADD PUSH2 0x193B JUMP JUMPDEST SWAP2 POP POP SWAP3 POP SWAP3 SWAP1 POP JUMP JUMPDEST PUSH0 DUP2 MLOAD SWAP1 POP SWAP2 SWAP1 POP JUMP JUMPDEST PUSH0 DUP3 DUP3 MSTORE PUSH1 0x20 DUP3 ADD SWAP1 POP SWAP3 SWAP2 POP POP JUMP JUMPDEST PUSH0 DUP2 SWAP1 POP PUSH1 0x20 DUP3 ADD SWAP1 POP SWAP2 SWAP1 POP JUMP JUMPDEST PUSH2 0x1A10 DUP2 PUSH2 0x17CE JUMP JUMPDEST DUP3 MSTORE POP POP JUMP JUMPDEST PUSH0 PUSH20 0xFFFFFFFFFFFFFFFFFFFFFFFFFFFFFFFFFFFFFFFF DUP3 AND SWAP1 POP SWAP2 SWAP1 POP JUMP JUMPDEST PUSH0 PUSH2 0x1A3F DUP3 PUSH2 0x1A16 JUMP JUMPDEST SWAP1 POP SWAP2 SWAP1 POP JUMP JUMPDEST PUSH2 0x1A4F DUP2 PUSH2 0x1A35 JUMP JUMPDEST DUP3 MSTORE POP POP JUMP JUMPDEST PUSH0 DUP2 MLOAD SWAP1 POP SWAP2 SWAP1 POP JUMP JUMPDEST PUSH0 DUP3 DUP3 MSTORE PUSH1 0x20 DUP3 ADD SWAP1 POP SWAP3 SWAP2 POP POP JUMP JUMPDEST DUP3 DUP2 DUP4 MCOPY PUSH0 DUP4 DUP4 ADD MSTORE POP POP POP JUMP JUMPDEST PUSH0 PUSH2 0x1A87 DUP3 PUSH2 0x1A55 JUMP JUMPDEST PUSH2 0x1A91 DUP2 DUP6 PUSH2 0x1A5F JUMP JUMPDEST SWAP4 POP PUSH2 0x1AA1 DUP2 DUP6 PUSH1 0x20 DUP7 ADD PUSH2 0x1A6F JUMP JUMPDEST PUSH2 0x1AAA DUP2 PUSH2 0x1834 JUMP JUMPDEST DUP5 ADD SWAP2 POP POP SWAP3 SWAP2 POP POP JUMP JUMPDEST PUSH0 PUSH1 0xA0 DUP4 ADD PUSH0 DUP4 ADD MLOAD PUSH2 0x1ACA PUSH0 DUP7 ADD DUP3 PUSH2 0x1A07 JUMP JUMPDEST POP PUSH1 0x20 DUP4 ADD MLOAD PUSH2 0x1ADD PUSH1 0x20 DUP7 ADD DUP3 PUSH2 0x1A46 JUMP JUMPDEST POP PUSH1 0x40 DUP4 ADD MLOAD DUP5 DUP3 SUB PUSH1 0x40 DUP7 ADD MSTORE PUSH2 0x1AF5 DUP3 DUP3 PUSH2 0x1A7D JUMP JUMPDEST SWAP2 POP POP PUSH1 0x60 DUP4 ADD MLOAD PUSH2 0x1B0A PUSH1 0x60 DUP7 ADD DUP3 PUSH2 0x1A07 JUMP JUMPDEST POP PUSH1 0x80 DUP4 ADD MLOAD PUSH2 0x1B1D PUSH1 0x80 DUP7 ADD DUP3 PUSH2 0x1A07 JUMP JUMPDEST POP DUP1 SWAP2 POP POP SWAP3 SWAP2 POP POP JUMP JUMPDEST PUSH0 PUSH2 0x1B33 DUP4 DUP4 PUSH2 0x1AB5 JUMP JUMPDEST SWAP1 POP SWAP3 SWAP2 POP POP JUMP JUMPDEST PUSH0 PUSH1 0x20 DUP3 ADD SWAP1 POP SWAP2 SWAP1 POP JUMP JUMPDEST PUSH0 PUSH2 0x1B51 DUP3 PUSH2 0x19DE JUMP JUMPDEST PUSH2 0x1B5B DUP2 DUP6 PUSH2 0x19E8 JUMP JUMPDEST SWAP4 POP DUP4 PUSH1 0x20 DUP3 MUL DUP6 ADD PUSH2 0x1B6D DUP6 PUSH2 0x19F8 JUMP JUMPDEST DUP1 PUSH0 JUMPDEST DUP6 DUP2 LT ISZERO PUSH2 0x1BA8 JUMPI DUP5 DUP5 SUB DUP10 MSTORE DUP2 MLOAD PUSH2 0x1B89 DUP6 DUP3 PUSH2 0x1B28 JUMP JUMPDEST SWAP5 POP PUSH2 0x1B94 DUP4 PUSH2 0x1B3B JUMP JUMPDEST SWAP3 POP PUSH1 0x20 DUP11 ADD SWAP10 POP POP PUSH1 0x1 DUP2 ADD SWAP1 POP PUSH2 0x1B70 JUMP JUMPDEST POP DUP3 SWAP8 POP DUP8 SWAP6 POP POP POP POP POP POP SWAP3 SWAP2 POP POP JUMP JUMPDEST PUSH0 PUSH1 0x20 DUP3 ADD SWAP1 POP DUP2 DUP2 SUB PUSH0 DUP4 ADD MSTORE PUSH2 0x1BD2 DUP2 DUP5 PUSH2 0x1B47 JUMP JUMPDEST SWAP1 POP SWAP3 SWAP2 POP POP JUMP JUMPDEST PUSH0 DUP2 MLOAD SWAP1 POP SWAP2 SWAP1 POP JUMP JUMPDEST PUSH0 DUP3 DUP3 MSTORE PUSH1 0x20 DUP3 ADD SWAP1 POP SWAP3 SWAP2 POP POP JUMP JUMPDEST PUSH0 DUP2 SWAP1 POP PUSH1 0x20 DUP3 ADD SWAP1 POP SWAP2 SWAP1 POP JUMP JUMPDEST PUSH0 PUSH2 0x1C0E DUP4 DUP4 PUSH2 0x1A07 JUMP JUMPDEST PUSH1 0x20 DUP4 ADD SWAP1 POP SWAP3 SWAP2 POP POP JUMP JUMPDEST PUSH0 PUSH1 0x20 DUP3 ADD SWAP1 POP SWAP2 SWAP1 POP JUMP JUMPDEST PUSH0 PUSH2 0x1C30 DUP3 PUSH2 0x1BDA JUMP JUMPDEST PUSH2 0x1C3A DUP2 DUP6 PUSH2 0x1BE4 JUMP JUMPDEST SWAP4 POP PUSH2 0x1C45 DUP4 PUSH2 0x1BF4 JUMP JUMPDEST DUP1 PUSH0 JUMPDEST DUP4 DUP2 LT ISZERO PUSH2 0x1C75 JUMPI DUP2 MLOAD PUSH2 0x1C5C DUP9 DUP3 PUSH2 0x1C03 JUMP JUMPDEST SWAP8 POP PUSH2 0x1C67 DUP4 PUSH2 0x1C1A JUMP JUMPDEST SWAP3 POP POP PUSH1 0x1 DUP2 ADD SWAP1 POP PUSH2 0x1C48 JUMP JUMPDEST POP DUP6 SWAP4 POP POP POP POP SWAP3 SWAP2 POP POP JUMP JUMPDEST PUSH0 PUSH1 0x20 DUP3 ADD SWAP1 POP DUP2 DUP2 SUB PUSH0 DUP4 ADD MSTORE PUSH2 0x1C9A DUP2 DUP5 PUSH2 0x1C26 JUMP JUMPDEST SWAP1 POP SWAP3 SWAP2 POP POP JUMP JUMPDEST PUSH2 0x1CAB DUP2 PUSH2 0x1A35 JUMP JUMPDEST DUP2 EQ PUSH2 0x1CB5 JUMPI PUSH0 PUSH0 REVERT JUMPDEST POP JUMP JUMPDEST PUSH0 DUP2 CALLDATALOAD SWAP1 POP PUSH2 0x1CC6 DUP2 PUSH2 0x1CA2 JUMP JUMPDEST SWAP3 SWAP2 POP POP JUMP JUMPDEST PUSH0 PUSH1 0x20 DUP3 DUP5 SUB SLT ISZERO PUSH2 0x1CE1 JUMPI PUSH2 0x1CE0 PUSH2 0x17C6 JUMP JUMPDEST JUMPDEST PUSH0 PUSH2 0x1CEE DUP5 DUP3 DUP6 ADD PUSH2 0x1CB8 JUMP JUMPDEST SWAP2 POP POP SWAP3 SWAP2 POP POP JUMP JUMPDEST PUSH2 0x1D00 DUP2 PUSH2 0x17CE JUMP JUMPDEST DUP3 MSTORE POP POP JUMP JUMPDEST PUSH2 0x1D0F DUP2 PUSH2 0x1A35 JUMP JUMPDEST DUP3 MSTORE POP POP JUMP JUMPDEST PUSH0 DUP3 DUP3 MSTORE PUSH1 0x20 DUP3 ADD SWAP1 POP SWAP3 SWAP2 POP POP JUMP JUMPDEST PUSH0 PUSH2 0x1D2F DUP3 PUSH2 0x1A55 JUMP JUMPDEST PUSH2 0x1D39 DUP2 DUP6 PUSH2 0x1D15 JUMP JUMPDEST SWAP4 POP PUSH2 0x1D49 DUP2 DUP6 PUSH1 0x20 DUP7 ADD PUSH2 0x1A6F JUMP JUMPDEST PUSH2 0x1D52 DUP2 PUSH2 0x1834 JUMP JUMPDEST DUP5 ADD SWAP2 POP POP SWAP3 SWAP2 POP POP JUMP JUMPDEST PUSH0 PUSH1 0xC0 DUP3 ADD SWAP1 POP PUSH2 0x1D70 PUSH0 DUP4 ADD DUP10 PUSH2 0x1CF7 JUMP JUMPDEST PUSH2 0x1D7D PUSH1 0x20 DUP4 ADD DUP9 PUSH2 0x1D06 JUMP JUMPDEST DUP2 DUP2 SUB PUSH1 0x40 DUP4 ADD MSTORE PUSH2 0x1D8F DUP2 DUP8 PUSH2 0x1D25 JUMP JUMPDEST SWAP1 POP DUP2 DUP2 SUB PUSH1 0x60 DUP4 ADD MSTORE PUSH2 0x1DA3 DUP2 DUP7 PUSH2 0x1D25 JUMP JUMPDEST SWAP1 POP PUSH2 0x1DB2 PUSH1 0x80 DUP4 ADD DUP6 PUSH2 0x1CF7 JUMP JUMPDEST PUSH2 0x1DBF PUSH1 0xA0 DUP4 ADD DUP5 PUSH2 0x1CF7 JUMP JUMPDEST SWAP8 SWAP7 POP POP POP POP POP POP POP JUMP JUMPDEST PUSH0 PUSH0 PUSH1 0x40 DUP4 DUP6 SUB SLT ISZERO PUSH2 0x1DE0 JUMPI PUSH2 0x1DDF PUSH2 0x17C6 JUMP JUMPDEST JUMPDEST PUSH0 PUSH2 0x1DED DUP6 DUP3 DUP7 ADD PUSH2 0x17ED JUMP JUMPDEST SWAP3 POP POP PUSH1 0x20 DUP4 ADD CALLDATALOAD PUSH8 0xFFFFFFFFFFFFFFFF DUP2 GT ISZERO PUSH2 0x1E0E JUMPI PUSH2 0x1E0D PUSH2 0x17CA JUMP JUMPDEST JUMPDEST PUSH2 0x1E1A DUP6 DUP3 DUP7 ADD PUSH2 0x193B JUMP JUMPDEST SWAP2 POP POP SWAP3 POP SWAP3 SWAP1 POP JUMP JUMPDEST PUSH0 PUSH1 0x60 DUP3 ADD SWAP1 POP DUP2 DUP2 SUB PUSH0 DUP4 ADD MSTORE PUSH2 0x1E3C DUP2 DUP7 PUSH2 0x1D25 JUMP JUMPDEST SWAP1 POP DUP2 DUP2 SUB PUSH1 0x20 DUP4 ADD MSTORE PUSH2 0x1E50 DUP2 DUP6 PUSH2 0x1D25 JUMP JUMPDEST SWAP1 POP PUSH2 0x1E5F PUSH1 0x40 DUP4 ADD DUP5 PUSH2 0x1CF7 JUMP JUMPDEST SWAP5 SWAP4 POP POP POP POP JUMP JUMPDEST PUSH32 0x506F7374206E6F6E2074726F7661746F2E000000000000000000000000000000 PUSH0 DUP3 ADD MSTORE POP JUMP JUMPDEST PUSH0 PUSH2 0x1E9B PUSH1 0x11 DUP4 PUSH2 0x1D15 JUMP JUMPDEST SWAP2 POP PUSH2 0x1EA6 DUP3 PUSH2 0x1E67 JUMP JUMPDEST PUSH1 0x20 DUP3 ADD SWAP1 POP SWAP2 SWAP1 POP JUMP JUMPDEST PUSH0 PUSH1 0x20 DUP3 ADD SWAP1 POP DUP2 DUP2 SUB PUSH0 DUP4 ADD MSTORE PUSH2 0x1EC8 DUP2 PUSH2 0x1E8F JUMP JUMPDEST SWAP1 POP SWAP2 SWAP1 POP JUMP JUMPDEST PUSH32 0x4E6F6E20736569206C276175746F72652064692071756573746F20706F73742E PUSH0 DUP3 ADD MSTORE POP JUMP JUMPDEST PUSH0 PUSH2 0x1F03 PUSH1 0x20 DUP4 PUSH2 0x1D15 JUMP JUMPDEST SWAP2 POP PUSH2 0x1F0E DUP3 PUSH2 0x1ECF JUMP JUMPDEST PUSH1 0x20 DUP3 ADD SWAP1 POP SWAP2 SWAP1 POP JUMP JUMPDEST PUSH0 PUSH1 0x20 DUP3 ADD SWAP1 POP DUP2 DUP2 SUB PUSH0 DUP4 ADD MSTORE PUSH2 0x1F30 DUP2 PUSH2 0x1EF7 JUMP JUMPDEST SWAP1 POP SWAP2 SWAP1 POP JUMP JUMPDEST PUSH32 0x4163636F756E742067696127206573697374656E74652E000000000000000000 PUSH0 DUP3 ADD MSTORE POP JUMP JUMPDEST PUSH0 PUSH2 0x1F6B PUSH1 0x17 DUP4 PUSH2 0x1D15 JUMP JUMPDEST SWAP2 POP PUSH2 0x1F76 DUP3 PUSH2 0x1F37 JUMP JUMPDEST PUSH1 0x20 DUP3 ADD SWAP1 POP SWAP2 SWAP1 POP JUMP JUMPDEST PUSH0 PUSH1 0x20 DUP3 ADD SWAP1 POP DUP2 DUP2 SUB PUSH0 DUP4 ADD MSTORE PUSH2 0x1F98 DUP2 PUSH2 0x1F5F JUMP JUMPDEST SWAP1 POP SWAP2 SWAP1 POP JUMP JUMPDEST PUSH32 0x557365726E616D65206E6F6E2070756F27206573736572652076756F746F2E00 PUSH0 DUP3 ADD MSTORE POP JUMP JUMPDEST PUSH0 PUSH2 0x1FD3 PUSH1 0x1F DUP4 PUSH2 0x1D15 JUMP JUMPDEST SWAP2 POP PUSH2 0x1FDE DUP3 PUSH2 0x1F9F JUMP JUMPDEST PUSH1 0x20 DUP3 ADD SWAP1 POP SWAP2 SWAP1 POP JUMP JUMPDEST PUSH0 PUSH1 0x20 DUP3 ADD SWAP1 POP DUP2 DUP2 SUB PUSH0 DUP4 ADD MSTORE PUSH2 0x2000 DUP2 PUSH2 0x1FC7 JUMP JUMPDEST SWAP1 POP SWAP2 SWAP1 POP JUMP JUMPDEST PUSH32 0x4E487B7100000000000000000000000000000000000000000000000000000000 PUSH0 MSTORE PUSH1 0x22 PUSH1 0x4 MSTORE PUSH1 0x24 PUSH0 REVERT JUMPDEST PUSH0 PUSH1 0x2 DUP3 DIV SWAP1 POP PUSH1 0x1 DUP3 AND DUP1 PUSH2 0x204B JUMPI PUSH1 0x7F DUP3 AND SWAP2 POP JUMPDEST PUSH1 0x20 DUP3 LT DUP2 SUB PUSH2 0x205E JUMPI PUSH2 0x205D PUSH2 0x2007 JUMP JUMPDEST JUMPDEST POP SWAP2 SWAP1 POP JUMP JUMPDEST PUSH0 DUP2 SWAP1 POP DUP2 PUSH0 MSTORE PUSH1 0x20 PUSH0 KECCAK256 SWAP1 POP SWAP2 SWAP1 POP JUMP JUMPDEST PUSH0 PUSH1 0x20 PUSH1 0x1F DUP4 ADD DIV SWAP1 POP SWAP2 SWAP1 POP JUMP JUMPDEST PUSH0 DUP3 DUP3 SHL SWAP1 POP SWAP3 SWAP2 POP POP JUMP JUMPDEST PUSH0 PUSH1 0x8 DUP4 MUL PUSH2 0x20C0 PUSH32 0xFFFFFFFFFFFFFFFFFFFFFFFFFFFFFFFFFFFFFFFFFFFFFFFFFFFFFFFFFFFFFFFF DUP3 PUSH2 0x2085 JUMP JUMPDEST PUSH2 0x20CA DUP7 DUP4 PUSH2 0x2085 JUMP JUMPDEST SWAP6 POP DUP1 NOT DUP5 AND SWAP4 POP DUP1 DUP7 AND DUP5 OR SWAP3 POP POP POP SWAP4 SWAP3 POP POP POP JUMP JUMPDEST PUSH0 DUP2 SWAP1 POP SWAP2 SWAP1 POP JUMP JUMPDEST PUSH0 PUSH2 0x2105 PUSH2 0x2100 PUSH2 0x20FB DUP5 PUSH2 0x17CE JUMP JUMPDEST PUSH2 0x20E2 JUMP JUMPDEST PUSH2 0x17CE JUMP JUMPDEST SWAP1 POP SWAP2 SWAP1 POP JUMP JUMPDEST PUSH0 DUP2 SWAP1 POP SWAP2 SWAP1 POP JUMP JUMPDEST PUSH2 0x211E DUP4 PUSH2 0x20EB JUMP JUMPDEST PUSH2 0x2132 PUSH2 0x212A DUP3 PUSH2 0x210C JUMP JUMPDEST DUP5 DUP5 SLOAD PUSH2 0x2091 JUMP JUMPDEST DUP3 SSTORE POP POP POP POP JUMP JUMPDEST PUSH0 PUSH0 SWAP1 POP SWAP1 JUMP JUMPDEST PUSH2 0x2149 PUSH2 0x213A JUMP JUMPDEST PUSH2 0x2154 DUP2 DUP5 DUP5 PUSH2 0x2115 JUMP JUMPDEST POP POP POP JUMP JUMPDEST JUMPDEST DUP2 DUP2 LT ISZERO PUSH2 0x2177 JUMPI PUSH2 0x216C PUSH0 DUP3 PUSH2 0x2141 JUMP JUMPDEST PUSH1 0x1 DUP2 ADD SWAP1 POP PUSH2 0x215A JUMP JUMPDEST POP POP JUMP JUMPDEST PUSH1 0x1F DUP3 GT ISZERO PUSH2 0x21BC JUMPI PUSH2 0x218D DUP2 PUSH2 0x2064 JUMP JUMPDEST PUSH2 0x2196 DUP5 PUSH2 0x2076 JUMP JUMPDEST DUP2 ADD PUSH1 0x20 DUP6 LT ISZERO PUSH2 0x21A5 JUMPI DUP2 SWAP1 POP JUMPDEST PUSH2 0x21B9 PUSH2 0x21B1 DUP6 PUSH2 0x2076 JUMP JUMPDEST DUP4 ADD DUP3 PUSH2 0x2159 JUMP JUMPDEST POP POP JUMPDEST POP POP POP JUMP JUMPDEST PUSH0 DUP3 DUP3 SHR SWAP1 POP SWAP3 SWAP2 POP POP JUMP JUMPDEST PUSH0 PUSH2 0x21DC PUSH0 NOT DUP5 PUSH1 0x8 MUL PUSH2 0x21C1 JUMP JUMPDEST NOT DUP1 DUP4 AND SWAP2 POP POP SWAP3 SWAP2 POP POP JUMP JUMPDEST PUSH0 PUSH2 0x21F4 DUP4 DUP4 PUSH2 0x21CD JUMP JUMPDEST SWAP2 POP DUP3 PUSH1 0x2 MUL DUP3 OR SWAP1 POP SWAP3 SWAP2 POP POP JUMP JUMPDEST PUSH2 0x220D DUP3 PUSH2 0x1A55 JUMP JUMPDEST PUSH8 0xFFFFFFFFFFFFFFFF DUP2 GT ISZERO PUSH2 0x2226 JUMPI PUSH2 0x2225 PUSH2 0x1844 JUMP JUMPDEST JUMPDEST PUSH2 0x2230 DUP3 SLOAD PUSH2 0x2034 JUMP JUMPDEST PUSH2 0x223B DUP3 DUP3 DUP6 PUSH2 0x217B JUMP JUMPDEST PUSH0 PUSH1 0x20 SWAP1 POP PUSH1 0x1F DUP4 GT PUSH1 0x1 DUP2 EQ PUSH2 0x226C JUMPI PUSH0 DUP5 ISZERO PUSH2 0x225A JUMPI DUP3 DUP8 ADD MLOAD SWAP1 POP JUMPDEST PUSH2 0x2264 DUP6 DUP3 PUSH2 0x21E9 JUMP JUMPDEST DUP7 SSTORE POP PUSH2 0x22CB JUMP JUMPDEST PUSH1 0x1F NOT DUP5 AND PUSH2 0x227A DUP7 PUSH2 0x2064 JUMP JUMPDEST PUSH0 JUMPDEST DUP3 DUP2 LT ISZERO PUSH2 0x22A1 JUMPI DUP5 DUP10 ADD MLOAD DUP3 SSTORE PUSH1 0x1 DUP3 ADD SWAP2 POP PUSH1 0x20 DUP6 ADD SWAP5 POP PUSH1 0x20 DUP2 ADD SWAP1 POP PUSH2 0x227C JUMP JUMPDEST DUP7 DUP4 LT ISZERO PUSH2 0x22BE JUMPI DUP5 DUP10 ADD MLOAD PUSH2 0x22BA PUSH1 0x1F DUP10 AND DUP3 PUSH2 0x21CD JUMP JUMPDEST DUP4 SSTORE POP JUMPDEST PUSH1 0x1 PUSH1 0x2 DUP9 MUL ADD DUP9 SSTORE POP POP POP JUMPDEST POP POP POP POP POP POP JUMP JUMPDEST PUSH0 PUSH1 0x20 DUP3 ADD SWAP1 POP DUP2 DUP2 SUB PUSH0 DUP4 ADD MSTORE PUSH2 0x22EB DUP2 DUP5 PUSH2 0x1D25 JUMP JUMPDEST SWAP1 POP SWAP3 SWAP2 POP POP JUMP JUMPDEST PUSH32 0x4E487B7100000000000000000000000000000000000000000000000000000000 PUSH0 MSTORE PUSH1 0x11 PUSH1 0x4 MSTORE PUSH1 0x24 PUSH0 REVERT JUMPDEST PUSH0 PUSH2 0x232A DUP3 PUSH2 0x17CE JUMP JUMPDEST SWAP2 POP PUSH32 0xFFFFFFFFFFFFFFFFFFFFFFFFFFFFFFFFFFFFFFFFFFFFFFFFFFFFFFFFFFFFFFFF DUP3 SUB PUSH2 0x235C JUMPI PUSH2 0x235B PUSH2 0x22F3 JUMP JUMPDEST JUMPDEST PUSH1 0x1 DUP3 ADD SWAP1 POP SWAP2 SWAP1 POP JUMP JUMPDEST PUSH32 0x4E487B7100000000000000000000000000000000000000000000000000000000 PUSH0 MSTORE PUSH1 0x32 PUSH1 0x4 MSTORE PUSH1 0x24 PUSH0 REVERT JUMPDEST PUSH32 0x44657669207072696D612063726561726520756E206163636F756E742E000000 PUSH0 DUP3 ADD MSTORE POP JUMP JUMPDEST PUSH0 PUSH2 0x23C8 PUSH1 0x1D DUP4 PUSH2 0x1D15 JUMP JUMPDEST SWAP2 POP PUSH2 0x23D3 DUP3 PUSH2 0x2394 JUMP JUMPDEST PUSH1 0x20 DUP3 ADD SWAP1 POP SWAP2 SWAP1 POP JUMP JUMPDEST PUSH0 PUSH1 0x20 DUP3 ADD SWAP1 POP DUP2 DUP2 SUB PUSH0 DUP4 ADD MSTORE PUSH2 0x23F5 DUP2 PUSH2 0x23BC JUMP JUMPDEST SWAP1 POP SWAP2 SWAP1 POP JUMP JUMPDEST PUSH32 0x496C207469746F6C6F206E6F6E2070756F27206573736572652076756F746F2E PUSH0 DUP3 ADD MSTORE POP JUMP JUMPDEST PUSH0 PUSH2 0x2430 PUSH1 0x20 DUP4 PUSH2 0x1D15 JUMP JUMPDEST SWAP2 POP PUSH2 0x243B DUP3 PUSH2 0x23FC JUMP JUMPDEST PUSH1 0x20 DUP3 ADD SWAP1 POP SWAP2 SWAP1 POP JUMP JUMPDEST PUSH0 PUSH1 0x20 DUP3 ADD SWAP1 POP DUP2 DUP2 SUB PUSH0 DUP4 ADD MSTORE PUSH2 0x245D DUP2 PUSH2 0x2424 JUMP JUMPDEST SWAP1 POP SWAP2 SWAP1 POP JUMP JUMPDEST PUSH32 0x496C20636F6E74656E75746F206E6F6E2070756F27206573736572652076756F PUSH0 DUP3 ADD MSTORE PUSH32 0x746F2E0000000000000000000000000000000000000000000000000000000000 PUSH1 0x20 DUP3 ADD MSTORE POP JUMP JUMPDEST PUSH0 PUSH2 0x24BE PUSH1 0x23 DUP4 PUSH2 0x1D15 JUMP JUMPDEST SWAP2 POP PUSH2 0x24C9 DUP3 PUSH2 0x2464 JUMP JUMPDEST PUSH1 0x40 DUP3 ADD SWAP1 POP SWAP2 SWAP1 POP JUMP JUMPDEST PUSH0 PUSH1 0x20 DUP3 ADD SWAP1 POP DUP2 DUP2 SUB PUSH0 DUP4 ADD MSTORE PUSH2 0x24EB DUP2 PUSH2 0x24B2 JUMP JUMPDEST SWAP1 POP SWAP2 SWAP1 POP JUMP JUMPDEST PUSH32 0x4861692067696127206D6573736F206C696B6520612071756573746F20706F73 PUSH0 DUP3 ADD MSTORE PUSH32 0x742E000000000000000000000000000000000000000000000000000000000000 PUSH1 0x20 DUP3 ADD MSTORE POP JUMP JUMPDEST PUSH0 PUSH2 0x254C PUSH1 0x22 DUP4 PUSH2 0x1D15 JUMP JUMPDEST SWAP2 POP PUSH2 0x2557 DUP3 PUSH2 0x24F2 JUMP JUMPDEST PUSH1 0x40 DUP3 ADD SWAP1 POP SWAP2 SWAP1 POP JUMP JUMPDEST PUSH0 PUSH1 0x20 DUP3 ADD SWAP1 POP DUP2 DUP2 SUB PUSH0 DUP4 ADD MSTORE PUSH2 0x2579 DUP2 PUSH2 0x2540 JUMP JUMPDEST SWAP1 POP SWAP2 SWAP1 POP JUMP JUMPDEST PUSH32 0x496C20636F6D6D656E746F206E6F6E2070756F27206573736572652076756F74 PUSH0 DUP3 ADD MSTORE PUSH32 0x6F2E000000000000000000000000000000000000000000000000000000000000 PUSH1 0x20 DUP3 ADD MSTORE POP JUMP JUMPDEST PUSH0 PUSH2 0x25DA PUSH1 0x22 DUP4 PUSH2 0x1D15 JUMP JUMPDEST SWAP2 POP PUSH2 0x25E5 DUP3 PUSH2 0x2580 JUMP JUMPDEST PUSH1 0x40 DUP3 ADD SWAP1 POP SWAP2 SWAP1 POP JUMP JUMPDEST PUSH0 PUSH1 0x20 DUP3 ADD SWAP1 POP DUP2 DUP2 SUB PUSH0 DUP4 ADD MSTORE PUSH2 0x2607 DUP2 PUSH2 0x25CE JUMP JUMPDEST SWAP1 POP SWAP2 SWAP1 POP JUMP JUMPDEST PUSH32 0x4163636F756E74206E6F6E2074726F7661746F2E000000000000000000000000 PUSH0 DUP3 ADD MSTORE POP JUMP JUMPDEST PUSH0 PUSH2 0x2642 PUSH1 0x14 DUP4 PUSH2 0x1D15 JUMP JUMPDEST SWAP2 POP PUSH2 0x264D DUP3 PUSH2 0x260E JUMP JUMPDEST PUSH1 0x20 DUP3 ADD SWAP1 POP SWAP2 SWAP1 POP JUMP JUMPDEST PUSH0 PUSH1 0x20 DUP3 ADD SWAP1 POP DUP2 DUP2 SUB PUSH0 DUP4 ADD MSTORE PUSH2 0x266F DUP2 PUSH2 0x2636 JUMP JUMPDEST SWAP1 POP SWAP2 SWAP1 POP JUMP INVALID LOG2 PUSH5 0x6970667358 0x22 SLT KECCAK256 ADDRESS BYTE BLOBBASEFEE MOD 0xAE 0xDF DUP1 DUP12 PUSH0 SWAP6 DUP1 PUSH30 0xDD57645A2B5CAB757D8066A420B9B15EE486C9A864736F6C634300081E00 CALLER "
				},
				"gasEstimates": {
					"creation": {
						"codeDepositCost": "1980000",
						"executionCost": "2096",
						"totalCost": "1982096"
					},
					"external": {
						"addComment(uint256,string)": "infinite",
						"createAccount(string,string)": "infinite",
						"createPost(string,string)": "infinite",
						"deletePost(uint256)": "30399",
						"editPost(uint256,string)": "infinite",
						"getAccount(address)": "infinite",
						"getAllPosts()": "infinite",
						"getComments(uint256)": "infinite",
						"getPostDetails(uint256)": "infinite",
						"getPostsByAccount(address)": "infinite",
						"likePost(uint256)": "infinite"
					}
				},
				"methodIdentifiers": {
					"addComment(uint256,string)": "aa7e5683",
					"createAccount(string,string)": "19289287",
					"createPost(string,string)": "392338f5",
					"deletePost(uint256)": "094cd5ee",
					"editPost(uint256,string)": "fa99654a",
					"getAccount(address)": "fbcbc0f1",
					"getAllPosts()": "30561100",
					"getComments(uint256)": "23edf697",
					"getPostDetails(uint256)": "9fc226f4",
					"getPostsByAccount(address)": "47ef6de1",
					"likePost(uint256)": "725009d3"
				}
			},
			"storageLayout": {
				"storage": [
					{
						"astId": 44,
						"contract": "BlogContract.sol:BlogContract",
						"label": "accounts",
						"offset": 0,
						"slot": "0",
						"type": "t_mapping(t_address,t_struct(Account)13_storage)"
					},
					{
						"astId": 49,
						"contract": "BlogContract.sol:BlogContract",
						"label": "posts",
						"offset": 0,
						"slot": "1",
						"type": "t_mapping(t_uint256,t_struct(Post)28_storage)"
					},
					{
						"astId": 55,
						"contract": "BlogContract.sol:BlogContract",
						"label": "comments",
						"offset": 0,
						"slot": "2",
						"type": "t_mapping(t_uint256,t_array(t_struct(Comment)39_storage)dyn_storage)"
					},
					{
						"astId": 60,
						"contract": "BlogContract.sol:BlogContract",
						"label": "postsByAccount",
						"offset": 0,
						"slot": "3",
						"type": "t_mapping(t_address,t_array(t_uint256)dyn_storage)"
					},
					{
						"astId": 66,
						"contract": "BlogContract.sol:BlogContract",
						"label": "hasLiked",
						"offset": 0,
						"slot": "4",
						"type": "t_mapping(t_uint256,t_mapping(t_address,t_bool))"
					},
					{
						"astId": 68,
						"contract": "BlogContract.sol:BlogContract",
						"label": "postCount",
						"offset": 0,
						"slot": "5",
						"type": "t_uint256"
					}
				],
				"types": {
					"t_address": {
						"encoding": "inplace",
						"label": "address",
						"numberOfBytes": "20"
					},
					"t_array(t_struct(Comment)39_storage)dyn_storage": {
						"base": "t_struct(Comment)39_storage",
						"encoding": "dynamic_array",
						"label": "struct BlogContract.Comment[]",
						"numberOfBytes": "32"
					},
					"t_array(t_uint256)dyn_storage": {
						"base": "t_uint256",
						"encoding": "dynamic_array",
						"label": "uint256[]",
						"numberOfBytes": "32"
					},
					"t_bool": {
						"encoding": "inplace",
						"label": "bool",
						"numberOfBytes": "1"
					},
					"t_mapping(t_address,t_array(t_uint256)dyn_storage)": {
						"encoding": "mapping",
						"key": "t_address",
						"label": "mapping(address => uint256[])",
						"numberOfBytes": "32",
						"value": "t_array(t_uint256)dyn_storage"
					},
					"t_mapping(t_address,t_bool)": {
						"encoding": "mapping",
						"key": "t_address",
						"label": "mapping(address => bool)",
						"numberOfBytes": "32",
						"value": "t_bool"
					},
					"t_mapping(t_address,t_struct(Account)13_storage)": {
						"encoding": "mapping",
						"key": "t_address",
						"label": "mapping(address => struct BlogContract.Account)",
						"numberOfBytes": "32",
						"value": "t_struct(Account)13_storage"
					},
					"t_mapping(t_uint256,t_array(t_struct(Comment)39_storage)dyn_storage)": {
						"encoding": "mapping",
						"key": "t_uint256",
						"label": "mapping(uint256 => struct BlogContract.Comment[])",
						"numberOfBytes": "32",
						"value": "t_array(t_struct(Comment)39_storage)dyn_storage"
					},
					"t_mapping(t_uint256,t_mapping(t_address,t_bool))": {
						"encoding": "mapping",
						"key": "t_uint256",
						"label": "mapping(uint256 => mapping(address => bool))",
						"numberOfBytes": "32",
						"value": "t_mapping(t_address,t_bool)"
					},
					"t_mapping(t_uint256,t_struct(Post)28_storage)": {
						"encoding": "mapping",
						"key": "t_uint256",
						"label": "mapping(uint256 => struct BlogContract.Post)",
						"numberOfBytes": "32",
						"value": "t_struct(Post)28_storage"
					},
					"t_string_storage": {
						"encoding": "bytes",
						"label": "string",
						"numberOfBytes": "32"
					},
					"t_struct(Account)13_storage": {
						"encoding": "inplace",
						"label": "struct BlogContract.Account",
						"members": [
							{
								"astId": 4,
								"contract": "BlogContract.sol:BlogContract",
								"label": "owner",
								"offset": 0,
								"slot": "0",
								"type": "t_address"
							},
							{
								"astId": 6,
								"contract": "BlogContract.sol:BlogContract",
								"label": "username",
								"offset": 0,
								"slot": "1",
								"type": "t_string_storage"
							},
							{
								"astId": 8,
								"contract": "BlogContract.sol:BlogContract",
								"label": "bio",
								"offset": 0,
								"slot": "2",
								"type": "t_string_storage"
							},
							{
								"astId": 10,
								"contract": "BlogContract.sol:BlogContract",
								"label": "createdAt",
								"offset": 0,
								"slot": "3",
								"type": "t_uint256"
							},
							{
								"astId": 12,
								"contract": "BlogContract.sol:BlogContract",
								"label": "exists",
								"offset": 0,
								"slot": "4",
								"type": "t_bool"
							}
						],
						"numberOfBytes": "160"
					},
					"t_struct(Comment)39_storage": {
						"encoding": "inplace",
						"label": "struct BlogContract.Comment",
						"members": [
							{
								"astId": 30,
								"contract": "BlogContract.sol:BlogContract",
								"label": "commentId",
								"offset": 0,
								"slot": "0",
								"type": "t_uint256"
							},
							{
								"astId": 32,
								"contract": "BlogContract.sol:BlogContract",
								"label": "author",
								"offset": 0,
								"slot": "1",
								"type": "t_address"
							},
							{
								"astId": 34,
								"contract": "BlogContract.sol:BlogContract",
								"label": "text",
								"offset": 0,
								"slot": "2",
								"type": "t_string_storage"
							},
							{
								"astId": 36,
								"contract": "BlogContract.sol:BlogContract",
								"label": "postId",
								"offset": 0,
								"slot": "3",
								"type": "t_uint256"
							},
							{
								"astId": 38,
								"contract": "BlogContract.sol:BlogContract",
								"label": "createdAt",
								"offset": 0,
								"slot": "4",
								"type": "t_uint256"
							}
						],
						"numberOfBytes": "160"
					},
					"t_struct(Post)28_storage": {
						"encoding": "inplace",
						"label": "struct BlogContract.Post",
						"members": [
							{
								"astId": 15,
								"contract": "BlogContract.sol:BlogContract",
								"label": "postId",
								"offset": 0,
								"slot": "0",
								"type": "t_uint256"
							},
							{
								"astId": 17,
								"contract": "BlogContract.sol:BlogContract",
								"label": "author",
								"offset": 0,
								"slot": "1",
								"type": "t_address"
							},
							{
								"astId": 19,
								"contract": "BlogContract.sol:BlogContract",
								"label": "title",
								"offset": 0,
								"slot": "2",
								"type": "t_string_storage"
							},
							{
								"astId": 21,
								"contract": "BlogContract.sol:BlogContract",
								"label": "content",
								"offset": 0,
								"slot": "3",
								"type": "t_string_storage"
							},
							{
								"astId": 23,
								"contract": "BlogContract.sol:BlogContract",
								"label": "likes",
								"offset": 0,
								"slot": "4",
								"type": "t_uint256"
							},
							{
								"astId": 25,
								"contract": "BlogContract.sol:BlogContract",
								"label": "createdAt",
								"offset": 0,
								"slot": "5",
								"type": "t_uint256"
							},
							{
								"astId": 27,
								"contract": "BlogContract.sol:BlogContract",
								"label": "exists",
								"offset": 0,
								"slot": "6",
								"type": "t_bool"
							}
						],
						"numberOfBytes": "224"
					},
					"t_uint256": {
						"encoding": "inplace",
						"label": "uint256",
						"numberOfBytes": "32"
					}
				}
			},
			"userdoc": {
				"kind": "user",
				"methods": {
					"addComment(uint256,string)": {
						"notice": "Aggiunge un commento a un post"
					},
					"createAccount(string,string)": {
						"notice": "Crea un nuovo account per msg.sender"
					},
					"createPost(string,string)": {
						"notice": "Crea un nuovo post"
					},
					"deletePost(uint256)": {
						"notice": "Elimina un post (solo l'autore)"
					},
					"editPost(uint256,string)": {
						"notice": "Modifica il contenuto di un post (solo l'autore)"
					},
					"getAccount(address)": {
						"notice": "Restituisce i dati di un account dato il suo indirizzo"
					},
					"getAllPosts()": {
						"notice": "Restituisce tutti i postId esistenti"
					},
					"getComments(uint256)": {
						"notice": "Restituisce tutti i commenti di un post"
					},
					"getPostDetails(uint256)": {
						"notice": "Restituisce i dettagli di un post"
					},
					"getPostsByAccount(address)": {
						"notice": "Restituisce tutti i postId di un determinato account"
					},
					"likePost(uint256)": {
						"notice": "Mette like a un post (una volta sola per indirizzo)"
					}
				},
				"version": 1
			}
		}
	}
}